{
	"OneDrive/Documents/Coding/SWC Examples/SWC101/SWC101_Fixed.sol": {
		"SWC101_Fixed": {
			"abi": [
				{
					"inputs": [
						{
							"internalType": "address",
							"name": "",
							"type": "address"
						}
					],
					"name": "balances",
					"outputs": [
						{
							"internalType": "uint256",
							"name": "",
							"type": "uint256"
						}
					],
					"stateMutability": "view",
					"type": "function"
				},
				{
					"inputs": [],
					"name": "overflowVar",
					"outputs": [
						{
							"internalType": "uint8",
							"name": "",
							"type": "uint8"
						}
					],
					"stateMutability": "view",
					"type": "function"
				},
				{
					"inputs": [],
					"name": "safeOverflow",
					"outputs": [],
					"stateMutability": "nonpayable",
					"type": "function"
				},
				{
					"inputs": [
						{
							"internalType": "address",
							"name": "to",
							"type": "address"
						},
						{
							"internalType": "uint256",
							"name": "amount",
							"type": "uint256"
						}
					],
					"name": "safeTransfer",
					"outputs": [],
					"stateMutability": "nonpayable",
					"type": "function"
				},
				{
					"inputs": [
						{
							"internalType": "uint8",
							"name": "amount",
							"type": "uint8"
						}
					],
					"name": "safeUnderflow",
					"outputs": [],
					"stateMutability": "nonpayable",
					"type": "function"
				},
				{
					"inputs": [],
					"name": "underflowVar",
					"outputs": [
						{
							"internalType": "uint8",
							"name": "",
							"type": "uint8"
						}
					],
					"stateMutability": "view",
					"type": "function"
				}
			],
			"devdoc": {
				"kind": "dev",
				"methods": {},
				"version": 1
			},
			"evm": {
				"assembly": "    /* \"OneDrive/Documents/Coding/SWC Examples/SWC101/SWC101_Fixed.sol\":260:979  contract SWC101_Fixed {... */\n  mstore(0x40, 0x80)\n    /* \"OneDrive/Documents/Coding/SWC Examples/SWC101/SWC101_Fixed.sol\":317:318  0 */\n  0x00\n    /* \"OneDrive/Documents/Coding/SWC Examples/SWC101/SWC101_Fixed.sol\":289:318  uint8 public underflowVar = 0 */\n  dup1\n  exp(0x0100, 0x00)\n  dup2\n  sload\n  dup2\n  0xff\n  mul\n  not\n  and\n  swap1\n  dup4\n  0xff\n  and\n  mul\n  or\n  swap1\n  sstore\n  pop\n    /* \"OneDrive/Documents/Coding/SWC Examples/SWC101/SWC101_Fixed.sol\":352:355  255 */\n  0xff\n    /* \"OneDrive/Documents/Coding/SWC Examples/SWC101/SWC101_Fixed.sol\":325:355  uint8 public overflowVar = 255 */\n  0x00\n  exp(0x0100, 0x01)\n  dup2\n  sload\n  dup2\n  0xff\n  mul\n  not\n  and\n  swap1\n  dup4\n  0xff\n  and\n  mul\n  or\n  swap1\n  sstore\n  pop\n    /* \"OneDrive/Documents/Coding/SWC Examples/SWC101/SWC101_Fixed.sol\":260:979  contract SWC101_Fixed {... */\n  callvalue\n  dup1\n  iszero\n  tag_1\n  jumpi\n  0x00\n  dup1\n  revert\ntag_1:\n  pop\n  dataSize(sub_0)\n  dup1\n  dataOffset(sub_0)\n  0x00\n  codecopy\n  0x00\n  return\nstop\n\nsub_0: assembly {\n        /* \"OneDrive/Documents/Coding/SWC Examples/SWC101/SWC101_Fixed.sol\":260:979  contract SWC101_Fixed {... */\n      mstore(0x40, 0x80)\n      callvalue\n      dup1\n      iszero\n      tag_1\n      jumpi\n      0x00\n      dup1\n      revert\n    tag_1:\n      pop\n      jumpi(tag_2, lt(calldatasize, 0x04))\n      shr(0xe0, calldataload(0x00))\n      dup1\n      0x0ee0820d\n      eq\n      tag_3\n      jumpi\n      dup1\n      0x27e235e3\n      eq\n      tag_4\n      jumpi\n      dup1\n      0x2d61dad1\n      eq\n      tag_5\n      jumpi\n      dup1\n      0x423f6cef\n      eq\n      tag_6\n      jumpi\n      dup1\n      0x66d3399a\n      eq\n      tag_7\n      jumpi\n      dup1\n      0xf4567323\n      eq\n      tag_8\n      jumpi\n    tag_2:\n      0x00\n      dup1\n      revert\n        /* \"OneDrive/Documents/Coding/SWC Examples/SWC101/SWC101_Fixed.sol\":414:569  function safeUnderflow(uint8 amount) external {... */\n    tag_3:\n      tag_9\n      0x04\n      dup1\n      calldatasize\n      sub\n      dup2\n      add\n      swap1\n      tag_10\n      swap2\n      swap1\n      tag_11\n      jump\t// in\n    tag_10:\n      tag_12\n      jump\t// in\n    tag_9:\n      stop\n        /* \"OneDrive/Documents/Coding/SWC Examples/SWC101/SWC101_Fixed.sol\":362:405  mapping(address => uint256) public balances */\n    tag_4:\n      tag_13\n      0x04\n      dup1\n      calldatasize\n      sub\n      dup2\n      add\n      swap1\n      tag_14\n      swap2\n      swap1\n      tag_15\n      jump\t// in\n    tag_14:\n      tag_16\n      jump\t// in\n    tag_13:\n      mload(0x40)\n      tag_17\n      swap2\n      swap1\n      tag_18\n      jump\t// in\n    tag_17:\n      mload(0x40)\n      dup1\n      swap2\n      sub\n      swap1\n      return\n        /* \"OneDrive/Documents/Coding/SWC Examples/SWC101/SWC101_Fixed.sol\":325:355  uint8 public overflowVar = 255 */\n    tag_5:\n      tag_19\n      tag_20\n      jump\t// in\n    tag_19:\n      mload(0x40)\n      tag_21\n      swap2\n      swap1\n      tag_22\n      jump\t// in\n    tag_21:\n      mload(0x40)\n      dup1\n      swap2\n      sub\n      swap1\n      return\n        /* \"OneDrive/Documents/Coding/SWC Examples/SWC101/SWC101_Fixed.sol\":728:976  function safeTransfer(address to, uint256 amount) external {... */\n    tag_6:\n      tag_23\n      0x04\n      dup1\n      calldatasize\n      sub\n      dup2\n      add\n      swap1\n      tag_24\n      swap2\n      swap1\n      tag_25\n      jump\t// in\n    tag_24:\n      tag_26\n      jump\t// in\n    tag_23:\n      stop\n        /* \"OneDrive/Documents/Coding/SWC Examples/SWC101/SWC101_Fixed.sol\":577:720  function safeOverflow() external {... */\n    tag_7:\n      tag_27\n      tag_28\n      jump\t// in\n    tag_27:\n      stop\n        /* \"OneDrive/Documents/Coding/SWC Examples/SWC101/SWC101_Fixed.sol\":289:318  uint8 public underflowVar = 0 */\n    tag_8:\n      tag_29\n      tag_30\n      jump\t// in\n    tag_29:\n      mload(0x40)\n      tag_31\n      swap2\n      swap1\n      tag_22\n      jump\t// in\n    tag_31:\n      mload(0x40)\n      dup1\n      swap2\n      sub\n      swap1\n      return\n        /* \"OneDrive/Documents/Coding/SWC Examples/SWC101/SWC101_Fixed.sol\":414:569  function safeUnderflow(uint8 amount) external {... */\n    tag_12:\n        /* \"OneDrive/Documents/Coding/SWC Examples/SWC101/SWC101_Fixed.sol\":488:500  underflowVar */\n      0x00\n      dup1\n      sload\n      swap1\n      0x0100\n      exp\n      swap1\n      div\n      0xff\n      and\n        /* \"OneDrive/Documents/Coding/SWC Examples/SWC101/SWC101_Fixed.sol\":479:500  amount <=underflowVar */\n      0xff\n      and\n        /* \"OneDrive/Documents/Coding/SWC Examples/SWC101/SWC101_Fixed.sol\":479:485  amount */\n      dup2\n        /* \"OneDrive/Documents/Coding/SWC Examples/SWC101/SWC101_Fixed.sol\":479:500  amount <=underflowVar */\n      0xff\n      and\n      gt\n      iszero\n        /* \"OneDrive/Documents/Coding/SWC Examples/SWC101/SWC101_Fixed.sol\":471:514  require(amount <=underflowVar, \"underflow\") */\n      tag_33\n      jumpi\n      mload(0x40)\n      0x08c379a000000000000000000000000000000000000000000000000000000000\n      dup2\n      mstore\n      0x04\n      add\n      tag_34\n      swap1\n      tag_35\n      jump\t// in\n    tag_34:\n      mload(0x40)\n      dup1\n      swap2\n      sub\n      swap1\n      revert\n    tag_33:\n        /* \"OneDrive/Documents/Coding/SWC Examples/SWC101/SWC101_Fixed.sol\":553:559  amount */\n      dup1\n        /* \"OneDrive/Documents/Coding/SWC Examples/SWC101/SWC101_Fixed.sol\":537:549  underflowVar */\n      0x00\n      dup1\n        /* \"OneDrive/Documents/Coding/SWC Examples/SWC101/SWC101_Fixed.sol\":537:559  underflowVar -= amount */\n      dup3\n      dup3\n      dup3\n      swap1\n      sload\n      swap1\n      0x0100\n      exp\n      swap1\n      div\n      0xff\n      and\n      sub\n      swap3\n      pop\n      0x0100\n      exp\n      dup2\n      sload\n      dup2\n      0xff\n      mul\n      not\n      and\n      swap1\n      dup4\n      0xff\n      and\n      mul\n      or\n      swap1\n      sstore\n      pop\n        /* \"OneDrive/Documents/Coding/SWC Examples/SWC101/SWC101_Fixed.sol\":414:569  function safeUnderflow(uint8 amount) external {... */\n      pop\n      jump\t// out\n        /* \"OneDrive/Documents/Coding/SWC Examples/SWC101/SWC101_Fixed.sol\":362:405  mapping(address => uint256) public balances */\n    tag_16:\n      mstore(0x20, 0x01)\n      dup1\n      0x00\n      mstore\n      keccak256(0x00, 0x40)\n      0x00\n      swap2\n      pop\n      swap1\n      pop\n      sload\n      dup2\n      jump\t// out\n        /* \"OneDrive/Documents/Coding/SWC Examples/SWC101/SWC101_Fixed.sol\":325:355  uint8 public overflowVar = 255 */\n    tag_20:\n      0x00\n      0x01\n      swap1\n      sload\n      swap1\n      0x0100\n      exp\n      swap1\n      div\n      0xff\n      and\n      dup2\n      jump\t// out\n        /* \"OneDrive/Documents/Coding/SWC Examples/SWC101/SWC101_Fixed.sol\":728:976  function safeTransfer(address to, uint256 amount) external {... */\n    tag_26:\n        /* \"OneDrive/Documents/Coding/SWC Examples/SWC101/SWC101_Fixed.sol\":798:809  uint256 bal */\n      0x00\n        /* \"OneDrive/Documents/Coding/SWC Examples/SWC101/SWC101_Fixed.sol\":812:820  balances */\n      0x01\n        /* \"OneDrive/Documents/Coding/SWC Examples/SWC101/SWC101_Fixed.sol\":812:832  balances[msg.sender] */\n      0x00\n        /* \"OneDrive/Documents/Coding/SWC Examples/SWC101/SWC101_Fixed.sol\":821:831  msg.sender */\n      caller\n        /* \"OneDrive/Documents/Coding/SWC Examples/SWC101/SWC101_Fixed.sol\":812:832  balances[msg.sender] */\n      0xffffffffffffffffffffffffffffffffffffffff\n      and\n      0xffffffffffffffffffffffffffffffffffffffff\n      and\n      dup2\n      mstore\n      0x20\n      add\n      swap1\n      dup2\n      mstore\n      0x20\n      add\n      0x00\n      keccak256\n      sload\n        /* \"OneDrive/Documents/Coding/SWC Examples/SWC101/SWC101_Fixed.sol\":798:832  uint256 bal = balances[msg.sender] */\n      swap1\n      pop\n        /* \"OneDrive/Documents/Coding/SWC Examples/SWC101/SWC101_Fixed.sol\":858:864  amount */\n      dup2\n        /* \"OneDrive/Documents/Coding/SWC Examples/SWC101/SWC101_Fixed.sol\":851:854  bal */\n      dup2\n        /* \"OneDrive/Documents/Coding/SWC Examples/SWC101/SWC101_Fixed.sol\":851:864  bal >= amount */\n      lt\n      iszero\n        /* \"OneDrive/Documents/Coding/SWC Examples/SWC101/SWC101_Fixed.sol\":843:889  require(bal >= amount, \"insufficient balance\") */\n      tag_37\n      jumpi\n      mload(0x40)\n      0x08c379a000000000000000000000000000000000000000000000000000000000\n      dup2\n      mstore\n      0x04\n      add\n      tag_38\n      swap1\n      tag_39\n      jump\t// in\n    tag_38:\n      mload(0x40)\n      dup1\n      swap2\n      sub\n      swap1\n      revert\n    tag_37:\n        /* \"OneDrive/Documents/Coding/SWC Examples/SWC101/SWC101_Fixed.sol\":929:935  amount */\n      dup2\n        /* \"OneDrive/Documents/Coding/SWC Examples/SWC101/SWC101_Fixed.sol\":923:926  bal */\n      dup2\n        /* \"OneDrive/Documents/Coding/SWC Examples/SWC101/SWC101_Fixed.sol\":923:935  bal - amount */\n      tag_40\n      swap2\n      swap1\n      tag_41\n      jump\t// in\n    tag_40:\n        /* \"OneDrive/Documents/Coding/SWC Examples/SWC101/SWC101_Fixed.sol\":900:908  balances */\n      0x01\n        /* \"OneDrive/Documents/Coding/SWC Examples/SWC101/SWC101_Fixed.sol\":900:920  balances[msg.sender] */\n      0x00\n        /* \"OneDrive/Documents/Coding/SWC Examples/SWC101/SWC101_Fixed.sol\":909:919  msg.sender */\n      caller\n        /* \"OneDrive/Documents/Coding/SWC Examples/SWC101/SWC101_Fixed.sol\":900:920  balances[msg.sender] */\n      0xffffffffffffffffffffffffffffffffffffffff\n      and\n      0xffffffffffffffffffffffffffffffffffffffff\n      and\n      dup2\n      mstore\n      0x20\n      add\n      swap1\n      dup2\n      mstore\n      0x20\n      add\n      0x00\n      keccak256\n        /* \"OneDrive/Documents/Coding/SWC Examples/SWC101/SWC101_Fixed.sol\":900:935  balances[msg.sender] = bal - amount */\n      dup2\n      swap1\n      sstore\n      pop\n        /* \"OneDrive/Documents/Coding/SWC Examples/SWC101/SWC101_Fixed.sol\":962:968  amount */\n      dup2\n        /* \"OneDrive/Documents/Coding/SWC Examples/SWC101/SWC101_Fixed.sol\":946:954  balances */\n      0x01\n        /* \"OneDrive/Documents/Coding/SWC Examples/SWC101/SWC101_Fixed.sol\":946:958  balances[to] */\n      0x00\n        /* \"OneDrive/Documents/Coding/SWC Examples/SWC101/SWC101_Fixed.sol\":955:957  to */\n      dup6\n        /* \"OneDrive/Documents/Coding/SWC Examples/SWC101/SWC101_Fixed.sol\":946:958  balances[to] */\n      0xffffffffffffffffffffffffffffffffffffffff\n      and\n      0xffffffffffffffffffffffffffffffffffffffff\n      and\n      dup2\n      mstore\n      0x20\n      add\n      swap1\n      dup2\n      mstore\n      0x20\n      add\n      0x00\n      keccak256\n      0x00\n        /* \"OneDrive/Documents/Coding/SWC Examples/SWC101/SWC101_Fixed.sol\":946:968  balances[to] += amount */\n      dup3\n      dup3\n      sload\n      tag_42\n      swap2\n      swap1\n      tag_43\n      jump\t// in\n    tag_42:\n      swap3\n      pop\n      pop\n      dup2\n      swap1\n      sstore\n      pop\n        /* \"OneDrive/Documents/Coding/SWC Examples/SWC101/SWC101_Fixed.sol\":787:976  {... */\n      pop\n        /* \"OneDrive/Documents/Coding/SWC Examples/SWC101/SWC101_Fixed.sol\":728:976  function safeTransfer(address to, uint256 amount) external {... */\n      pop\n      pop\n      jump\t// out\n        /* \"OneDrive/Documents/Coding/SWC Examples/SWC101/SWC101_Fixed.sol\":577:720  function safeOverflow() external {... */\n    tag_28:\n        /* \"OneDrive/Documents/Coding/SWC Examples/SWC101/SWC101_Fixed.sol\":643:658  type(uint8).max */\n      0xff\n        /* \"OneDrive/Documents/Coding/SWC Examples/SWC101/SWC101_Fixed.sol\":629:658  overflowVar < type(uint8).max */\n      dup1\n      and\n        /* \"OneDrive/Documents/Coding/SWC Examples/SWC101/SWC101_Fixed.sol\":629:640  overflowVar */\n      0x00\n      0x01\n      swap1\n      sload\n      swap1\n      0x0100\n      exp\n      swap1\n      div\n      0xff\n      and\n        /* \"OneDrive/Documents/Coding/SWC Examples/SWC101/SWC101_Fixed.sol\":629:658  overflowVar < type(uint8).max */\n      0xff\n      and\n      lt\n        /* \"OneDrive/Documents/Coding/SWC Examples/SWC101/SWC101_Fixed.sol\":621:671  require(overflowVar < type(uint8).max, \"overflow\") */\n      tag_45\n      jumpi\n      mload(0x40)\n      0x08c379a000000000000000000000000000000000000000000000000000000000\n      dup2\n      mstore\n      0x04\n      add\n      tag_46\n      swap1\n      tag_47\n      jump\t// in\n    tag_46:\n      mload(0x40)\n      dup1\n      swap2\n      sub\n      swap1\n      revert\n    tag_45:\n        /* \"OneDrive/Documents/Coding/SWC Examples/SWC101/SWC101_Fixed.sol\":709:710  1 */\n      0x01\n        /* \"OneDrive/Documents/Coding/SWC Examples/SWC101/SWC101_Fixed.sol\":694:705  overflowVar */\n      0x00\n      0x01\n        /* \"OneDrive/Documents/Coding/SWC Examples/SWC101/SWC101_Fixed.sol\":694:710  overflowVar += 1 */\n      dup3\n      dup3\n      dup3\n      swap1\n      sload\n      swap1\n      0x0100\n      exp\n      swap1\n      div\n      0xff\n      and\n      add\n      swap3\n      pop\n      0x0100\n      exp\n      dup2\n      sload\n      dup2\n      0xff\n      mul\n      not\n      and\n      swap1\n      dup4\n      0xff\n      and\n      mul\n      or\n      swap1\n      sstore\n      pop\n        /* \"OneDrive/Documents/Coding/SWC Examples/SWC101/SWC101_Fixed.sol\":577:720  function safeOverflow() external {... */\n      jump\t// out\n        /* \"OneDrive/Documents/Coding/SWC Examples/SWC101/SWC101_Fixed.sol\":289:318  uint8 public underflowVar = 0 */\n    tag_30:\n      0x00\n      dup1\n      sload\n      swap1\n      0x0100\n      exp\n      swap1\n      div\n      0xff\n      and\n      dup2\n      jump\t// out\n        /* \"#utility.yul\":88:205   */\n    tag_49:\n        /* \"#utility.yul\":197:198   */\n      0x00\n        /* \"#utility.yul\":194:195   */\n      dup1\n        /* \"#utility.yul\":187:199   */\n      revert\n        /* \"#utility.yul\":334:420   */\n    tag_51:\n        /* \"#utility.yul\":369:376   */\n      0x00\n        /* \"#utility.yul\":409:413   */\n      0xff\n        /* \"#utility.yul\":402:407   */\n      dup3\n        /* \"#utility.yul\":398:414   */\n      and\n        /* \"#utility.yul\":387:414   */\n      swap1\n      pop\n        /* \"#utility.yul\":334:420   */\n      swap2\n      swap1\n      pop\n      jump\t// out\n        /* \"#utility.yul\":426:544   */\n    tag_52:\n        /* \"#utility.yul\":497:519   */\n      tag_77\n        /* \"#utility.yul\":513:518   */\n      dup2\n        /* \"#utility.yul\":497:519   */\n      tag_51\n      jump\t// in\n    tag_77:\n        /* \"#utility.yul\":490:495   */\n      dup2\n        /* \"#utility.yul\":487:520   */\n      eq\n        /* \"#utility.yul\":477:538   */\n      tag_78\n      jumpi\n        /* \"#utility.yul\":534:535   */\n      0x00\n        /* \"#utility.yul\":531:532   */\n      dup1\n        /* \"#utility.yul\":524:536   */\n      revert\n        /* \"#utility.yul\":477:538   */\n    tag_78:\n        /* \"#utility.yul\":426:544   */\n      pop\n      jump\t// out\n        /* \"#utility.yul\":550:685   */\n    tag_53:\n        /* \"#utility.yul\":594:599   */\n      0x00\n        /* \"#utility.yul\":632:638   */\n      dup2\n        /* \"#utility.yul\":619:639   */\n      calldataload\n        /* \"#utility.yul\":610:639   */\n      swap1\n      pop\n        /* \"#utility.yul\":648:679   */\n      tag_80\n        /* \"#utility.yul\":673:678   */\n      dup2\n        /* \"#utility.yul\":648:679   */\n      tag_52\n      jump\t// in\n    tag_80:\n        /* \"#utility.yul\":550:685   */\n      swap3\n      swap2\n      pop\n      pop\n      jump\t// out\n        /* \"#utility.yul\":691:1016   */\n    tag_11:\n        /* \"#utility.yul\":748:754   */\n      0x00\n        /* \"#utility.yul\":797:799   */\n      0x20\n        /* \"#utility.yul\":785:794   */\n      dup3\n        /* \"#utility.yul\":776:783   */\n      dup5\n        /* \"#utility.yul\":772:795   */\n      sub\n        /* \"#utility.yul\":768:800   */\n      slt\n        /* \"#utility.yul\":765:884   */\n      iszero\n      tag_82\n      jumpi\n        /* \"#utility.yul\":803:882   */\n      tag_83\n      tag_49\n      jump\t// in\n    tag_83:\n        /* \"#utility.yul\":765:884   */\n    tag_82:\n        /* \"#utility.yul\":923:924   */\n      0x00\n        /* \"#utility.yul\":948:999   */\n      tag_84\n        /* \"#utility.yul\":991:998   */\n      dup5\n        /* \"#utility.yul\":982:988   */\n      dup3\n        /* \"#utility.yul\":971:980   */\n      dup6\n        /* \"#utility.yul\":967:989   */\n      add\n        /* \"#utility.yul\":948:999   */\n      tag_53\n      jump\t// in\n    tag_84:\n        /* \"#utility.yul\":938:999   */\n      swap2\n      pop\n        /* \"#utility.yul\":894:1009   */\n      pop\n        /* \"#utility.yul\":691:1016   */\n      swap3\n      swap2\n      pop\n      pop\n      jump\t// out\n        /* \"#utility.yul\":1022:1148   */\n    tag_54:\n        /* \"#utility.yul\":1059:1066   */\n      0x00\n        /* \"#utility.yul\":1099:1141   */\n      0xffffffffffffffffffffffffffffffffffffffff\n        /* \"#utility.yul\":1092:1097   */\n      dup3\n        /* \"#utility.yul\":1088:1142   */\n      and\n        /* \"#utility.yul\":1077:1142   */\n      swap1\n      pop\n        /* \"#utility.yul\":1022:1148   */\n      swap2\n      swap1\n      pop\n      jump\t// out\n        /* \"#utility.yul\":1154:1250   */\n    tag_55:\n        /* \"#utility.yul\":1191:1198   */\n      0x00\n        /* \"#utility.yul\":1220:1244   */\n      tag_87\n        /* \"#utility.yul\":1238:1243   */\n      dup3\n        /* \"#utility.yul\":1220:1244   */\n      tag_54\n      jump\t// in\n    tag_87:\n        /* \"#utility.yul\":1209:1244   */\n      swap1\n      pop\n        /* \"#utility.yul\":1154:1250   */\n      swap2\n      swap1\n      pop\n      jump\t// out\n        /* \"#utility.yul\":1256:1378   */\n    tag_56:\n        /* \"#utility.yul\":1329:1353   */\n      tag_89\n        /* \"#utility.yul\":1347:1352   */\n      dup2\n        /* \"#utility.yul\":1329:1353   */\n      tag_55\n      jump\t// in\n    tag_89:\n        /* \"#utility.yul\":1322:1327   */\n      dup2\n        /* \"#utility.yul\":1319:1354   */\n      eq\n        /* \"#utility.yul\":1309:1372   */\n      tag_90\n      jumpi\n        /* \"#utility.yul\":1368:1369   */\n      0x00\n        /* \"#utility.yul\":1365:1366   */\n      dup1\n        /* \"#utility.yul\":1358:1370   */\n      revert\n        /* \"#utility.yul\":1309:1372   */\n    tag_90:\n        /* \"#utility.yul\":1256:1378   */\n      pop\n      jump\t// out\n        /* \"#utility.yul\":1384:1523   */\n    tag_57:\n        /* \"#utility.yul\":1430:1435   */\n      0x00\n        /* \"#utility.yul\":1468:1474   */\n      dup2\n        /* \"#utility.yul\":1455:1475   */\n      calldataload\n        /* \"#utility.yul\":1446:1475   */\n      swap1\n      pop\n        /* \"#utility.yul\":1484:1517   */\n      tag_92\n        /* \"#utility.yul\":1511:1516   */\n      dup2\n        /* \"#utility.yul\":1484:1517   */\n      tag_56\n      jump\t// in\n    tag_92:\n        /* \"#utility.yul\":1384:1523   */\n      swap3\n      swap2\n      pop\n      pop\n      jump\t// out\n        /* \"#utility.yul\":1529:1858   */\n    tag_15:\n        /* \"#utility.yul\":1588:1594   */\n      0x00\n        /* \"#utility.yul\":1637:1639   */\n      0x20\n        /* \"#utility.yul\":1625:1634   */\n      dup3\n        /* \"#utility.yul\":1616:1623   */\n      dup5\n        /* \"#utility.yul\":1612:1635   */\n      sub\n        /* \"#utility.yul\":1608:1640   */\n      slt\n        /* \"#utility.yul\":1605:1724   */\n      iszero\n      tag_94\n      jumpi\n        /* \"#utility.yul\":1643:1722   */\n      tag_95\n      tag_49\n      jump\t// in\n    tag_95:\n        /* \"#utility.yul\":1605:1724   */\n    tag_94:\n        /* \"#utility.yul\":1763:1764   */\n      0x00\n        /* \"#utility.yul\":1788:1841   */\n      tag_96\n        /* \"#utility.yul\":1833:1840   */\n      dup5\n        /* \"#utility.yul\":1824:1830   */\n      dup3\n        /* \"#utility.yul\":1813:1822   */\n      dup6\n        /* \"#utility.yul\":1809:1831   */\n      add\n        /* \"#utility.yul\":1788:1841   */\n      tag_57\n      jump\t// in\n    tag_96:\n        /* \"#utility.yul\":1778:1841   */\n      swap2\n      pop\n        /* \"#utility.yul\":1734:1851   */\n      pop\n        /* \"#utility.yul\":1529:1858   */\n      swap3\n      swap2\n      pop\n      pop\n      jump\t// out\n        /* \"#utility.yul\":1864:1941   */\n    tag_58:\n        /* \"#utility.yul\":1901:1908   */\n      0x00\n        /* \"#utility.yul\":1930:1935   */\n      dup2\n        /* \"#utility.yul\":1919:1935   */\n      swap1\n      pop\n        /* \"#utility.yul\":1864:1941   */\n      swap2\n      swap1\n      pop\n      jump\t// out\n        /* \"#utility.yul\":1947:2065   */\n    tag_59:\n        /* \"#utility.yul\":2034:2058   */\n      tag_99\n        /* \"#utility.yul\":2052:2057   */\n      dup2\n        /* \"#utility.yul\":2034:2058   */\n      tag_58\n      jump\t// in\n    tag_99:\n        /* \"#utility.yul\":2029:2032   */\n      dup3\n        /* \"#utility.yul\":2022:2059   */\n      mstore\n        /* \"#utility.yul\":1947:2065   */\n      pop\n      pop\n      jump\t// out\n        /* \"#utility.yul\":2071:2293   */\n    tag_18:\n        /* \"#utility.yul\":2164:2168   */\n      0x00\n        /* \"#utility.yul\":2202:2204   */\n      0x20\n        /* \"#utility.yul\":2191:2200   */\n      dup3\n        /* \"#utility.yul\":2187:2205   */\n      add\n        /* \"#utility.yul\":2179:2205   */\n      swap1\n      pop\n        /* \"#utility.yul\":2215:2286   */\n      tag_101\n        /* \"#utility.yul\":2283:2284   */\n      0x00\n        /* \"#utility.yul\":2272:2281   */\n      dup4\n        /* \"#utility.yul\":2268:2285   */\n      add\n        /* \"#utility.yul\":2259:2265   */\n      dup5\n        /* \"#utility.yul\":2215:2286   */\n      tag_59\n      jump\t// in\n    tag_101:\n        /* \"#utility.yul\":2071:2293   */\n      swap3\n      swap2\n      pop\n      pop\n      jump\t// out\n        /* \"#utility.yul\":2299:2411   */\n    tag_60:\n        /* \"#utility.yul\":2382:2404   */\n      tag_103\n        /* \"#utility.yul\":2398:2403   */\n      dup2\n        /* \"#utility.yul\":2382:2404   */\n      tag_51\n      jump\t// in\n    tag_103:\n        /* \"#utility.yul\":2377:2380   */\n      dup3\n        /* \"#utility.yul\":2370:2405   */\n      mstore\n        /* \"#utility.yul\":2299:2411   */\n      pop\n      pop\n      jump\t// out\n        /* \"#utility.yul\":2417:2631   */\n    tag_22:\n        /* \"#utility.yul\":2506:2510   */\n      0x00\n        /* \"#utility.yul\":2544:2546   */\n      0x20\n        /* \"#utility.yul\":2533:2542   */\n      dup3\n        /* \"#utility.yul\":2529:2547   */\n      add\n        /* \"#utility.yul\":2521:2547   */\n      swap1\n      pop\n        /* \"#utility.yul\":2557:2624   */\n      tag_105\n        /* \"#utility.yul\":2621:2622   */\n      0x00\n        /* \"#utility.yul\":2610:2619   */\n      dup4\n        /* \"#utility.yul\":2606:2623   */\n      add\n        /* \"#utility.yul\":2597:2603   */\n      dup5\n        /* \"#utility.yul\":2557:2624   */\n      tag_60\n      jump\t// in\n    tag_105:\n        /* \"#utility.yul\":2417:2631   */\n      swap3\n      swap2\n      pop\n      pop\n      jump\t// out\n        /* \"#utility.yul\":2637:2759   */\n    tag_61:\n        /* \"#utility.yul\":2710:2734   */\n      tag_107\n        /* \"#utility.yul\":2728:2733   */\n      dup2\n        /* \"#utility.yul\":2710:2734   */\n      tag_58\n      jump\t// in\n    tag_107:\n        /* \"#utility.yul\":2703:2708   */\n      dup2\n        /* \"#utility.yul\":2700:2735   */\n      eq\n        /* \"#utility.yul\":2690:2753   */\n      tag_108\n      jumpi\n        /* \"#utility.yul\":2749:2750   */\n      0x00\n        /* \"#utility.yul\":2746:2747   */\n      dup1\n        /* \"#utility.yul\":2739:2751   */\n      revert\n        /* \"#utility.yul\":2690:2753   */\n    tag_108:\n        /* \"#utility.yul\":2637:2759   */\n      pop\n      jump\t// out\n        /* \"#utility.yul\":2765:2904   */\n    tag_62:\n        /* \"#utility.yul\":2811:2816   */\n      0x00\n        /* \"#utility.yul\":2849:2855   */\n      dup2\n        /* \"#utility.yul\":2836:2856   */\n      calldataload\n        /* \"#utility.yul\":2827:2856   */\n      swap1\n      pop\n        /* \"#utility.yul\":2865:2898   */\n      tag_110\n        /* \"#utility.yul\":2892:2897   */\n      dup2\n        /* \"#utility.yul\":2865:2898   */\n      tag_61\n      jump\t// in\n    tag_110:\n        /* \"#utility.yul\":2765:2904   */\n      swap3\n      swap2\n      pop\n      pop\n      jump\t// out\n        /* \"#utility.yul\":2910:3384   */\n    tag_25:\n        /* \"#utility.yul\":2978:2984   */\n      0x00\n        /* \"#utility.yul\":2986:2992   */\n      dup1\n        /* \"#utility.yul\":3035:3037   */\n      0x40\n        /* \"#utility.yul\":3023:3032   */\n      dup4\n        /* \"#utility.yul\":3014:3021   */\n      dup6\n        /* \"#utility.yul\":3010:3033   */\n      sub\n        /* \"#utility.yul\":3006:3038   */\n      slt\n        /* \"#utility.yul\":3003:3122   */\n      iszero\n      tag_112\n      jumpi\n        /* \"#utility.yul\":3041:3120   */\n      tag_113\n      tag_49\n      jump\t// in\n    tag_113:\n        /* \"#utility.yul\":3003:3122   */\n    tag_112:\n        /* \"#utility.yul\":3161:3162   */\n      0x00\n        /* \"#utility.yul\":3186:3239   */\n      tag_114\n        /* \"#utility.yul\":3231:3238   */\n      dup6\n        /* \"#utility.yul\":3222:3228   */\n      dup3\n        /* \"#utility.yul\":3211:3220   */\n      dup7\n        /* \"#utility.yul\":3207:3229   */\n      add\n        /* \"#utility.yul\":3186:3239   */\n      tag_57\n      jump\t// in\n    tag_114:\n        /* \"#utility.yul\":3176:3239   */\n      swap3\n      pop\n        /* \"#utility.yul\":3132:3249   */\n      pop\n        /* \"#utility.yul\":3288:3290   */\n      0x20\n        /* \"#utility.yul\":3314:3367   */\n      tag_115\n        /* \"#utility.yul\":3359:3366   */\n      dup6\n        /* \"#utility.yul\":3350:3356   */\n      dup3\n        /* \"#utility.yul\":3339:3348   */\n      dup7\n        /* \"#utility.yul\":3335:3357   */\n      add\n        /* \"#utility.yul\":3314:3367   */\n      tag_62\n      jump\t// in\n    tag_115:\n        /* \"#utility.yul\":3304:3367   */\n      swap2\n      pop\n        /* \"#utility.yul\":3259:3377   */\n      pop\n        /* \"#utility.yul\":2910:3384   */\n      swap3\n      pop\n      swap3\n      swap1\n      pop\n      jump\t// out\n        /* \"#utility.yul\":3390:3559   */\n    tag_63:\n        /* \"#utility.yul\":3474:3485   */\n      0x00\n        /* \"#utility.yul\":3508:3514   */\n      dup3\n        /* \"#utility.yul\":3503:3506   */\n      dup3\n        /* \"#utility.yul\":3496:3515   */\n      mstore\n        /* \"#utility.yul\":3548:3552   */\n      0x20\n        /* \"#utility.yul\":3543:3546   */\n      dup3\n        /* \"#utility.yul\":3539:3553   */\n      add\n        /* \"#utility.yul\":3524:3553   */\n      swap1\n      pop\n        /* \"#utility.yul\":3390:3559   */\n      swap3\n      swap2\n      pop\n      pop\n      jump\t// out\n        /* \"#utility.yul\":3565:3724   */\n    tag_64:\n        /* \"#utility.yul\":3705:3716   */\n      0x756e646572666c6f770000000000000000000000000000000000000000000000\n        /* \"#utility.yul\":3701:3702   */\n      0x00\n        /* \"#utility.yul\":3693:3699   */\n      dup3\n        /* \"#utility.yul\":3689:3703   */\n      add\n        /* \"#utility.yul\":3682:3717   */\n      mstore\n        /* \"#utility.yul\":3565:3724   */\n      pop\n      jump\t// out\n        /* \"#utility.yul\":3730:4095   */\n    tag_65:\n        /* \"#utility.yul\":3872:3875   */\n      0x00\n        /* \"#utility.yul\":3893:3959   */\n      tag_119\n        /* \"#utility.yul\":3957:3958   */\n      0x09\n        /* \"#utility.yul\":3952:3955   */\n      dup4\n        /* \"#utility.yul\":3893:3959   */\n      tag_63\n      jump\t// in\n    tag_119:\n        /* \"#utility.yul\":3886:3959   */\n      swap2\n      pop\n        /* \"#utility.yul\":3968:4061   */\n      tag_120\n        /* \"#utility.yul\":4057:4060   */\n      dup3\n        /* \"#utility.yul\":3968:4061   */\n      tag_64\n      jump\t// in\n    tag_120:\n        /* \"#utility.yul\":4086:4088   */\n      0x20\n        /* \"#utility.yul\":4081:4084   */\n      dup3\n        /* \"#utility.yul\":4077:4089   */\n      add\n        /* \"#utility.yul\":4070:4089   */\n      swap1\n      pop\n        /* \"#utility.yul\":3730:4095   */\n      swap2\n      swap1\n      pop\n      jump\t// out\n        /* \"#utility.yul\":4101:4520   */\n    tag_35:\n        /* \"#utility.yul\":4267:4271   */\n      0x00\n        /* \"#utility.yul\":4305:4307   */\n      0x20\n        /* \"#utility.yul\":4294:4303   */\n      dup3\n        /* \"#utility.yul\":4290:4308   */\n      add\n        /* \"#utility.yul\":4282:4308   */\n      swap1\n      pop\n        /* \"#utility.yul\":4354:4363   */\n      dup2\n        /* \"#utility.yul\":4348:4352   */\n      dup2\n        /* \"#utility.yul\":4344:4364   */\n      sub\n        /* \"#utility.yul\":4340:4341   */\n      0x00\n        /* \"#utility.yul\":4329:4338   */\n      dup4\n        /* \"#utility.yul\":4325:4342   */\n      add\n        /* \"#utility.yul\":4318:4365   */\n      mstore\n        /* \"#utility.yul\":4382:4513   */\n      tag_122\n        /* \"#utility.yul\":4508:4512   */\n      dup2\n        /* \"#utility.yul\":4382:4513   */\n      tag_65\n      jump\t// in\n    tag_122:\n        /* \"#utility.yul\":4374:4513   */\n      swap1\n      pop\n        /* \"#utility.yul\":4101:4520   */\n      swap2\n      swap1\n      pop\n      jump\t// out\n        /* \"#utility.yul\":4526:4696   */\n    tag_66:\n        /* \"#utility.yul\":4666:4688   */\n      0x696e73756666696369656e742062616c616e6365000000000000000000000000\n        /* \"#utility.yul\":4662:4663   */\n      0x00\n        /* \"#utility.yul\":4654:4660   */\n      dup3\n        /* \"#utility.yul\":4650:4664   */\n      add\n        /* \"#utility.yul\":4643:4689   */\n      mstore\n        /* \"#utility.yul\":4526:4696   */\n      pop\n      jump\t// out\n        /* \"#utility.yul\":4702:5068   */\n    tag_67:\n        /* \"#utility.yul\":4844:4847   */\n      0x00\n        /* \"#utility.yul\":4865:4932   */\n      tag_125\n        /* \"#utility.yul\":4929:4931   */\n      0x14\n        /* \"#utility.yul\":4924:4927   */\n      dup4\n        /* \"#utility.yul\":4865:4932   */\n      tag_63\n      jump\t// in\n    tag_125:\n        /* \"#utility.yul\":4858:4932   */\n      swap2\n      pop\n        /* \"#utility.yul\":4941:5034   */\n      tag_126\n        /* \"#utility.yul\":5030:5033   */\n      dup3\n        /* \"#utility.yul\":4941:5034   */\n      tag_66\n      jump\t// in\n    tag_126:\n        /* \"#utility.yul\":5059:5061   */\n      0x20\n        /* \"#utility.yul\":5054:5057   */\n      dup3\n        /* \"#utility.yul\":5050:5062   */\n      add\n        /* \"#utility.yul\":5043:5062   */\n      swap1\n      pop\n        /* \"#utility.yul\":4702:5068   */\n      swap2\n      swap1\n      pop\n      jump\t// out\n        /* \"#utility.yul\":5074:5493   */\n    tag_39:\n        /* \"#utility.yul\":5240:5244   */\n      0x00\n        /* \"#utility.yul\":5278:5280   */\n      0x20\n        /* \"#utility.yul\":5267:5276   */\n      dup3\n        /* \"#utility.yul\":5263:5281   */\n      add\n        /* \"#utility.yul\":5255:5281   */\n      swap1\n      pop\n        /* \"#utility.yul\":5327:5336   */\n      dup2\n        /* \"#utility.yul\":5321:5325   */\n      dup2\n        /* \"#utility.yul\":5317:5337   */\n      sub\n        /* \"#utility.yul\":5313:5314   */\n      0x00\n        /* \"#utility.yul\":5302:5311   */\n      dup4\n        /* \"#utility.yul\":5298:5315   */\n      add\n        /* \"#utility.yul\":5291:5338   */\n      mstore\n        /* \"#utility.yul\":5355:5486   */\n      tag_128\n        /* \"#utility.yul\":5481:5485   */\n      dup2\n        /* \"#utility.yul\":5355:5486   */\n      tag_67\n      jump\t// in\n    tag_128:\n        /* \"#utility.yul\":5347:5486   */\n      swap1\n      pop\n        /* \"#utility.yul\":5074:5493   */\n      swap2\n      swap1\n      pop\n      jump\t// out\n        /* \"#utility.yul\":5499:5679   */\n    tag_68:\n        /* \"#utility.yul\":5547:5624   */\n      0x4e487b7100000000000000000000000000000000000000000000000000000000\n        /* \"#utility.yul\":5544:5545   */\n      0x00\n        /* \"#utility.yul\":5537:5625   */\n      mstore\n        /* \"#utility.yul\":5644:5648   */\n      0x11\n        /* \"#utility.yul\":5641:5642   */\n      0x04\n        /* \"#utility.yul\":5634:5649   */\n      mstore\n        /* \"#utility.yul\":5668:5672   */\n      0x24\n        /* \"#utility.yul\":5665:5666   */\n      0x00\n        /* \"#utility.yul\":5658:5673   */\n      revert\n        /* \"#utility.yul\":5685:5879   */\n    tag_41:\n        /* \"#utility.yul\":5725:5729   */\n      0x00\n        /* \"#utility.yul\":5745:5765   */\n      tag_131\n        /* \"#utility.yul\":5763:5764   */\n      dup3\n        /* \"#utility.yul\":5745:5765   */\n      tag_58\n      jump\t// in\n    tag_131:\n        /* \"#utility.yul\":5740:5765   */\n      swap2\n      pop\n        /* \"#utility.yul\":5779:5799   */\n      tag_132\n        /* \"#utility.yul\":5797:5798   */\n      dup4\n        /* \"#utility.yul\":5779:5799   */\n      tag_58\n      jump\t// in\n    tag_132:\n        /* \"#utility.yul\":5774:5799   */\n      swap3\n      pop\n        /* \"#utility.yul\":5823:5824   */\n      dup3\n        /* \"#utility.yul\":5820:5821   */\n      dup3\n        /* \"#utility.yul\":5816:5825   */\n      sub\n        /* \"#utility.yul\":5808:5825   */\n      swap1\n      pop\n        /* \"#utility.yul\":5847:5848   */\n      dup2\n        /* \"#utility.yul\":5841:5845   */\n      dup2\n        /* \"#utility.yul\":5838:5849   */\n      gt\n        /* \"#utility.yul\":5835:5872   */\n      iszero\n      tag_133\n      jumpi\n        /* \"#utility.yul\":5852:5870   */\n      tag_134\n      tag_68\n      jump\t// in\n    tag_134:\n        /* \"#utility.yul\":5835:5872   */\n    tag_133:\n        /* \"#utility.yul\":5685:5879   */\n      swap3\n      swap2\n      pop\n      pop\n      jump\t// out\n        /* \"#utility.yul\":5885:6076   */\n    tag_43:\n        /* \"#utility.yul\":5925:5928   */\n      0x00\n        /* \"#utility.yul\":5944:5964   */\n      tag_136\n        /* \"#utility.yul\":5962:5963   */\n      dup3\n        /* \"#utility.yul\":5944:5964   */\n      tag_58\n      jump\t// in\n    tag_136:\n        /* \"#utility.yul\":5939:5964   */\n      swap2\n      pop\n        /* \"#utility.yul\":5978:5998   */\n      tag_137\n        /* \"#utility.yul\":5996:5997   */\n      dup4\n        /* \"#utility.yul\":5978:5998   */\n      tag_58\n      jump\t// in\n    tag_137:\n        /* \"#utility.yul\":5973:5998   */\n      swap3\n      pop\n        /* \"#utility.yul\":6021:6022   */\n      dup3\n        /* \"#utility.yul\":6018:6019   */\n      dup3\n        /* \"#utility.yul\":6014:6023   */\n      add\n        /* \"#utility.yul\":6007:6023   */\n      swap1\n      pop\n        /* \"#utility.yul\":6042:6045   */\n      dup1\n        /* \"#utility.yul\":6039:6040   */\n      dup3\n        /* \"#utility.yul\":6036:6046   */\n      gt\n        /* \"#utility.yul\":6033:6069   */\n      iszero\n      tag_138\n      jumpi\n        /* \"#utility.yul\":6049:6067   */\n      tag_139\n      tag_68\n      jump\t// in\n    tag_139:\n        /* \"#utility.yul\":6033:6069   */\n    tag_138:\n        /* \"#utility.yul\":5885:6076   */\n      swap3\n      swap2\n      pop\n      pop\n      jump\t// out\n        /* \"#utility.yul\":6082:6240   */\n    tag_69:\n        /* \"#utility.yul\":6222:6232   */\n      0x6f766572666c6f77000000000000000000000000000000000000000000000000\n        /* \"#utility.yul\":6218:6219   */\n      0x00\n        /* \"#utility.yul\":6210:6216   */\n      dup3\n        /* \"#utility.yul\":6206:6220   */\n      add\n        /* \"#utility.yul\":6199:6233   */\n      mstore\n        /* \"#utility.yul\":6082:6240   */\n      pop\n      jump\t// out\n        /* \"#utility.yul\":6246:6611   */\n    tag_70:\n        /* \"#utility.yul\":6388:6391   */\n      0x00\n        /* \"#utility.yul\":6409:6475   */\n      tag_142\n        /* \"#utility.yul\":6473:6474   */\n      0x08\n        /* \"#utility.yul\":6468:6471   */\n      dup4\n        /* \"#utility.yul\":6409:6475   */\n      tag_63\n      jump\t// in\n    tag_142:\n        /* \"#utility.yul\":6402:6475   */\n      swap2\n      pop\n        /* \"#utility.yul\":6484:6577   */\n      tag_143\n        /* \"#utility.yul\":6573:6576   */\n      dup3\n        /* \"#utility.yul\":6484:6577   */\n      tag_69\n      jump\t// in\n    tag_143:\n        /* \"#utility.yul\":6602:6604   */\n      0x20\n        /* \"#utility.yul\":6597:6600   */\n      dup3\n        /* \"#utility.yul\":6593:6605   */\n      add\n        /* \"#utility.yul\":6586:6605   */\n      swap1\n      pop\n        /* \"#utility.yul\":6246:6611   */\n      swap2\n      swap1\n      pop\n      jump\t// out\n        /* \"#utility.yul\":6617:7036   */\n    tag_47:\n        /* \"#utility.yul\":6783:6787   */\n      0x00\n        /* \"#utility.yul\":6821:6823   */\n      0x20\n        /* \"#utility.yul\":6810:6819   */\n      dup3\n        /* \"#utility.yul\":6806:6824   */\n      add\n        /* \"#utility.yul\":6798:6824   */\n      swap1\n      pop\n        /* \"#utility.yul\":6870:6879   */\n      dup2\n        /* \"#utility.yul\":6864:6868   */\n      dup2\n        /* \"#utility.yul\":6860:6880   */\n      sub\n        /* \"#utility.yul\":6856:6857   */\n      0x00\n        /* \"#utility.yul\":6845:6854   */\n      dup4\n        /* \"#utility.yul\":6841:6858   */\n      add\n        /* \"#utility.yul\":6834:6881   */\n      mstore\n        /* \"#utility.yul\":6898:7029   */\n      tag_145\n        /* \"#utility.yul\":7024:7028   */\n      dup2\n        /* \"#utility.yul\":6898:7029   */\n      tag_70\n      jump\t// in\n    tag_145:\n        /* \"#utility.yul\":6890:7029   */\n      swap1\n      pop\n        /* \"#utility.yul\":6617:7036   */\n      swap2\n      swap1\n      pop\n      jump\t// out\n\n    auxdata: 0xa2646970667358221220ec6ede3f9dd7501de82528364aec47bae107a5f04fceade20c8a2675c7ab366b64736f6c63430008180033\n}\n",
				"bytecode": {
					"linkReferences": {},
					"object": "60806040525f805f6101000a81548160ff021916908360ff16021790555060ff5f60016101000a81548160ff021916908360ff160217905550348015610043575f80fd5b50610736806100515f395ff3fe608060405234801561000f575f80fd5b5060043610610060575f3560e01c80630ee0820d1461006457806327e235e3146100805780632d61dad1146100b0578063423f6cef146100ce57806366d3399a146100ea578063f4567323146100f4575b5f80fd5b61007e600480360381019061007991906103b4565b610112565b005b61009a60048036038101906100959190610439565b610195565b6040516100a7919061047c565b60405180910390f35b6100b86101aa565b6040516100c591906104a4565b60405180910390f35b6100e860048036038101906100e391906104e7565b6101bc565b005b6100f26102e5565b005b6100fc61036a565b60405161010991906104a4565b60405180910390f35b5f8054906101000a900460ff1660ff168160ff161115610167576040517f08c379a000000000000000000000000000000000000000000000000000000000815260040161015e9061057f565b60405180910390fd5b805f808282829054906101000a900460ff160392506101000a81548160ff021916908360ff16021790555050565b6001602052805f5260405f205f915090505481565b5f60019054906101000a900460ff1681565b5f60015f3373ffffffffffffffffffffffffffffffffffffffff1673ffffffffffffffffffffffffffffffffffffffff1681526020019081526020015f2054905081811015610240576040517f08c379a0000000000000000000000000000000000000000000000000000000008152600401610237906105e7565b60405180910390fd5b818161024c9190610632565b60015f3373ffffffffffffffffffffffffffffffffffffffff1673ffffffffffffffffffffffffffffffffffffffff1681526020019081526020015f20819055508160015f8573ffffffffffffffffffffffffffffffffffffffff1673ffffffffffffffffffffffffffffffffffffffff1681526020019081526020015f205f8282546102d99190610665565b92505081905550505050565b60ff80165f60019054906101000a900460ff1660ff161061033b576040517f08c379a0000000000000000000000000000000000000000000000000000000008152600401610332906106e2565b60405180910390fd5b60015f60018282829054906101000a900460ff160192506101000a81548160ff021916908360ff160217905550565b5f8054906101000a900460ff1681565b5f80fd5b5f60ff82169050919050565b6103938161037e565b811461039d575f80fd5b50565b5f813590506103ae8161038a565b92915050565b5f602082840312156103c9576103c861037a565b5b5f6103d6848285016103a0565b91505092915050565b5f73ffffffffffffffffffffffffffffffffffffffff82169050919050565b5f610408826103df565b9050919050565b610418816103fe565b8114610422575f80fd5b50565b5f813590506104338161040f565b92915050565b5f6020828403121561044e5761044d61037a565b5b5f61045b84828501610425565b91505092915050565b5f819050919050565b61047681610464565b82525050565b5f60208201905061048f5f83018461046d565b92915050565b61049e8161037e565b82525050565b5f6020820190506104b75f830184610495565b92915050565b6104c681610464565b81146104d0575f80fd5b50565b5f813590506104e1816104bd565b92915050565b5f80604083850312156104fd576104fc61037a565b5b5f61050a85828601610425565b925050602061051b858286016104d3565b9150509250929050565b5f82825260208201905092915050565b7f756e646572666c6f7700000000000000000000000000000000000000000000005f82015250565b5f610569600983610525565b915061057482610535565b602082019050919050565b5f6020820190508181035f8301526105968161055d565b9050919050565b7f696e73756666696369656e742062616c616e63650000000000000000000000005f82015250565b5f6105d1601483610525565b91506105dc8261059d565b602082019050919050565b5f6020820190508181035f8301526105fe816105c5565b9050919050565b7f4e487b71000000000000000000000000000000000000000000000000000000005f52601160045260245ffd5b5f61063c82610464565b915061064783610464565b925082820390508181111561065f5761065e610605565b5b92915050565b5f61066f82610464565b915061067a83610464565b925082820190508082111561069257610691610605565b5b92915050565b7f6f766572666c6f770000000000000000000000000000000000000000000000005f82015250565b5f6106cc600883610525565b91506106d782610698565b602082019050919050565b5f6020820190508181035f8301526106f9816106c0565b905091905056fea2646970667358221220ec6ede3f9dd7501de82528364aec47bae107a5f04fceade20c8a2675c7ab366b64736f6c63430008180033",
					"opcodes": "PUSH1 0x80 PUSH1 0x40 MSTORE PUSH0 DUP1 PUSH0 PUSH2 0x100 EXP DUP2 SLOAD DUP2 PUSH1 0xFF MUL NOT AND SWAP1 DUP4 PUSH1 0xFF AND MUL OR SWAP1 SSTORE POP PUSH1 0xFF PUSH0 PUSH1 0x1 PUSH2 0x100 EXP DUP2 SLOAD DUP2 PUSH1 0xFF MUL NOT AND SWAP1 DUP4 PUSH1 0xFF AND MUL OR SWAP1 SSTORE POP CALLVALUE DUP1 ISZERO PUSH2 0x43 JUMPI PUSH0 DUP1 REVERT JUMPDEST POP PUSH2 0x736 DUP1 PUSH2 0x51 PUSH0 CODECOPY PUSH0 RETURN INVALID PUSH1 0x80 PUSH1 0x40 MSTORE CALLVALUE DUP1 ISZERO PUSH2 0xF JUMPI PUSH0 DUP1 REVERT JUMPDEST POP PUSH1 0x4 CALLDATASIZE LT PUSH2 0x60 JUMPI PUSH0 CALLDATALOAD PUSH1 0xE0 SHR DUP1 PUSH4 0xEE0820D EQ PUSH2 0x64 JUMPI DUP1 PUSH4 0x27E235E3 EQ PUSH2 0x80 JUMPI DUP1 PUSH4 0x2D61DAD1 EQ PUSH2 0xB0 JUMPI DUP1 PUSH4 0x423F6CEF EQ PUSH2 0xCE JUMPI DUP1 PUSH4 0x66D3399A EQ PUSH2 0xEA JUMPI DUP1 PUSH4 0xF4567323 EQ PUSH2 0xF4 JUMPI JUMPDEST PUSH0 DUP1 REVERT JUMPDEST PUSH2 0x7E PUSH1 0x4 DUP1 CALLDATASIZE SUB DUP2 ADD SWAP1 PUSH2 0x79 SWAP2 SWAP1 PUSH2 0x3B4 JUMP JUMPDEST PUSH2 0x112 JUMP JUMPDEST STOP JUMPDEST PUSH2 0x9A PUSH1 0x4 DUP1 CALLDATASIZE SUB DUP2 ADD SWAP1 PUSH2 0x95 SWAP2 SWAP1 PUSH2 0x439 JUMP JUMPDEST PUSH2 0x195 JUMP JUMPDEST PUSH1 0x40 MLOAD PUSH2 0xA7 SWAP2 SWAP1 PUSH2 0x47C JUMP JUMPDEST PUSH1 0x40 MLOAD DUP1 SWAP2 SUB SWAP1 RETURN JUMPDEST PUSH2 0xB8 PUSH2 0x1AA JUMP JUMPDEST PUSH1 0x40 MLOAD PUSH2 0xC5 SWAP2 SWAP1 PUSH2 0x4A4 JUMP JUMPDEST PUSH1 0x40 MLOAD DUP1 SWAP2 SUB SWAP1 RETURN JUMPDEST PUSH2 0xE8 PUSH1 0x4 DUP1 CALLDATASIZE SUB DUP2 ADD SWAP1 PUSH2 0xE3 SWAP2 SWAP1 PUSH2 0x4E7 JUMP JUMPDEST PUSH2 0x1BC JUMP JUMPDEST STOP JUMPDEST PUSH2 0xF2 PUSH2 0x2E5 JUMP JUMPDEST STOP JUMPDEST PUSH2 0xFC PUSH2 0x36A JUMP JUMPDEST PUSH1 0x40 MLOAD PUSH2 0x109 SWAP2 SWAP1 PUSH2 0x4A4 JUMP JUMPDEST PUSH1 0x40 MLOAD DUP1 SWAP2 SUB SWAP1 RETURN JUMPDEST PUSH0 DUP1 SLOAD SWAP1 PUSH2 0x100 EXP SWAP1 DIV PUSH1 0xFF AND PUSH1 0xFF AND DUP2 PUSH1 0xFF AND GT ISZERO PUSH2 0x167 JUMPI PUSH1 0x40 MLOAD PUSH32 0x8C379A000000000000000000000000000000000000000000000000000000000 DUP2 MSTORE PUSH1 0x4 ADD PUSH2 0x15E SWAP1 PUSH2 0x57F JUMP JUMPDEST PUSH1 0x40 MLOAD DUP1 SWAP2 SUB SWAP1 REVERT JUMPDEST DUP1 PUSH0 DUP1 DUP3 DUP3 DUP3 SWAP1 SLOAD SWAP1 PUSH2 0x100 EXP SWAP1 DIV PUSH1 0xFF AND SUB SWAP3 POP PUSH2 0x100 EXP DUP2 SLOAD DUP2 PUSH1 0xFF MUL NOT AND SWAP1 DUP4 PUSH1 0xFF AND MUL OR SWAP1 SSTORE POP POP JUMP JUMPDEST PUSH1 0x1 PUSH1 0x20 MSTORE DUP1 PUSH0 MSTORE PUSH1 0x40 PUSH0 KECCAK256 PUSH0 SWAP2 POP SWAP1 POP SLOAD DUP2 JUMP JUMPDEST PUSH0 PUSH1 0x1 SWAP1 SLOAD SWAP1 PUSH2 0x100 EXP SWAP1 DIV PUSH1 0xFF AND DUP2 JUMP JUMPDEST PUSH0 PUSH1 0x1 PUSH0 CALLER PUSH20 0xFFFFFFFFFFFFFFFFFFFFFFFFFFFFFFFFFFFFFFFF AND PUSH20 0xFFFFFFFFFFFFFFFFFFFFFFFFFFFFFFFFFFFFFFFF AND DUP2 MSTORE PUSH1 0x20 ADD SWAP1 DUP2 MSTORE PUSH1 0x20 ADD PUSH0 KECCAK256 SLOAD SWAP1 POP DUP2 DUP2 LT ISZERO PUSH2 0x240 JUMPI PUSH1 0x40 MLOAD PUSH32 0x8C379A000000000000000000000000000000000000000000000000000000000 DUP2 MSTORE PUSH1 0x4 ADD PUSH2 0x237 SWAP1 PUSH2 0x5E7 JUMP JUMPDEST PUSH1 0x40 MLOAD DUP1 SWAP2 SUB SWAP1 REVERT JUMPDEST DUP2 DUP2 PUSH2 0x24C SWAP2 SWAP1 PUSH2 0x632 JUMP JUMPDEST PUSH1 0x1 PUSH0 CALLER PUSH20 0xFFFFFFFFFFFFFFFFFFFFFFFFFFFFFFFFFFFFFFFF AND PUSH20 0xFFFFFFFFFFFFFFFFFFFFFFFFFFFFFFFFFFFFFFFF AND DUP2 MSTORE PUSH1 0x20 ADD SWAP1 DUP2 MSTORE PUSH1 0x20 ADD PUSH0 KECCAK256 DUP2 SWAP1 SSTORE POP DUP2 PUSH1 0x1 PUSH0 DUP6 PUSH20 0xFFFFFFFFFFFFFFFFFFFFFFFFFFFFFFFFFFFFFFFF AND PUSH20 0xFFFFFFFFFFFFFFFFFFFFFFFFFFFFFFFFFFFFFFFF AND DUP2 MSTORE PUSH1 0x20 ADD SWAP1 DUP2 MSTORE PUSH1 0x20 ADD PUSH0 KECCAK256 PUSH0 DUP3 DUP3 SLOAD PUSH2 0x2D9 SWAP2 SWAP1 PUSH2 0x665 JUMP JUMPDEST SWAP3 POP POP DUP2 SWAP1 SSTORE POP POP POP POP JUMP JUMPDEST PUSH1 0xFF DUP1 AND PUSH0 PUSH1 0x1 SWAP1 SLOAD SWAP1 PUSH2 0x100 EXP SWAP1 DIV PUSH1 0xFF AND PUSH1 0xFF AND LT PUSH2 0x33B JUMPI PUSH1 0x40 MLOAD PUSH32 0x8C379A000000000000000000000000000000000000000000000000000000000 DUP2 MSTORE PUSH1 0x4 ADD PUSH2 0x332 SWAP1 PUSH2 0x6E2 JUMP JUMPDEST PUSH1 0x40 MLOAD DUP1 SWAP2 SUB SWAP1 REVERT JUMPDEST PUSH1 0x1 PUSH0 PUSH1 0x1 DUP3 DUP3 DUP3 SWAP1 SLOAD SWAP1 PUSH2 0x100 EXP SWAP1 DIV PUSH1 0xFF AND ADD SWAP3 POP PUSH2 0x100 EXP DUP2 SLOAD DUP2 PUSH1 0xFF MUL NOT AND SWAP1 DUP4 PUSH1 0xFF AND MUL OR SWAP1 SSTORE POP JUMP JUMPDEST PUSH0 DUP1 SLOAD SWAP1 PUSH2 0x100 EXP SWAP1 DIV PUSH1 0xFF AND DUP2 JUMP JUMPDEST PUSH0 DUP1 REVERT JUMPDEST PUSH0 PUSH1 0xFF DUP3 AND SWAP1 POP SWAP2 SWAP1 POP JUMP JUMPDEST PUSH2 0x393 DUP2 PUSH2 0x37E JUMP JUMPDEST DUP2 EQ PUSH2 0x39D JUMPI PUSH0 DUP1 REVERT JUMPDEST POP JUMP JUMPDEST PUSH0 DUP2 CALLDATALOAD SWAP1 POP PUSH2 0x3AE DUP2 PUSH2 0x38A JUMP JUMPDEST SWAP3 SWAP2 POP POP JUMP JUMPDEST PUSH0 PUSH1 0x20 DUP3 DUP5 SUB SLT ISZERO PUSH2 0x3C9 JUMPI PUSH2 0x3C8 PUSH2 0x37A JUMP JUMPDEST JUMPDEST PUSH0 PUSH2 0x3D6 DUP5 DUP3 DUP6 ADD PUSH2 0x3A0 JUMP JUMPDEST SWAP2 POP POP SWAP3 SWAP2 POP POP JUMP JUMPDEST PUSH0 PUSH20 0xFFFFFFFFFFFFFFFFFFFFFFFFFFFFFFFFFFFFFFFF DUP3 AND SWAP1 POP SWAP2 SWAP1 POP JUMP JUMPDEST PUSH0 PUSH2 0x408 DUP3 PUSH2 0x3DF JUMP JUMPDEST SWAP1 POP SWAP2 SWAP1 POP JUMP JUMPDEST PUSH2 0x418 DUP2 PUSH2 0x3FE JUMP JUMPDEST DUP2 EQ PUSH2 0x422 JUMPI PUSH0 DUP1 REVERT JUMPDEST POP JUMP JUMPDEST PUSH0 DUP2 CALLDATALOAD SWAP1 POP PUSH2 0x433 DUP2 PUSH2 0x40F JUMP JUMPDEST SWAP3 SWAP2 POP POP JUMP JUMPDEST PUSH0 PUSH1 0x20 DUP3 DUP5 SUB SLT ISZERO PUSH2 0x44E JUMPI PUSH2 0x44D PUSH2 0x37A JUMP JUMPDEST JUMPDEST PUSH0 PUSH2 0x45B DUP5 DUP3 DUP6 ADD PUSH2 0x425 JUMP JUMPDEST SWAP2 POP POP SWAP3 SWAP2 POP POP JUMP JUMPDEST PUSH0 DUP2 SWAP1 POP SWAP2 SWAP1 POP JUMP JUMPDEST PUSH2 0x476 DUP2 PUSH2 0x464 JUMP JUMPDEST DUP3 MSTORE POP POP JUMP JUMPDEST PUSH0 PUSH1 0x20 DUP3 ADD SWAP1 POP PUSH2 0x48F PUSH0 DUP4 ADD DUP5 PUSH2 0x46D JUMP JUMPDEST SWAP3 SWAP2 POP POP JUMP JUMPDEST PUSH2 0x49E DUP2 PUSH2 0x37E JUMP JUMPDEST DUP3 MSTORE POP POP JUMP JUMPDEST PUSH0 PUSH1 0x20 DUP3 ADD SWAP1 POP PUSH2 0x4B7 PUSH0 DUP4 ADD DUP5 PUSH2 0x495 JUMP JUMPDEST SWAP3 SWAP2 POP POP JUMP JUMPDEST PUSH2 0x4C6 DUP2 PUSH2 0x464 JUMP JUMPDEST DUP2 EQ PUSH2 0x4D0 JUMPI PUSH0 DUP1 REVERT JUMPDEST POP JUMP JUMPDEST PUSH0 DUP2 CALLDATALOAD SWAP1 POP PUSH2 0x4E1 DUP2 PUSH2 0x4BD JUMP JUMPDEST SWAP3 SWAP2 POP POP JUMP JUMPDEST PUSH0 DUP1 PUSH1 0x40 DUP4 DUP6 SUB SLT ISZERO PUSH2 0x4FD JUMPI PUSH2 0x4FC PUSH2 0x37A JUMP JUMPDEST JUMPDEST PUSH0 PUSH2 0x50A DUP6 DUP3 DUP7 ADD PUSH2 0x425 JUMP JUMPDEST SWAP3 POP POP PUSH1 0x20 PUSH2 0x51B DUP6 DUP3 DUP7 ADD PUSH2 0x4D3 JUMP JUMPDEST SWAP2 POP POP SWAP3 POP SWAP3 SWAP1 POP JUMP JUMPDEST PUSH0 DUP3 DUP3 MSTORE PUSH1 0x20 DUP3 ADD SWAP1 POP SWAP3 SWAP2 POP POP JUMP JUMPDEST PUSH32 0x756E646572666C6F770000000000000000000000000000000000000000000000 PUSH0 DUP3 ADD MSTORE POP JUMP JUMPDEST PUSH0 PUSH2 0x569 PUSH1 0x9 DUP4 PUSH2 0x525 JUMP JUMPDEST SWAP2 POP PUSH2 0x574 DUP3 PUSH2 0x535 JUMP JUMPDEST PUSH1 0x20 DUP3 ADD SWAP1 POP SWAP2 SWAP1 POP JUMP JUMPDEST PUSH0 PUSH1 0x20 DUP3 ADD SWAP1 POP DUP2 DUP2 SUB PUSH0 DUP4 ADD MSTORE PUSH2 0x596 DUP2 PUSH2 0x55D JUMP JUMPDEST SWAP1 POP SWAP2 SWAP1 POP JUMP JUMPDEST PUSH32 0x696E73756666696369656E742062616C616E6365000000000000000000000000 PUSH0 DUP3 ADD MSTORE POP JUMP JUMPDEST PUSH0 PUSH2 0x5D1 PUSH1 0x14 DUP4 PUSH2 0x525 JUMP JUMPDEST SWAP2 POP PUSH2 0x5DC DUP3 PUSH2 0x59D JUMP JUMPDEST PUSH1 0x20 DUP3 ADD SWAP1 POP SWAP2 SWAP1 POP JUMP JUMPDEST PUSH0 PUSH1 0x20 DUP3 ADD SWAP1 POP DUP2 DUP2 SUB PUSH0 DUP4 ADD MSTORE PUSH2 0x5FE DUP2 PUSH2 0x5C5 JUMP JUMPDEST SWAP1 POP SWAP2 SWAP1 POP JUMP JUMPDEST PUSH32 0x4E487B7100000000000000000000000000000000000000000000000000000000 PUSH0 MSTORE PUSH1 0x11 PUSH1 0x4 MSTORE PUSH1 0x24 PUSH0 REVERT JUMPDEST PUSH0 PUSH2 0x63C DUP3 PUSH2 0x464 JUMP JUMPDEST SWAP2 POP PUSH2 0x647 DUP4 PUSH2 0x464 JUMP JUMPDEST SWAP3 POP DUP3 DUP3 SUB SWAP1 POP DUP2 DUP2 GT ISZERO PUSH2 0x65F JUMPI PUSH2 0x65E PUSH2 0x605 JUMP JUMPDEST JUMPDEST SWAP3 SWAP2 POP POP JUMP JUMPDEST PUSH0 PUSH2 0x66F DUP3 PUSH2 0x464 JUMP JUMPDEST SWAP2 POP PUSH2 0x67A DUP4 PUSH2 0x464 JUMP JUMPDEST SWAP3 POP DUP3 DUP3 ADD SWAP1 POP DUP1 DUP3 GT ISZERO PUSH2 0x692 JUMPI PUSH2 0x691 PUSH2 0x605 JUMP JUMPDEST JUMPDEST SWAP3 SWAP2 POP POP JUMP JUMPDEST PUSH32 0x6F766572666C6F77000000000000000000000000000000000000000000000000 PUSH0 DUP3 ADD MSTORE POP JUMP JUMPDEST PUSH0 PUSH2 0x6CC PUSH1 0x8 DUP4 PUSH2 0x525 JUMP JUMPDEST SWAP2 POP PUSH2 0x6D7 DUP3 PUSH2 0x698 JUMP JUMPDEST PUSH1 0x20 DUP3 ADD SWAP1 POP SWAP2 SWAP1 POP JUMP JUMPDEST PUSH0 PUSH1 0x20 DUP3 ADD SWAP1 POP DUP2 DUP2 SUB PUSH0 DUP4 ADD MSTORE PUSH2 0x6F9 DUP2 PUSH2 0x6C0 JUMP JUMPDEST SWAP1 POP SWAP2 SWAP1 POP JUMP INVALID LOG2 PUSH5 0x6970667358 0x22 SLT KECCAK256 0xEC PUSH15 0xDE3F9DD7501DE82528364AEC47BAE1 SMOD 0xA5 CREATE 0x4F 0xCE 0xAD 0xE2 0xC DUP11 0x26 PUSH22 0xC7AB366B64736F6C6343000818003300000000000000 "
				},
				"gasEstimates": {
					"creation": {
						"codeDepositCost": "369200",
						"executionCost": "48984",
						"totalCost": "418184"
					},
					"external": {
						"balances(address)": "2802",
						"overflowVar()": "2538",
						"safeOverflow()": "28945",
						"safeTransfer(address,uint256)": "infinite",
						"safeUnderflow(uint8)": "28971",
						"underflowVar()": "2551"
					}
				},
				"methodIdentifiers": {
					"balances(address)": "27e235e3",
					"overflowVar()": "2d61dad1",
					"safeOverflow()": "66d3399a",
					"safeTransfer(address,uint256)": "423f6cef",
					"safeUnderflow(uint8)": "0ee0820d",
					"underflowVar()": "f4567323"
				}
			},
			"storageLayout": {
				"storage": [
					{
						"astId": 4,
						"contract": "OneDrive/Documents/Coding/SWC Examples/SWC101/SWC101_Fixed.sol:SWC101_Fixed",
						"label": "underflowVar",
						"offset": 0,
						"slot": "0",
						"type": "t_uint8"
					},
					{
						"astId": 7,
						"contract": "OneDrive/Documents/Coding/SWC Examples/SWC101/SWC101_Fixed.sol:SWC101_Fixed",
						"label": "overflowVar",
						"offset": 1,
						"slot": "0",
						"type": "t_uint8"
					},
					{
						"astId": 11,
						"contract": "OneDrive/Documents/Coding/SWC Examples/SWC101/SWC101_Fixed.sol:SWC101_Fixed",
						"label": "balances",
						"offset": 0,
						"slot": "1",
						"type": "t_mapping(t_address,t_uint256)"
					}
				],
				"types": {
					"t_address": {
						"encoding": "inplace",
						"label": "address",
						"numberOfBytes": "20"
					},
					"t_mapping(t_address,t_uint256)": {
						"encoding": "mapping",
						"key": "t_address",
						"label": "mapping(address => uint256)",
						"numberOfBytes": "32",
						"value": "t_uint256"
					},
					"t_uint256": {
						"encoding": "inplace",
						"label": "uint256",
						"numberOfBytes": "32"
					},
					"t_uint8": {
						"encoding": "inplace",
						"label": "uint8",
						"numberOfBytes": "1"
					}
				}
			},
			"userdoc": {
				"kind": "user",
				"methods": {},
				"version": 1
			}
		}
	}
}