{"abi":[{"type":"constructor","inputs":[{"name":"_initial","type":"uint256","internalType":"uint256"}],"stateMutability":"nonpayable"},{"type":"function","name":"getPrice","inputs":[],"outputs":[{"name":"","type":"uint256","internalType":"uint256"}],"stateMutability":"view"},{"type":"function","name":"price","inputs":[],"outputs":[{"name":"","type":"uint256","internalType":"uint256"}],"stateMutability":"view"},{"type":"function","name":"setPrice","inputs":[{"name":"_p","type":"uint256","internalType":"uint256"}],"outputs":[],"stateMutability":"nonpayable"}],"bytecode":{"object":"0x6080604052348015600e575f5ffd5b5060405161020f38038061020f8339818101604052810190602e9190606b565b805f81905550506091565b5f5ffd5b5f819050919050565b604d81603d565b81146056575f5ffd5b50565b5f815190506065816046565b92915050565b5f60208284031215607d57607c6039565b5b5f6088848285016059565b91505092915050565b6101718061009e5f395ff3fe608060405234801561000f575f5ffd5b506004361061003f575f3560e01c806391b7f5ed1461004357806398d5fdca1461005f578063a035b1fe1461007d575b5f5ffd5b61005d600480360381019061005891906100e8565b61009b565b005b6100676100a4565b6040516100749190610122565b60405180910390f35b6100856100ac565b6040516100929190610122565b60405180910390f35b805f8190555050565b5f5f54905090565b5f5481565b5f5ffd5b5f819050919050565b6100c7816100b5565b81146100d1575f5ffd5b50565b5f813590506100e2816100be565b92915050565b5f602082840312156100fd576100fc6100b1565b5b5f61010a848285016100d4565b91505092915050565b61011c816100b5565b82525050565b5f6020820190506101355f830184610113565b9291505056fea2646970667358221220414c5a9b810a94a7355aa2d3b4939527cdf425b6d313d03d243cf7a94eeb5be964736f6c634300081c0033","linkReferences":{}},"methodIdentifiers":{"getPrice()":"98d5fdca","price()":"a035b1fe","setPrice(uint256)":"91b7f5ed"},"id":22}