{"abi":[{"type":"constructor","inputs":[{"name":"impl","type":"address","internalType":"address"},{"name":"initCalldata","type":"bytes","internalType":"bytes"}],"stateMutability":"nonpayable"},{"type":"fallback","stateMutability":"payable"},{"type":"receive","stateMutability":"payable"},{"type":"function","name":"admin","inputs":[],"outputs":[{"name":"a","type":"address","internalType":"address"}],"stateMutability":"view"},{"type":"function","name":"implementation","inputs":[],"outputs":[{"name":"i","type":"address","internalType":"address"}],"stateMutability":"view"},{"type":"function","name":"upgradeTo","inputs":[{"name":"newImpl","type":"address","internalType":"address"}],"outputs":[],"stateMutability":"nonpayable"},{"type":"event","name":"Upgraded","inputs":[{"name":"implementation","type":"address","indexed":true,"internalType":"address"}],"anonymous":false}],"bytecode":{"object":"0x608060405234801561000f575f5ffd5b506040516107b73803806107b7833981810160405281019061003191906102d7565b337fb53127684a568b3173ae13b9f8a6016e01ff55aebf6f1a5a6a0000000000000055817f360894a13ba1a3210667c828492db98dca3e2076cc3735a920a3ca505d382bbc555f81511115610129575f8273ffffffffffffffffffffffffffffffffffffffff16826040516100a69190610375565b5f60405180830381855af49150503d805f81146100de576040519150601f19603f3d011682016040523d82523d5f602084013e6100e3565b606091505b5050905080610127576040517f08c379a000000000000000000000000000000000000000000000000000000000815260040161011e906103e5565b60405180910390fd5b505b5050610403565b5f604051905090565b5f5ffd5b5f5ffd5b5f73ffffffffffffffffffffffffffffffffffffffff82169050919050565b5f61016a82610141565b9050919050565b61017a81610160565b8114610184575f5ffd5b50565b5f8151905061019581610171565b92915050565b5f5ffd5b5f5ffd5b5f601f19601f8301169050919050565b7f4e487b71000000000000000000000000000000000000000000000000000000005f52604160045260245ffd5b6101e9826101a3565b810181811067ffffffffffffffff82111715610208576102076101b3565b5b80604052505050565b5f61021a610130565b905061022682826101e0565b919050565b5f67ffffffffffffffff821115610245576102446101b3565b5b61024e826101a3565b9050602081019050919050565b8281835e5f83830152505050565b5f61027b6102768461022b565b610211565b9050828152602081018484840111156102975761029661019f565b5b6102a284828561025b565b509392505050565b5f82601f8301126102be576102bd61019b565b5b81516102ce848260208601610269565b91505092915050565b5f5f604083850312156102ed576102ec610139565b5b5f6102fa85828601610187565b925050602083015167ffffffffffffffff81111561031b5761031a61013d565b5b610327858286016102aa565b9150509250929050565b5f81519050919050565b5f81905092915050565b5f61034f82610331565b610359818561033b565b935061036981856020860161025b565b80840191505092915050565b5f6103808284610345565b915081905092915050565b5f82825260208201905092915050565b7f696e6974206661696c65640000000000000000000000000000000000000000005f82015250565b5f6103cf600b8361038b565b91506103da8261039b565b602082019050919050565b5f6020820190508181035f8301526103fc816103c3565b9050919050565b6103a7806104105f395ff3fe608060405260043610610037575f3560e01c80633659cfe61461007f5780635c60da1b146100a7578063f851a440146100d15761003e565b3661003e57005b7f360894a13ba1a3210667c828492db98dca3e2076cc3735a920a3ca505d382bbc54365f5f375f5f365f845af43d5f5f3e805f811461007b573d5ff35b3d5ffd5b34801561008a575f5ffd5b506100a560048036038101906100a091906102a6565b6100fb565b005b3480156100b2575f5ffd5b506100bb6101f8565b6040516100c891906102e0565b60405180910390f35b3480156100dc575f5ffd5b506100e5610220565b6040516100f291906102e0565b60405180910390f35b5f7fb53127684a568b3173ae13b9f8a6016e01ff55aebf6f1a5a6a000000000000005490508073ffffffffffffffffffffffffffffffffffffffff163373ffffffffffffffffffffffffffffffffffffffff161461018e576040517f08c379a000000000000000000000000000000000000000000000000000000000815260040161018590610353565b60405180910390fd5b817f360894a13ba1a3210667c828492db98dca3e2076cc3735a920a3ca505d382bbc558173ffffffffffffffffffffffffffffffffffffffff167fbc7cd75a20ee27fd9adebab32041f755214dbc6bffa90cc0225b39da2e5c2d3b60405160405180910390a25050565b5f7f360894a13ba1a3210667c828492db98dca3e2076cc3735a920a3ca505d382bbc54905090565b5f7fb53127684a568b3173ae13b9f8a6016e01ff55aebf6f1a5a6a0000000000000054905090565b5f5ffd5b5f73ffffffffffffffffffffffffffffffffffffffff82169050919050565b5f6102758261024c565b9050919050565b6102858161026b565b811461028f575f5ffd5b50565b5f813590506102a08161027c565b92915050565b5f602082840312156102bb576102ba610248565b5b5f6102c884828501610292565b91505092915050565b6102da8161026b565b82525050565b5f6020820190506102f35f8301846102d1565b92915050565b5f82825260208201905092915050565b7f6e6f742061646d696e00000000000000000000000000000000000000000000005f82015250565b5f61033d6009836102f9565b915061034882610309565b602082019050919050565b5f6020820190508181035f83015261036a81610331565b905091905056fea26469706673582212202db090f580d7064fa9b810185d104cb44047843f246b559e8d1c9ea13aece4a264736f6c634300081c0033","linkReferences":{}},"methodIdentifiers":{"admin()":"f851a440","implementation()":"5c60da1b","upgradeTo(address)":"3659cfe6"},"id":5}