{"abi":[{"type":"constructor","inputs":[{"name":"_oracle","type":"address","internalType":"address"}],"stateMutability":"nonpayable"},{"type":"receive","stateMutability":"payable"},{"type":"function","name":"deposit","inputs":[],"outputs":[],"stateMutability":"payable"},{"type":"function","name":"oracle","inputs":[],"outputs":[{"name":"","type":"address","internalType":"contract IOracle"}],"stateMutability":"view"},{"type":"function","name":"usdBalance","inputs":[{"name":"","type":"address","internalType":"address"}],"outputs":[{"name":"","type":"uint256","internalType":"uint256"}],"stateMutability":"view"},{"type":"function","name":"withdraw","inputs":[],"outputs":[],"stateMutability":"nonpayable"}],"bytecode":{"object":"0x608060405234801561000f575f5ffd5b5060405161088f38038061088f833981810160405281019061003191906100d4565b805f5f6101000a81548173ffffffffffffffffffffffffffffffffffffffff021916908373ffffffffffffffffffffffffffffffffffffffff160217905550506100ff565b5f5ffd5b5f73ffffffffffffffffffffffffffffffffffffffff82169050919050565b5f6100a38261007a565b9050919050565b6100b381610099565b81146100bd575f5ffd5b50565b5f815190506100ce816100aa565b92915050565b5f602082840312156100e9576100e8610076565b5b5f6100f6848285016100c0565b91505092915050565b6107838061010c5f395ff3fe608060405260043610610042575f3560e01c80633ccfd60b1461004d5780637dc0d1d014610063578063d0e30db01461008d578063f752549c1461009757610049565b3661004957005b5f5ffd5b348015610058575f5ffd5b506100616100d3565b005b34801561006e575f5ffd5b50610077610280565b6040516100849190610466565b60405180910390f35b6100956102a4565b005b3480156100a2575f5ffd5b506100bd60048036038101906100b891906104be565b6103d7565b6040516100ca9190610501565b60405180910390f35b5f5f5f9054906101000a900473ffffffffffffffffffffffffffffffffffffffff1673ffffffffffffffffffffffffffffffffffffffff166398d5fdca6040518163ffffffff1660e01b8152600401602060405180830381865afa15801561013d573d5f5f3e3d5ffd5b505050506040513d601f19601f820116820180604052508101906101619190610544565b90505f60015f3373ffffffffffffffffffffffffffffffffffffffff1673ffffffffffffffffffffffffffffffffffffffff1681526020019081526020015f205490505f81116101e6576040517f08c379a00000000000000000000000000000000000000000000000000000000081526004016101dd906105c9565b60405180910390fd5b5f82826101f39190610641565b90505f60015f3373ffffffffffffffffffffffffffffffffffffffff1673ffffffffffffffffffffffffffffffffffffffff1681526020019081526020015f20819055503373ffffffffffffffffffffffffffffffffffffffff166108fc8290811502906040515f60405180830381858888f1935050505015801561027a573d5f5f3e3d5ffd5b50505050565b5f5f9054906101000a900473ffffffffffffffffffffffffffffffffffffffff1681565b5f34116102e6576040517f08c379a00000000000000000000000000000000000000000000000000000000081526004016102dd906106bb565b60405180910390fd5b5f5f5f9054906101000a900473ffffffffffffffffffffffffffffffffffffffff1673ffffffffffffffffffffffffffffffffffffffff166398d5fdca6040518163ffffffff1660e01b8152600401602060405180830381865afa158015610350573d5f5f3e3d5ffd5b505050506040513d601f19601f820116820180604052508101906103749190610544565b9050803461038291906106d9565b60015f3373ffffffffffffffffffffffffffffffffffffffff1673ffffffffffffffffffffffffffffffffffffffff1681526020019081526020015f205f8282546103cd919061071a565b9250508190555050565b6001602052805f5260405f205f915090505481565b5f73ffffffffffffffffffffffffffffffffffffffff82169050919050565b5f819050919050565b5f61042e610429610424846103ec565b61040b565b6103ec565b9050919050565b5f61043f82610414565b9050919050565b5f61045082610435565b9050919050565b61046081610446565b82525050565b5f6020820190506104795f830184610457565b92915050565b5f5ffd5b5f61048d826103ec565b9050919050565b61049d81610483565b81146104a7575f5ffd5b50565b5f813590506104b881610494565b92915050565b5f602082840312156104d3576104d261047f565b5b5f6104e0848285016104aa565b91505092915050565b5f819050919050565b6104fb816104e9565b82525050565b5f6020820190506105145f8301846104f2565b92915050565b610523816104e9565b811461052d575f5ffd5b50565b5f8151905061053e8161051a565b92915050565b5f602082840312156105595761055861047f565b5b5f61056684828501610530565b91505092915050565b5f82825260208201905092915050565b7f7a65726f2062616c616e636500000000000000000000000000000000000000005f82015250565b5f6105b3600c8361056f565b91506105be8261057f565b602082019050919050565b5f6020820190508181035f8301526105e0816105a7565b9050919050565b7f4e487b71000000000000000000000000000000000000000000000000000000005f52601260045260245ffd5b7f4e487b71000000000000000000000000000000000000000000000000000000005f52601160045260245ffd5b5f61064b826104e9565b9150610656836104e9565b925082610666576106656105e7565b5b828204905092915050565b7f7a65726f206465706f73697400000000000000000000000000000000000000005f82015250565b5f6106a5600c8361056f565b91506106b082610671565b602082019050919050565b5f6020820190508181035f8301526106d281610699565b9050919050565b5f6106e3826104e9565b91506106ee836104e9565b92508282026106fc816104e9565b9150828204841483151761071357610712610614565b5b5092915050565b5f610724826104e9565b915061072f836104e9565b925082820190508082111561074757610746610614565b5b9291505056fea26469706673582212206538c180148d6f279ddcdb17cf24375326d577ee6c499d996ebda3f01cbb88fb64736f6c634300081c0033","linkReferences":{}},"methodIdentifiers":{"deposit()":"d0e30db0","oracle()":"7dc0d1d0","usdBalance(address)":"f752549c","withdraw()":"3ccfd60b"},"id":23}