{"abi":[{"type":"function","name":"allowance","inputs":[{"name":"","type":"address","internalType":"address"},{"name":"","type":"address","internalType":"address"}],"outputs":[{"name":"","type":"uint256","internalType":"uint256"}],"stateMutability":"view"},{"type":"function","name":"approve","inputs":[{"name":"spender","type":"address","internalType":"address"},{"name":"value","type":"uint256","internalType":"uint256"}],"outputs":[{"name":"","type":"bool","internalType":"bool"}],"stateMutability":"nonpayable"},{"type":"function","name":"balanceOf","inputs":[{"name":"","type":"address","internalType":"address"}],"outputs":[{"name":"","type":"uint256","internalType":"uint256"}],"stateMutability":"view"},{"type":"function","name":"decimals","inputs":[],"outputs":[{"name":"","type":"uint8","internalType":"uint8"}],"stateMutability":"view"},{"type":"function","name":"feeBps","inputs":[],"outputs":[{"name":"","type":"uint16","internalType":"uint16"}],"stateMutability":"view"},{"type":"function","name":"initialize","inputs":[{"name":"","type":"uint256","internalType":"uint256"},{"name":"","type":"address","internalType":"address"}],"outputs":[],"stateMutability":"nonpayable"},{"type":"function","name":"name","inputs":[],"outputs":[{"name":"","type":"string","internalType":"string"}],"stateMutability":"view"},{"type":"function","name":"symbol","inputs":[],"outputs":[{"name":"","type":"string","internalType":"string"}],"stateMutability":"view"},{"type":"function","name":"totalSupply","inputs":[],"outputs":[{"name":"","type":"uint256","internalType":"uint256"}],"stateMutability":"view"},{"type":"function","name":"transfer","inputs":[{"name":"to","type":"address","internalType":"address"},{"name":"value","type":"uint256","internalType":"uint256"}],"outputs":[{"name":"","type":"bool","internalType":"bool"}],"stateMutability":"nonpayable"},{"type":"function","name":"transferFrom","inputs":[{"name":"from","type":"address","internalType":"address"},{"name":"to","type":"address","internalType":"address"},{"name":"value","type":"uint256","internalType":"uint256"}],"outputs":[{"name":"","type":"bool","internalType":"bool"}],"stateMutability":"nonpayable"},{"type":"event","name":"Approval","inputs":[{"name":"owner","type":"address","indexed":true,"internalType":"address"},{"name":"spender","type":"address","indexed":true,"internalType":"address"},{"name":"value","type":"uint256","indexed":false,"internalType":"uint256"}],"anonymous":false},{"type":"event","name":"Transfer","inputs":[{"name":"from","type":"address","indexed":true,"internalType":"address"},{"name":"to","type":"address","indexed":true,"internalType":"address"},{"name":"value","type":"uint256","indexed":false,"internalType":"uint256"}],"anonymous":false}],"bytecode":{"object":"0x6080604052348015600e575f5ffd5b50610d5f8061001c5f395ff3fe608060405234801561000f575f5ffd5b50600436106100a7575f3560e01c8063313ce5671161006f578063313ce5671461016557806370a082311461018357806395d89b41146101b3578063a9059cbb146101d1578063da35a26f14610201578063dd62ed3e1461021d576100a7565b806306fdde03146100ab578063095ea7b3146100c957806318160ddd146100f957806323b872dd1461011757806324a9d85314610147575b5f5ffd5b6100b361024d565b6040516100c0919061087e565b60405180910390f35b6100e360048036038101906100de919061092f565b610286565b6040516100f09190610987565b60405180910390f35b610101610373565b60405161010e91906109af565b60405180910390f35b610131600480360381019061012c91906109c8565b610378565b60405161013e9190610987565b60405180910390f35b61014f610531565b60405161015c9190610a34565b60405180910390f35b61016d610536565b60405161017a9190610a68565b60405180910390f35b61019d60048036038101906101989190610a81565b61053b565b6040516101aa91906109af565b60405180910390f35b6101bb610550565b6040516101c8919061087e565b60405180910390f35b6101eb60048036038101906101e6919061092f565b610589565b6040516101f89190610987565b60405180910390f35b61021b60048036038101906102169190610aac565b61059d565b005b61023760048036038101906102329190610aea565b6105a1565b60405161024491906109af565b60405180910390f35b6040518060400160405280601081526020017f55706772616461626c6520546f6b656e0000000000000000000000000000000081525081565b5f8160025f3373ffffffffffffffffffffffffffffffffffffffff1673ffffffffffffffffffffffffffffffffffffffff1681526020019081526020015f205f8573ffffffffffffffffffffffffffffffffffffffff1673ffffffffffffffffffffffffffffffffffffffff1681526020019081526020015f20819055508273ffffffffffffffffffffffffffffffffffffffff163373ffffffffffffffffffffffffffffffffffffffff167f8c5be1e5ebec7d5bd14f71427d1e84f3dd0314c0f7b2291e5b200ac8c7c3b9258460405161036191906109af565b60405180910390a36001905092915050565b5f5481565b5f3373ffffffffffffffffffffffffffffffffffffffff168473ffffffffffffffffffffffffffffffffffffffff161461051d575f60025f8673ffffffffffffffffffffffffffffffffffffffff1673ffffffffffffffffffffffffffffffffffffffff1681526020019081526020015f205f3373ffffffffffffffffffffffffffffffffffffffff1673ffffffffffffffffffffffffffffffffffffffff1681526020019081526020015f205490507fffffffffffffffffffffffffffffffffffffffffffffffffffffffffffffffff811461051b5782811015610492576040517f08c379a000000000000000000000000000000000000000000000000000000000815260040161048990610b72565b60405180910390fd5b828161049e9190610bbd565b60025f8773ffffffffffffffffffffffffffffffffffffffff1673ffffffffffffffffffffffffffffffffffffffff1681526020019081526020015f205f3373ffffffffffffffffffffffffffffffffffffffff1673ffffffffffffffffffffffffffffffffffffffff1681526020019081526020015f20819055505b505b6105288484846105c1565b90509392505050565b60c881565b601281565b6001602052805f5260405f205f915090505481565b6040518060400160405280600381526020017f555047000000000000000000000000000000000000000000000000000000000081525081565b5f6105953384846105c1565b905092915050565b5050565b6002602052815f5260405f20602052805f5260405f205f91509150505481565b5f8160015f8673ffffffffffffffffffffffffffffffffffffffff1673ffffffffffffffffffffffffffffffffffffffff1681526020019081526020015f20541015610642576040517f08c379a000000000000000000000000000000000000000000000000000000000815260040161063990610c3a565b60405180910390fd5b5f61271060c861ffff16846106579190610c58565b6106619190610cc6565b90505f81846106709190610bbd565b90508360015f8873ffffffffffffffffffffffffffffffffffffffff1673ffffffffffffffffffffffffffffffffffffffff1681526020019081526020015f205f8282546106be9190610bbd565b925050819055508060015f8773ffffffffffffffffffffffffffffffffffffffff1673ffffffffffffffffffffffffffffffffffffffff1681526020019081526020015f205f8282546107119190610cf6565b92505081905550815f5f8282546107289190610bbd565b925050819055508473ffffffffffffffffffffffffffffffffffffffff168673ffffffffffffffffffffffffffffffffffffffff167fddf252ad1be2c89b69c2b068fc378daa952ba7f163c4a11628f55a4df523b3ef8360405161078c91906109af565b60405180910390a35f8214610801575f73ffffffffffffffffffffffffffffffffffffffff168673ffffffffffffffffffffffffffffffffffffffff167fddf252ad1be2c89b69c2b068fc378daa952ba7f163c4a11628f55a4df523b3ef846040516107f891906109af565b60405180910390a35b6001925050509392505050565b5f81519050919050565b5f82825260208201905092915050565b8281835e5f83830152505050565b5f601f19601f8301169050919050565b5f6108508261080e565b61085a8185610818565b935061086a818560208601610828565b61087381610836565b840191505092915050565b5f6020820190508181035f8301526108968184610846565b905092915050565b5f5ffd5b5f73ffffffffffffffffffffffffffffffffffffffff82169050919050565b5f6108cb826108a2565b9050919050565b6108db816108c1565b81146108e5575f5ffd5b50565b5f813590506108f6816108d2565b92915050565b5f819050919050565b61090e816108fc565b8114610918575f5ffd5b50565b5f8135905061092981610905565b92915050565b5f5f604083850312156109455761094461089e565b5b5f610952858286016108e8565b92505060206109638582860161091b565b9150509250929050565b5f8115159050919050565b6109818161096d565b82525050565b5f60208201905061099a5f830184610978565b92915050565b6109a9816108fc565b82525050565b5f6020820190506109c25f8301846109a0565b92915050565b5f5f5f606084860312156109df576109de61089e565b5b5f6109ec868287016108e8565b93505060206109fd868287016108e8565b9250506040610a0e8682870161091b565b9150509250925092565b5f61ffff82169050919050565b610a2e81610a18565b82525050565b5f602082019050610a475f830184610a25565b92915050565b5f60ff82169050919050565b610a6281610a4d565b82525050565b5f602082019050610a7b5f830184610a59565b92915050565b5f60208284031215610a9657610a9561089e565b5b5f610aa3848285016108e8565b91505092915050565b5f5f60408385031215610ac257610ac161089e565b5b5f610acf8582860161091b565b9250506020610ae0858286016108e8565b9150509250929050565b5f5f60408385031215610b0057610aff61089e565b5b5f610b0d858286016108e8565b9250506020610b1e858286016108e8565b9150509250929050565b7f696e73756666696369656e742d616c6c6f77616e6365000000000000000000005f82015250565b5f610b5c601683610818565b9150610b6782610b28565b602082019050919050565b5f6020820190508181035f830152610b8981610b50565b9050919050565b7f4e487b71000000000000000000000000000000000000000000000000000000005f52601160045260245ffd5b5f610bc7826108fc565b9150610bd2836108fc565b9250828203905081811115610bea57610be9610b90565b5b92915050565b7f696e73756666696369656e742d62616c616e63650000000000000000000000005f82015250565b5f610c24601483610818565b9150610c2f82610bf0565b602082019050919050565b5f6020820190508181035f830152610c5181610c18565b9050919050565b5f610c62826108fc565b9150610c6d836108fc565b9250828202610c7b816108fc565b91508282048414831517610c9257610c91610b90565b5b5092915050565b7f4e487b71000000000000000000000000000000000000000000000000000000005f52601260045260245ffd5b5f610cd0826108fc565b9150610cdb836108fc565b925082610ceb57610cea610c99565b5b828204905092915050565b5f610d00826108fc565b9150610d0b836108fc565b9250828201905080821115610d2357610d22610b90565b5b9291505056fea26469706673582212208236232e2afc2b8c4a2e76e90eaa53a396eef357df60563464f57aeb1fbc3c8364736f6c634300081c0033","linkReferences":{}},"methodIdentifiers":{"allowance(address,address)":"dd62ed3e","approve(address,uint256)":"095ea7b3","balanceOf(address)":"70a08231","decimals()":"313ce567","feeBps()":"24a9d853","initialize(uint256,address)":"da35a26f","name()":"06fdde03","symbol()":"95d89b41","totalSupply()":"18160ddd","transfer(address,uint256)":"a9059cbb","transferFrom(address,address,uint256)":"23b872dd"},"id":4}