{
  "_format": "hh-sol-artifact-1",
  "contractName": "PropertyNFT",
  "sourceName": "contracts/PropertyNFT.sol",
  "abi": [
    {
      "inputs": [],
      "stateMutability": "nonpayable",
      "type": "constructor"
    },
    {
      "inputs": [],
      "name": "AccessControlBadConfirmation",
      "type": "error"
    },
    {
      "inputs": [
        {
          "internalType": "address",
          "name": "account",
          "type": "address"
        },
        {
          "internalType": "bytes32",
          "name": "neededRole",
          "type": "bytes32"
        }
      ],
      "name": "AccessControlUnauthorizedAccount",
      "type": "error"
    },
    {
      "inputs": [],
      "name": "ERC721EnumerableForbiddenBatchMint",
      "type": "error"
    },
    {
      "inputs": [
        {
          "internalType": "address",
          "name": "sender",
          "type": "address"
        },
        {
          "internalType": "uint256",
          "name": "tokenId",
          "type": "uint256"
        },
        {
          "internalType": "address",
          "name": "owner",
          "type": "address"
        }
      ],
      "name": "ERC721IncorrectOwner",
      "type": "error"
    },
    {
      "inputs": [
        {
          "internalType": "address",
          "name": "operator",
          "type": "address"
        },
        {
          "internalType": "uint256",
          "name": "tokenId",
          "type": "uint256"
        }
      ],
      "name": "ERC721InsufficientApproval",
      "type": "error"
    },
    {
      "inputs": [
        {
          "internalType": "address",
          "name": "approver",
          "type": "address"
        }
      ],
      "name": "ERC721InvalidApprover",
      "type": "error"
    },
    {
      "inputs": [
        {
          "internalType": "address",
          "name": "operator",
          "type": "address"
        }
      ],
      "name": "ERC721InvalidOperator",
      "type": "error"
    },
    {
      "inputs": [
        {
          "internalType": "address",
          "name": "owner",
          "type": "address"
        }
      ],
      "name": "ERC721InvalidOwner",
      "type": "error"
    },
    {
      "inputs": [
        {
          "internalType": "address",
          "name": "receiver",
          "type": "address"
        }
      ],
      "name": "ERC721InvalidReceiver",
      "type": "error"
    },
    {
      "inputs": [
        {
          "internalType": "address",
          "name": "sender",
          "type": "address"
        }
      ],
      "name": "ERC721InvalidSender",
      "type": "error"
    },
    {
      "inputs": [
        {
          "internalType": "uint256",
          "name": "tokenId",
          "type": "uint256"
        }
      ],
      "name": "ERC721NonexistentToken",
      "type": "error"
    },
    {
      "inputs": [
        {
          "internalType": "address",
          "name": "owner",
          "type": "address"
        },
        {
          "internalType": "uint256",
          "name": "index",
          "type": "uint256"
        }
      ],
      "name": "ERC721OutOfBoundsIndex",
      "type": "error"
    },
    {
      "inputs": [
        {
          "internalType": "address",
          "name": "owner",
          "type": "address"
        }
      ],
      "name": "OwnableInvalidOwner",
      "type": "error"
    },
    {
      "inputs": [
        {
          "internalType": "address",
          "name": "account",
          "type": "address"
        }
      ],
      "name": "OwnableUnauthorizedAccount",
      "type": "error"
    },
    {
      "anonymous": false,
      "inputs": [
        {
          "indexed": true,
          "internalType": "address",
          "name": "owner",
          "type": "address"
        },
        {
          "indexed": true,
          "internalType": "address",
          "name": "approved",
          "type": "address"
        },
        {
          "indexed": true,
          "internalType": "uint256",
          "name": "tokenId",
          "type": "uint256"
        }
      ],
      "name": "Approval",
      "type": "event"
    },
    {
      "anonymous": false,
      "inputs": [
        {
          "indexed": true,
          "internalType": "address",
          "name": "owner",
          "type": "address"
        },
        {
          "indexed": true,
          "internalType": "address",
          "name": "operator",
          "type": "address"
        },
        {
          "indexed": false,
          "internalType": "bool",
          "name": "approved",
          "type": "bool"
        }
      ],
      "name": "ApprovalForAll",
      "type": "event"
    },
    {
      "anonymous": false,
      "inputs": [
        {
          "indexed": false,
          "internalType": "uint256",
          "name": "_fromTokenId",
          "type": "uint256"
        },
        {
          "indexed": false,
          "internalType": "uint256",
          "name": "_toTokenId",
          "type": "uint256"
        }
      ],
      "name": "BatchMetadataUpdate",
      "type": "event"
    },
    {
      "anonymous": false,
      "inputs": [
        {
          "indexed": true,
          "internalType": "uint256",
          "name": "tokenId",
          "type": "uint256"
        },
        {
          "indexed": false,
          "internalType": "string",
          "name": "complianceType",
          "type": "string"
        },
        {
          "indexed": false,
          "internalType": "uint256",
          "name": "expiryDate",
          "type": "uint256"
        }
      ],
      "name": "ComplianceExpired",
      "type": "event"
    },
    {
      "anonymous": false,
      "inputs": [
        {
          "indexed": true,
          "internalType": "uint256",
          "name": "tokenId",
          "type": "uint256"
        },
        {
          "indexed": false,
          "internalType": "bool",
          "name": "isCompliant",
          "type": "bool"
        }
      ],
      "name": "ComplianceValidated",
      "type": "event"
    },
    {
      "anonymous": false,
      "inputs": [
        {
          "indexed": false,
          "internalType": "uint256",
          "name": "tokenId",
          "type": "uint256"
        },
        {
          "indexed": false,
          "internalType": "address",
          "name": "newOwner",
          "type": "address"
        }
      ],
      "name": "EscrowFinalized",
      "type": "event"
    },
    {
      "anonymous": false,
      "inputs": [
        {
          "indexed": false,
          "internalType": "uint256",
          "name": "tokenId",
          "type": "uint256"
        },
        {
          "indexed": false,
          "internalType": "address",
          "name": "buyer",
          "type": "address"
        },
        {
          "indexed": false,
          "internalType": "address",
          "name": "seller",
          "type": "address"
        },
        {
          "indexed": false,
          "internalType": "uint256",
          "name": "amount",
          "type": "uint256"
        }
      ],
      "name": "EscrowInitiated",
      "type": "event"
    },
    {
      "anonymous": false,
      "inputs": [
        {
          "indexed": true,
          "internalType": "address",
          "name": "seller",
          "type": "address"
        },
        {
          "indexed": false,
          "internalType": "uint256",
          "name": "amount",
          "type": "uint256"
        }
      ],
      "name": "FundsWithdrawn",
      "type": "event"
    },
    {
      "anonymous": false,
      "inputs": [
        {
          "indexed": true,
          "internalType": "uint256",
          "name": "tokenId",
          "type": "uint256"
        },
        {
          "indexed": false,
          "internalType": "string",
          "name": "description",
          "type": "string"
        },
        {
          "indexed": false,
          "internalType": "uint256",
          "name": "cost",
          "type": "uint256"
        },
        {
          "indexed": false,
          "internalType": "bool",
          "name": "passed",
          "type": "bool"
        }
      ],
      "name": "MaintenanceRecordadded",
      "type": "event"
    },
    {
      "anonymous": false,
      "inputs": [
        {
          "indexed": false,
          "internalType": "uint256",
          "name": "_tokenId",
          "type": "uint256"
        }
      ],
      "name": "MetadataUpdate",
      "type": "event"
    },
    {
      "anonymous": false,
      "inputs": [
        {
          "indexed": true,
          "internalType": "address",
          "name": "previousOwner",
          "type": "address"
        },
        {
          "indexed": true,
          "internalType": "address",
          "name": "newOwner",
          "type": "address"
        }
      ],
      "name": "OwnershipTransferred",
      "type": "event"
    },
    {
      "anonymous": false,
      "inputs": [
        {
          "indexed": false,
          "internalType": "uint256",
          "name": "tokenId",
          "type": "uint256"
        }
      ],
      "name": "PropertyApproved",
      "type": "event"
    },
    {
      "anonymous": false,
      "inputs": [
        {
          "indexed": false,
          "internalType": "uint256",
          "name": "tokenId",
          "type": "uint256"
        },
        {
          "indexed": false,
          "internalType": "address",
          "name": "owner",
          "type": "address"
        }
      ],
      "name": "PropertyBurned",
      "type": "event"
    },
    {
      "anonymous": false,
      "inputs": [
        {
          "indexed": true,
          "internalType": "uint256",
          "name": "tokenId",
          "type": "uint256"
        },
        {
          "indexed": true,
          "internalType": "address",
          "name": "owner",
          "type": "address"
        }
      ],
      "name": "PropertyMinted",
      "type": "event"
    },
    {
      "anonymous": false,
      "inputs": [
        {
          "indexed": false,
          "internalType": "uint256",
          "name": "tokenId",
          "type": "uint256"
        },
        {
          "indexed": false,
          "internalType": "address",
          "name": "mintedBy",
          "type": "address"
        }
      ],
      "name": "PropertyPendingApproval",
      "type": "event"
    },
    {
      "anonymous": false,
      "inputs": [
        {
          "indexed": false,
          "internalType": "uint256",
          "name": "tokenId",
          "type": "uint256"
        },
        {
          "indexed": false,
          "internalType": "uint256",
          "name": "newPrice",
          "type": "uint256"
        }
      ],
      "name": "PropertyPriceUpdated",
      "type": "event"
    },
    {
      "anonymous": false,
      "inputs": [
        {
          "indexed": false,
          "internalType": "uint256",
          "name": "tokenId",
          "type": "uint256"
        }
      ],
      "name": "PropertyRejected",
      "type": "event"
    },
    {
      "anonymous": false,
      "inputs": [
        {
          "indexed": true,
          "internalType": "uint256",
          "name": "tokenId",
          "type": "uint256"
        },
        {
          "indexed": false,
          "internalType": "address",
          "name": "seller",
          "type": "address"
        },
        {
          "indexed": false,
          "internalType": "address",
          "name": "buyer",
          "type": "address"
        },
        {
          "indexed": false,
          "internalType": "uint256",
          "name": "price",
          "type": "uint256"
        }
      ],
      "name": "PropertySold",
      "type": "event"
    },
    {
      "anonymous": false,
      "inputs": [
        {
          "indexed": true,
          "internalType": "uint256",
          "name": "tokenId",
          "type": "uint256"
        },
        {
          "indexed": false,
          "internalType": "address",
          "name": "from",
          "type": "address"
        },
        {
          "indexed": false,
          "internalType": "address",
          "name": "to",
          "type": "address"
        }
      ],
      "name": "PropertyTransferred",
      "type": "event"
    },
    {
      "anonymous": false,
      "inputs": [
        {
          "indexed": true,
          "internalType": "uint256",
          "name": "tokenId",
          "type": "uint256"
        },
        {
          "indexed": false,
          "internalType": "string",
          "name": "newAddress",
          "type": "string"
        },
        {
          "indexed": false,
          "internalType": "string",
          "name": "newDetails",
          "type": "string"
        }
      ],
      "name": "PropertyUpdated",
      "type": "event"
    },
    {
      "anonymous": false,
      "inputs": [
        {
          "indexed": true,
          "internalType": "bytes32",
          "name": "role",
          "type": "bytes32"
        },
        {
          "indexed": true,
          "internalType": "bytes32",
          "name": "previousAdminRole",
          "type": "bytes32"
        },
        {
          "indexed": true,
          "internalType": "bytes32",
          "name": "newAdminRole",
          "type": "bytes32"
        }
      ],
      "name": "RoleAdminChanged",
      "type": "event"
    },
    {
      "anonymous": false,
      "inputs": [
        {
          "indexed": true,
          "internalType": "bytes32",
          "name": "role",
          "type": "bytes32"
        },
        {
          "indexed": true,
          "internalType": "address",
          "name": "account",
          "type": "address"
        },
        {
          "indexed": true,
          "internalType": "address",
          "name": "sender",
          "type": "address"
        }
      ],
      "name": "RoleGranted",
      "type": "event"
    },
    {
      "anonymous": false,
      "inputs": [
        {
          "indexed": true,
          "internalType": "bytes32",
          "name": "role",
          "type": "bytes32"
        },
        {
          "indexed": true,
          "internalType": "address",
          "name": "account",
          "type": "address"
        },
        {
          "indexed": true,
          "internalType": "address",
          "name": "sender",
          "type": "address"
        }
      ],
      "name": "RoleRevoked",
      "type": "event"
    },
    {
      "anonymous": false,
      "inputs": [
        {
          "indexed": true,
          "internalType": "uint256",
          "name": "tokenId",
          "type": "uint256"
        },
        {
          "indexed": true,
          "internalType": "address",
          "name": "buyer",
          "type": "address"
        },
        {
          "indexed": true,
          "internalType": "address",
          "name": "seller",
          "type": "address"
        },
        {
          "indexed": false,
          "internalType": "uint256",
          "name": "price",
          "type": "uint256"
        }
      ],
      "name": "TransactionRecorded",
      "type": "event"
    },
    {
      "anonymous": false,
      "inputs": [
        {
          "indexed": true,
          "internalType": "address",
          "name": "from",
          "type": "address"
        },
        {
          "indexed": true,
          "internalType": "address",
          "name": "to",
          "type": "address"
        },
        {
          "indexed": true,
          "internalType": "uint256",
          "name": "tokenId",
          "type": "uint256"
        }
      ],
      "name": "Transfer",
      "type": "event"
    },
    {
      "inputs": [],
      "name": "ADMIN_ROLE",
      "outputs": [
        {
          "internalType": "bytes32",
          "name": "",
          "type": "bytes32"
        }
      ],
      "stateMutability": "view",
      "type": "function"
    },
    {
      "inputs": [],
      "name": "COMPLIANCE_ROLE",
      "outputs": [
        {
          "internalType": "bytes32",
          "name": "",
          "type": "bytes32"
        }
      ],
      "stateMutability": "view",
      "type": "function"
    },
    {
      "inputs": [],
      "name": "DEFAULT_ADMIN_ROLE",
      "outputs": [
        {
          "internalType": "bytes32",
          "name": "",
          "type": "bytes32"
        }
      ],
      "stateMutability": "view",
      "type": "function"
    },
    {
      "inputs": [
        {
          "internalType": "uint256",
          "name": "tokenId",
          "type": "uint256"
        },
        {
          "internalType": "string[]",
          "name": "imageUrls",
          "type": "string[]"
        }
      ],
      "name": "addPropertyImages",
      "outputs": [],
      "stateMutability": "nonpayable",
      "type": "function"
    },
    {
      "inputs": [
        {
          "internalType": "string",
          "name": "complianceType",
          "type": "string"
        }
      ],
      "name": "addRequriedComplianceType",
      "outputs": [],
      "stateMutability": "nonpayable",
      "type": "function"
    },
    {
      "inputs": [
        {
          "internalType": "address",
          "name": "to",
          "type": "address"
        },
        {
          "internalType": "uint256",
          "name": "tokenId",
          "type": "uint256"
        }
      ],
      "name": "approve",
      "outputs": [],
      "stateMutability": "nonpayable",
      "type": "function"
    },
    {
      "inputs": [
        {
          "internalType": "uint256",
          "name": "tokenId",
          "type": "uint256"
        }
      ],
      "name": "approveProperty",
      "outputs": [],
      "stateMutability": "nonpayable",
      "type": "function"
    },
    {
      "inputs": [
        {
          "internalType": "uint256",
          "name": "",
          "type": "uint256"
        }
      ],
      "name": "approvedProperties",
      "outputs": [
        {
          "internalType": "bool",
          "name": "",
          "type": "bool"
        }
      ],
      "stateMutability": "view",
      "type": "function"
    },
    {
      "inputs": [
        {
          "internalType": "address",
          "name": "owner",
          "type": "address"
        }
      ],
      "name": "balanceOf",
      "outputs": [
        {
          "internalType": "uint256",
          "name": "",
          "type": "uint256"
        }
      ],
      "stateMutability": "view",
      "type": "function"
    },
    {
      "inputs": [
        {
          "internalType": "uint256",
          "name": "tokenId",
          "type": "uint256"
        }
      ],
      "name": "burn",
      "outputs": [],
      "stateMutability": "nonpayable",
      "type": "function"
    },
    {
      "inputs": [
        {
          "internalType": "uint256",
          "name": "tokenId",
          "type": "uint256"
        }
      ],
      "name": "buyProperty",
      "outputs": [],
      "stateMutability": "payable",
      "type": "function"
    },
    {
      "inputs": [
        {
          "internalType": "uint256",
          "name": "",
          "type": "uint256"
        },
        {
          "internalType": "address",
          "name": "",
          "type": "address"
        }
      ],
      "name": "escrowApprovals",
      "outputs": [
        {
          "internalType": "bool",
          "name": "",
          "type": "bool"
        }
      ],
      "stateMutability": "view",
      "type": "function"
    },
    {
      "inputs": [
        {
          "internalType": "uint256",
          "name": "",
          "type": "uint256"
        },
        {
          "internalType": "string",
          "name": "",
          "type": "string"
        }
      ],
      "name": "expiryDates",
      "outputs": [
        {
          "internalType": "uint256",
          "name": "",
          "type": "uint256"
        }
      ],
      "stateMutability": "view",
      "type": "function"
    },
    {
      "inputs": [
        {
          "internalType": "uint256",
          "name": "tokenId",
          "type": "uint256"
        }
      ],
      "name": "getAnalytics",
      "outputs": [
        {
          "internalType": "uint256",
          "name": "",
          "type": "uint256"
        },
        {
          "internalType": "uint256",
          "name": "",
          "type": "uint256"
        }
      ],
      "stateMutability": "view",
      "type": "function"
    },
    {
      "inputs": [
        {
          "internalType": "uint256",
          "name": "tokenId",
          "type": "uint256"
        }
      ],
      "name": "getApproved",
      "outputs": [
        {
          "internalType": "address",
          "name": "",
          "type": "address"
        }
      ],
      "stateMutability": "view",
      "type": "function"
    },
    {
      "inputs": [
        {
          "internalType": "uint256",
          "name": "tokenId",
          "type": "uint256"
        }
      ],
      "name": "getCompliance",
      "outputs": [
        {
          "internalType": "bool",
          "name": "",
          "type": "bool"
        },
        {
          "internalType": "bool",
          "name": "",
          "type": "bool"
        },
        {
          "internalType": "bool",
          "name": "",
          "type": "bool"
        },
        {
          "internalType": "bool",
          "name": "",
          "type": "bool"
        },
        {
          "internalType": "string",
          "name": "",
          "type": "string"
        }
      ],
      "stateMutability": "view",
      "type": "function"
    },
    {
      "inputs": [
        {
          "internalType": "uint256",
          "name": "tokenId",
          "type": "uint256"
        }
      ],
      "name": "getComplianceStatus",
      "outputs": [
        {
          "internalType": "string[]",
          "name": "",
          "type": "string[]"
        },
        {
          "internalType": "bool[]",
          "name": "",
          "type": "bool[]"
        }
      ],
      "stateMutability": "view",
      "type": "function"
    },
    {
      "inputs": [],
      "name": "getMintedTokens",
      "outputs": [
        {
          "internalType": "uint256[]",
          "name": "",
          "type": "uint256[]"
        }
      ],
      "stateMutability": "view",
      "type": "function"
    },
    {
      "inputs": [
        {
          "internalType": "address",
          "name": "owner",
          "type": "address"
        }
      ],
      "name": "getOwnedTokens",
      "outputs": [
        {
          "internalType": "uint256[]",
          "name": "",
          "type": "uint256[]"
        }
      ],
      "stateMutability": "view",
      "type": "function"
    },
    {
      "inputs": [
        {
          "internalType": "uint256",
          "name": "tokenId",
          "type": "uint256"
        }
      ],
      "name": "getOwnershipHistory",
      "outputs": [
        {
          "internalType": "address[]",
          "name": "",
          "type": "address[]"
        }
      ],
      "stateMutability": "view",
      "type": "function"
    },
    {
      "inputs": [],
      "name": "getPendingApprovalTokens",
      "outputs": [
        {
          "internalType": "uint256[]",
          "name": "",
          "type": "uint256[]"
        }
      ],
      "stateMutability": "view",
      "type": "function"
    },
    {
      "inputs": [
        {
          "internalType": "uint256",
          "name": "tokenId",
          "type": "uint256"
        }
      ],
      "name": "getPrice",
      "outputs": [
        {
          "internalType": "uint256",
          "name": "",
          "type": "uint256"
        }
      ],
      "stateMutability": "view",
      "type": "function"
    },
    {
      "inputs": [
        {
          "internalType": "uint256",
          "name": "tokenId",
          "type": "uint256"
        }
      ],
      "name": "getPropertyDetails",
      "outputs": [
        {
          "internalType": "string",
          "name": "",
          "type": "string"
        },
        {
          "internalType": "uint256",
          "name": "",
          "type": "uint256"
        },
        {
          "internalType": "string",
          "name": "",
          "type": "string"
        },
        {
          "internalType": "uint256",
          "name": "",
          "type": "uint256"
        },
        {
          "internalType": "bool",
          "name": "",
          "type": "bool"
        }
      ],
      "stateMutability": "view",
      "type": "function"
    },
    {
      "inputs": [
        {
          "internalType": "uint256",
          "name": "tokenId",
          "type": "uint256"
        }
      ],
      "name": "getPropertyImages",
      "outputs": [
        {
          "internalType": "string[]",
          "name": "",
          "type": "string[]"
        }
      ],
      "stateMutability": "view",
      "type": "function"
    },
    {
      "inputs": [
        {
          "internalType": "bytes32",
          "name": "role",
          "type": "bytes32"
        }
      ],
      "name": "getRoleAdmin",
      "outputs": [
        {
          "internalType": "bytes32",
          "name": "",
          "type": "bytes32"
        }
      ],
      "stateMutability": "view",
      "type": "function"
    },
    {
      "inputs": [
        {
          "internalType": "bytes32",
          "name": "role",
          "type": "bytes32"
        },
        {
          "internalType": "address",
          "name": "account",
          "type": "address"
        }
      ],
      "name": "grantRole",
      "outputs": [],
      "stateMutability": "nonpayable",
      "type": "function"
    },
    {
      "inputs": [
        {
          "internalType": "bytes32",
          "name": "role",
          "type": "bytes32"
        },
        {
          "internalType": "address",
          "name": "account",
          "type": "address"
        }
      ],
      "name": "hasRole",
      "outputs": [
        {
          "internalType": "bool",
          "name": "",
          "type": "bool"
        }
      ],
      "stateMutability": "view",
      "type": "function"
    },
    {
      "inputs": [
        {
          "internalType": "address",
          "name": "owner",
          "type": "address"
        },
        {
          "internalType": "address",
          "name": "operator",
          "type": "address"
        }
      ],
      "name": "isApprovedForAll",
      "outputs": [
        {
          "internalType": "bool",
          "name": "",
          "type": "bool"
        }
      ],
      "stateMutability": "view",
      "type": "function"
    },
    {
      "inputs": [
        {
          "internalType": "uint256",
          "name": "tokenId",
          "type": "uint256"
        },
        {
          "internalType": "string",
          "name": "complianceType",
          "type": "string"
        }
      ],
      "name": "isComplianceExpired",
      "outputs": [
        {
          "internalType": "bool",
          "name": "",
          "type": "bool"
        }
      ],
      "stateMutability": "view",
      "type": "function"
    },
    {
      "inputs": [
        {
          "internalType": "uint256",
          "name": "tokenId",
          "type": "uint256"
        }
      ],
      "name": "isPropertyForSale",
      "outputs": [
        {
          "internalType": "bool",
          "name": "",
          "type": "bool"
        }
      ],
      "stateMutability": "view",
      "type": "function"
    },
    {
      "inputs": [
        {
          "internalType": "uint256",
          "name": "tokenId",
          "type": "uint256"
        },
        {
          "internalType": "uint256",
          "name": "priceInWei",
          "type": "uint256"
        }
      ],
      "name": "listPropertyForSale",
      "outputs": [],
      "stateMutability": "nonpayable",
      "type": "function"
    },
    {
      "inputs": [
        {
          "internalType": "uint256",
          "name": "",
          "type": "uint256"
        }
      ],
      "name": "listingProperties",
      "outputs": [
        {
          "internalType": "uint256",
          "name": "price",
          "type": "uint256"
        },
        {
          "internalType": "bool",
          "name": "forSale",
          "type": "bool"
        }
      ],
      "stateMutability": "view",
      "type": "function"
    },
    {
      "inputs": [
        {
          "internalType": "uint256",
          "name": "",
          "type": "uint256"
        },
        {
          "internalType": "uint256",
          "name": "",
          "type": "uint256"
        }
      ],
      "name": "maintenanceRecords",
      "outputs": [
        {
          "internalType": "string",
          "name": "description",
          "type": "string"
        },
        {
          "internalType": "uint256",
          "name": "cost",
          "type": "uint256"
        },
        {
          "internalType": "bool",
          "name": "passed",
          "type": "bool"
        }
      ],
      "stateMutability": "view",
      "type": "function"
    },
    {
      "inputs": [
        {
          "internalType": "uint256",
          "name": "tokenId",
          "type": "uint256"
        },
        {
          "internalType": "string",
          "name": "propertyAddress",
          "type": "string"
        },
        {
          "internalType": "string",
          "name": "transactionDetails",
          "type": "string"
        },
        {
          "internalType": "uint256",
          "name": "price",
          "type": "uint256"
        }
      ],
      "name": "mintPropertyNFT",
      "outputs": [],
      "stateMutability": "nonpayable",
      "type": "function"
    },
    {
      "inputs": [],
      "name": "name",
      "outputs": [
        {
          "internalType": "string",
          "name": "",
          "type": "string"
        }
      ],
      "stateMutability": "view",
      "type": "function"
    },
    {
      "inputs": [],
      "name": "owner",
      "outputs": [
        {
          "internalType": "address",
          "name": "",
          "type": "address"
        }
      ],
      "stateMutability": "view",
      "type": "function"
    },
    {
      "inputs": [
        {
          "internalType": "uint256",
          "name": "tokenId",
          "type": "uint256"
        }
      ],
      "name": "ownerOf",
      "outputs": [
        {
          "internalType": "address",
          "name": "",
          "type": "address"
        }
      ],
      "stateMutability": "view",
      "type": "function"
    },
    {
      "inputs": [
        {
          "internalType": "uint256",
          "name": "",
          "type": "uint256"
        },
        {
          "internalType": "uint256",
          "name": "",
          "type": "uint256"
        }
      ],
      "name": "ownershipHistory",
      "outputs": [
        {
          "internalType": "address",
          "name": "",
          "type": "address"
        }
      ],
      "stateMutability": "view",
      "type": "function"
    },
    {
      "inputs": [
        {
          "internalType": "uint256",
          "name": "",
          "type": "uint256"
        }
      ],
      "name": "pendingApprovalTokens",
      "outputs": [
        {
          "internalType": "uint256",
          "name": "",
          "type": "uint256"
        }
      ],
      "stateMutability": "view",
      "type": "function"
    },
    {
      "inputs": [
        {
          "internalType": "uint256",
          "name": "",
          "type": "uint256"
        }
      ],
      "name": "properties",
      "outputs": [
        {
          "internalType": "string",
          "name": "propertyAddress",
          "type": "string"
        },
        {
          "internalType": "uint256",
          "name": "ownershipHistory",
          "type": "uint256"
        },
        {
          "internalType": "string",
          "name": "transactionDetails",
          "type": "string"
        }
      ],
      "stateMutability": "view",
      "type": "function"
    },
    {
      "inputs": [
        {
          "internalType": "uint256",
          "name": "",
          "type": "uint256"
        }
      ],
      "name": "propertyDocuments",
      "outputs": [
        {
          "internalType": "string",
          "name": "",
          "type": "string"
        }
      ],
      "stateMutability": "view",
      "type": "function"
    },
    {
      "inputs": [
        {
          "internalType": "uint256",
          "name": "",
          "type": "uint256"
        },
        {
          "internalType": "uint256",
          "name": "",
          "type": "uint256"
        }
      ],
      "name": "propertyImages",
      "outputs": [
        {
          "internalType": "string",
          "name": "",
          "type": "string"
        }
      ],
      "stateMutability": "view",
      "type": "function"
    },
    {
      "inputs": [
        {
          "internalType": "uint256",
          "name": "tokenId",
          "type": "uint256"
        },
        {
          "internalType": "address",
          "name": "buyer",
          "type": "address"
        },
        {
          "internalType": "address",
          "name": "seller",
          "type": "address"
        },
        {
          "internalType": "uint256",
          "name": "price",
          "type": "uint256"
        }
      ],
      "name": "recordTransaction",
      "outputs": [],
      "stateMutability": "nonpayable",
      "type": "function"
    },
    {
      "inputs": [
        {
          "internalType": "uint256",
          "name": "tokenId",
          "type": "uint256"
        }
      ],
      "name": "rejectProperty",
      "outputs": [],
      "stateMutability": "nonpayable",
      "type": "function"
    },
    {
      "inputs": [],
      "name": "renounceOwnership",
      "outputs": [],
      "stateMutability": "nonpayable",
      "type": "function"
    },
    {
      "inputs": [
        {
          "internalType": "bytes32",
          "name": "role",
          "type": "bytes32"
        },
        {
          "internalType": "address",
          "name": "callerConfirmation",
          "type": "address"
        }
      ],
      "name": "renounceRole",
      "outputs": [],
      "stateMutability": "nonpayable",
      "type": "function"
    },
    {
      "inputs": [
        {
          "internalType": "uint256",
          "name": "",
          "type": "uint256"
        }
      ],
      "name": "requiredComplianceTypes",
      "outputs": [
        {
          "internalType": "string",
          "name": "",
          "type": "string"
        }
      ],
      "stateMutability": "view",
      "type": "function"
    },
    {
      "inputs": [
        {
          "internalType": "bytes32",
          "name": "role",
          "type": "bytes32"
        },
        {
          "internalType": "address",
          "name": "account",
          "type": "address"
        }
      ],
      "name": "revokeRole",
      "outputs": [],
      "stateMutability": "nonpayable",
      "type": "function"
    },
    {
      "inputs": [],
      "name": "royaltyFee",
      "outputs": [
        {
          "internalType": "uint256",
          "name": "",
          "type": "uint256"
        }
      ],
      "stateMutability": "view",
      "type": "function"
    },
    {
      "inputs": [],
      "name": "royaltyRecipient",
      "outputs": [
        {
          "internalType": "address",
          "name": "",
          "type": "address"
        }
      ],
      "stateMutability": "view",
      "type": "function"
    },
    {
      "inputs": [
        {
          "internalType": "address",
          "name": "from",
          "type": "address"
        },
        {
          "internalType": "address",
          "name": "to",
          "type": "address"
        },
        {
          "internalType": "uint256",
          "name": "tokenId",
          "type": "uint256"
        }
      ],
      "name": "safeTransferFrom",
      "outputs": [],
      "stateMutability": "nonpayable",
      "type": "function"
    },
    {
      "inputs": [
        {
          "internalType": "address",
          "name": "from",
          "type": "address"
        },
        {
          "internalType": "address",
          "name": "to",
          "type": "address"
        },
        {
          "internalType": "uint256",
          "name": "tokenId",
          "type": "uint256"
        },
        {
          "internalType": "bytes",
          "name": "data",
          "type": "bytes"
        }
      ],
      "name": "safeTransferFrom",
      "outputs": [],
      "stateMutability": "nonpayable",
      "type": "function"
    },
    {
      "inputs": [
        {
          "internalType": "address",
          "name": "operator",
          "type": "address"
        },
        {
          "internalType": "bool",
          "name": "approved",
          "type": "bool"
        }
      ],
      "name": "setApprovalForAll",
      "outputs": [],
      "stateMutability": "nonpayable",
      "type": "function"
    },
    {
      "inputs": [
        {
          "internalType": "bytes4",
          "name": "interfaceId",
          "type": "bytes4"
        }
      ],
      "name": "supportsInterface",
      "outputs": [
        {
          "internalType": "bool",
          "name": "",
          "type": "bool"
        }
      ],
      "stateMutability": "view",
      "type": "function"
    },
    {
      "inputs": [],
      "name": "symbol",
      "outputs": [
        {
          "internalType": "string",
          "name": "",
          "type": "string"
        }
      ],
      "stateMutability": "view",
      "type": "function"
    },
    {
      "inputs": [
        {
          "internalType": "uint256",
          "name": "index",
          "type": "uint256"
        }
      ],
      "name": "tokenByIndex",
      "outputs": [
        {
          "internalType": "uint256",
          "name": "",
          "type": "uint256"
        }
      ],
      "stateMutability": "view",
      "type": "function"
    },
    {
      "inputs": [
        {
          "internalType": "address",
          "name": "owner",
          "type": "address"
        },
        {
          "internalType": "uint256",
          "name": "index",
          "type": "uint256"
        }
      ],
      "name": "tokenOfOwnerByIndex",
      "outputs": [
        {
          "internalType": "uint256",
          "name": "",
          "type": "uint256"
        }
      ],
      "stateMutability": "view",
      "type": "function"
    },
    {
      "inputs": [
        {
          "internalType": "uint256",
          "name": "tokenId",
          "type": "uint256"
        }
      ],
      "name": "tokenURI",
      "outputs": [
        {
          "internalType": "string",
          "name": "",
          "type": "string"
        }
      ],
      "stateMutability": "view",
      "type": "function"
    },
    {
      "inputs": [],
      "name": "totalSupply",
      "outputs": [
        {
          "internalType": "uint256",
          "name": "",
          "type": "uint256"
        }
      ],
      "stateMutability": "view",
      "type": "function"
    },
    {
      "inputs": [
        {
          "internalType": "address",
          "name": "from",
          "type": "address"
        },
        {
          "internalType": "address",
          "name": "to",
          "type": "address"
        },
        {
          "internalType": "uint256",
          "name": "tokenId",
          "type": "uint256"
        }
      ],
      "name": "transferFrom",
      "outputs": [],
      "stateMutability": "nonpayable",
      "type": "function"
    },
    {
      "inputs": [
        {
          "internalType": "address",
          "name": "newOwner",
          "type": "address"
        }
      ],
      "name": "transferOwnership",
      "outputs": [],
      "stateMutability": "nonpayable",
      "type": "function"
    },
    {
      "inputs": [
        {
          "internalType": "address",
          "name": "to",
          "type": "address"
        },
        {
          "internalType": "uint256",
          "name": "tokenId",
          "type": "uint256"
        }
      ],
      "name": "transferPropertyNFT",
      "outputs": [],
      "stateMutability": "nonpayable",
      "type": "function"
    },
    {
      "inputs": [
        {
          "internalType": "uint256",
          "name": "tokenId",
          "type": "uint256"
        }
      ],
      "name": "unlistProperty",
      "outputs": [],
      "stateMutability": "nonpayable",
      "type": "function"
    },
    {
      "inputs": [
        {
          "internalType": "uint256",
          "name": "tokenId",
          "type": "uint256"
        },
        {
          "internalType": "bool",
          "name": "fire",
          "type": "bool"
        },
        {
          "internalType": "bool",
          "name": "gas",
          "type": "bool"
        },
        {
          "internalType": "bool",
          "name": "electric",
          "type": "bool"
        },
        {
          "internalType": "bool",
          "name": "legal",
          "type": "bool"
        },
        {
          "internalType": "string",
          "name": "notes",
          "type": "string"
        }
      ],
      "name": "updateCompliance",
      "outputs": [],
      "stateMutability": "nonpayable",
      "type": "function"
    },
    {
      "inputs": [
        {
          "internalType": "uint256",
          "name": "tokenId",
          "type": "uint256"
        },
        {
          "internalType": "uint256",
          "name": "newPrice",
          "type": "uint256"
        }
      ],
      "name": "updateListingPrice",
      "outputs": [],
      "stateMutability": "nonpayable",
      "type": "function"
    },
    {
      "inputs": [
        {
          "internalType": "uint256",
          "name": "tokenId",
          "type": "uint256"
        },
        {
          "internalType": "string",
          "name": "newAddress",
          "type": "string"
        },
        {
          "internalType": "string",
          "name": "newDetails",
          "type": "string"
        }
      ],
      "name": "updatePropertyDetails",
      "outputs": [],
      "stateMutability": "nonpayable",
      "type": "function"
    },
    {
      "inputs": [
        {
          "internalType": "uint256",
          "name": "tokenId",
          "type": "uint256"
        }
      ],
      "name": "validateCompliance",
      "outputs": [
        {
          "internalType": "bool",
          "name": "",
          "type": "bool"
        }
      ],
      "stateMutability": "view",
      "type": "function"
    },
    {
      "inputs": [],
      "name": "withdrawFunds",
      "outputs": [],
      "stateMutability": "nonpayable",
      "type": "function"
    }
  ],
  "bytecode": "0x60806040526101f4600d5534801561001657600080fd5b50336040518060400160405280600b81526020016a141c9bdc195c9d1e53919560aa1b8152506040518060400160405280600381526020016205052560ec1b81525081600090816100679190610356565b5060016100748282610356565b5050506001600160a01b0381166100a557604051631e4fbdf760e01b81526000600482015260240160405180910390fd5b6100ae816101b5565b506100ba600033610207565b506100e57fa49807205ce4d355092ef5a8a18f56e8913cf4a201fbe287825b095693c2177533610207565b506101107f442a94f1a1fac79af32856af2a64f63648cfa2ef3b98610a5bb7cbec4cee698533610207565b50600f805460018101825560009190915260408051808201909152600a8152694669726553616665747960b01b60208201526000805160206151708339815191529091019061015f9082610356565b50600f80546001810182556000829052604080518082019091529182526e456c656374726963616c436865636b60881b602083015260008051602061517083398151915201906101af9082610356565b50610414565b600b80546001600160a01b038381166001600160a01b0319831681179093556040519116919082907f8be0079c531659141344cd1fd0a4f28419497f9722a3daafe3b4186f6b6457e090600090a35050565b6000828152600c602090815260408083206001600160a01b038516845290915281205460ff166102ad576000838152600c602090815260408083206001600160a01b03861684529091529020805460ff191660011790556102653390565b6001600160a01b0316826001600160a01b0316847f2f8788117e7eff1d82e926ec794901d17c78024a50270940304540a733656f0d60405160405180910390a45060016102b1565b5060005b92915050565b634e487b7160e01b600052604160045260246000fd5b600181811c908216806102e157607f821691505b60208210810361030157634e487b7160e01b600052602260045260246000fd5b50919050565b601f82111561035157806000526020600020601f840160051c8101602085101561032e5750805b601f840160051c820191505b8181101561034e576000815560010161033a565b50505b505050565b81516001600160401b0381111561036f5761036f6102b7565b6103838161037d84546102cd565b84610307565b6020601f8211600181146103b7576000831561039f5750848201515b600019600385901b1c1916600184901b17845561034e565b600084815260208120601f198516915b828110156103e757878501518255602094850194600190920191016103c7565b50848210156104055786840151600019600387901b60f8161c191681555b50505050600190811b01905550565b614d4d806104236000396000f3fe60806040526004361061036f5760003560e01c80638b25fdc1116101c8578063cdbc1248116100f8578063e787b7fa1161009b578063e787b7fa14610ba1578063e818554914610bdc578063e985e9c514610c09578063e9b66f8c14610c29578063ef27688a14610c49578063f1dbaccb14610c69578063f2fde38b14610c96578063f7b1080814610cb6578063ff4d4f2814610ce557600080fd5b8063cdbc124814610a99578063ce7acb9814610ab9578063d547741f14610aec578063d9d6165514610b0c578063dc96529014610b2c578063e3fc0c9d14610b41578063e73360db14610b61578063e757223014610b8157600080fd5b8063af19695a1161016b578063af19695a14610981578063b0f58883146109a1578063b827e732146109c1578063b88d4fde146109e1578063b8997a9714610a01578063b967441114610a17578063c460494314610a39578063c87b56dd14610a59578063c9cf2adc14610a7957600080fd5b80638b25fdc11461087b5780638da5cb5b1461089b57806391d14854146108b957806395d89b41146108d957806399f17bad146108ee5780639ea53d5f1461091c578063a217fddf1461094c578063a22cb4651461096157600080fd5b80632f745c59116102a35780636352211e116102465780636352211e14610745578063697f761b146107655780636fa830a6146107b157806370a08231146107c4578063715018a6146107e4578063720b9745146107f957806375b238fc14610819578063841ad8b91461083b578063898c97601461085b57600080fd5b80632f745c591461064557806336568abe1461066557806341efd1451461068557806342842e0e146106a557806342966c68146106c55780634c00de82146106e55780634cae02b7146107055780634f6ccce71461072557600080fd5b8063126dbe4311610316578063126dbe43146104dc57806314c1fe151461050d57806318160ddd146105565780631edc35541461056b57806323b872dd146105a057806324600fc3146105c0578063248a9ca3146105d557806327983fcf146106055780632f2ff15d1461062557600080fd5b806301ffc9a714610374578063062d3bd7146103a957806306fdde03146103eb578063081812fc1461040d578063095ea7b31461043a5780630bbb888a1461045c5780630c5131b81461048d5780630f55415b146104bc575b600080fd5b34801561038057600080fd5b5061039461038f366004613e5b565b610d05565b60405190151581526020015b60405180910390f35b3480156103b557600080fd5b506103dd7f442a94f1a1fac79af32856af2a64f63648cfa2ef3b98610a5bb7cbec4cee698581565b6040519081526020016103a0565b3480156103f757600080fd5b50610400610d16565b6040516103a09190613ec8565b34801561041957600080fd5b5061042d610428366004613edb565b610da8565b6040516103a09190613ef4565b34801561044657600080fd5b5061045a610455366004613f1d565b610dd1565b005b34801561046857600080fd5b5061047c610477366004613edb565b610de0565b6040516103a0959493929190613f49565b34801561049957600080fd5b506104ad6104a8366004613f87565b610f32565b6040516103a093929190613fa9565b3480156104c857600080fd5b5061045a6104d7366004613f87565b611005565b3480156104e857600080fd5b506104fc6104f7366004613edb565b611150565b6040516103a0959493929190613fd3565b34801561051957600080fd5b506103dd6105283660046140e3565b6013602090815260009283526040909220815180830184018051928152908401929093019190912091525481565b34801561056257600080fd5b506103dd61130f565b34801561057757600080fd5b5061058b610586366004613edb565b61131f565b604080519283526020830191909152016103a0565b3480156105ac57600080fd5b5061045a6105bb366004614129565b611378565b3480156105cc57600080fd5b5061045a6113ef565b3480156105e157600080fd5b506103dd6105f0366004613edb565b6000908152600c602052604090206001015490565b34801561061157600080fd5b5061045a610620366004613edb565b611517565b34801561063157600080fd5b5061045a61064036600461416a565b611697565b34801561065157600080fd5b506103dd610660366004613f1d565b6116bc565b34801561067157600080fd5b5061045a61068036600461416a565b611713565b34801561069157600080fd5b5061045a6106a03660046141bd565b61174b565b3480156106b157600080fd5b5061045a6106c0366004614129565b6117db565b3480156106d157600080fd5b5061045a6106e0366004613edb565b6117f6565b3480156106f157600080fd5b50600e5461042d906001600160a01b031681565b34801561071157600080fd5b5061045a61072036600461427e565b6118da565b34801561073157600080fd5b506103dd610740366004613edb565b611a83565b34801561075157600080fd5b5061042d610760366004613edb565b611ad6565b34801561077157600080fd5b5061079c610780366004613edb565b6015602052600090815260409020805460019091015460ff1682565b604080519283529015156020830152016103a0565b61045a6107bf366004613edb565b611ae1565b3480156107d057600080fd5b506103dd6107df3660046142f6565b611d30565b3480156107f057600080fd5b5061045a611d78565b34801561080557600080fd5b506103dd610814366004613edb565b611d8c565b34801561082557600080fd5b506103dd600080516020614cf883398151915281565b34801561084757600080fd5b5061045a610856366004613edb565b611dad565b34801561086757600080fd5b50610400610876366004613f87565b611e7c565b34801561088757600080fd5b5061045a610896366004614313565b611f35565b3480156108a757600080fd5b50600b546001600160a01b031661042d565b3480156108c557600080fd5b506103946108d436600461416a565b6120e5565b3480156108e557600080fd5b50610400612110565b3480156108fa57600080fd5b5061090e610909366004613edb565b61211f565b6040516103a09291906143b7565b34801561092857600080fd5b50610394610937366004613edb565b60196020526000908152604090205460ff1681565b34801561095857600080fd5b506103dd600081565b34801561096d57600080fd5b5061045a61097c366004614415565b6121ba565b34801561098d57600080fd5b5061045a61099c366004613f1d565b6121c5565b3480156109ad57600080fd5b5061045a6109bc366004614443565b6123b3565b3480156109cd57600080fd5b506104006109dc366004613edb565b612465565b3480156109ed57600080fd5b5061045a6109fc3660046144b3565b61247e565b348015610a0d57600080fd5b506103dd600d5481565b348015610a2357600080fd5b50610a2c612496565b6040516103a09190614532565b348015610a4557600080fd5b5061045a610a54366004613f87565b6124ed565b348015610a6557600080fd5b50610400610a74366004613edb565b612607565b348015610a8557600080fd5b5061042d610a94366004613f87565b612612565b348015610aa557600080fd5b5061045a610ab4366004614575565b61264a565b348015610ac557600080fd5b50610394610ad4366004613edb565b60009081526015602052604090206001015460ff1690565b348015610af857600080fd5b5061045a610b0736600461416a565b6126d0565b348015610b1857600080fd5b50610a2c610b273660046142f6565b6126f5565b348015610b3857600080fd5b50610a2c61278c565b348015610b4d57600080fd5b5061045a610b5c3660046145a9565b612820565b348015610b6d57600080fd5b50610400610b7c366004613edb565b612882565b348015610b8d57600080fd5b506103dd610b9c366004613edb565b6128ad565b348015610bad57600080fd5b50610394610bbc36600461416a565b601860209081526000928352604080842090915290825290205460ff1681565b348015610be857600080fd5b50610bfc610bf7366004613edb565b6128e7565b6040516103a09190614638565b348015610c1557600080fd5b50610394610c2436600461464b565b6129d3565b348015610c3557600080fd5b5061045a610c44366004613edb565b612a01565b348015610c5557600080fd5b50610394610c643660046140e3565b612c1f565b348015610c7557600080fd5b50610c89610c84366004613edb565b612c56565b6040516103a09190614679565b348015610ca257600080fd5b5061045a610cb13660046142f6565b612cc2565b348015610cc257600080fd5b50610cd6610cd1366004613edb565b612d00565b6040516103a0939291906146ba565b348015610cf157600080fd5b50610394610d00366004613edb565b612e32565b6000610d1082612f0e565b92915050565b606060008054610d25906146ef565b80601f0160208091040260200160405190810160405280929190818152602001828054610d51906146ef565b8015610d9e5780601f10610d7357610100808354040283529160200191610d9e565b820191906000526020600020905b815481529060010190602001808311610d8157829003601f168201915b5050505050905090565b6000610db382612f33565b506000828152600460205260409020546001600160a01b0316610d10565b610ddc828233612f6c565b5050565b6000806000806060610df186612f79565b610e165760405162461bcd60e51b8152600401610e0d90614729565b60405180910390fd5b6000868152601a60209081526040808320815160a081018352815460ff80821615158352610100820481161515958301959095526201000081048516151593820193909352630100000090920490921615156060820152600182018054919291608084019190610e85906146ef565b80601f0160208091040260200160405190810160405280929190818152602001828054610eb1906146ef565b8015610efe5780601f10610ed357610100808354040283529160200191610efe565b820191906000526020600020905b815481529060010190602001808311610ee157829003601f168201915b5050509190925250508151602083015160408401516060850151608090950151929c919b5099509297509550909350505050565b60126020528160005260406000208181548110610f4e57600080fd5b906000526020600020906004020160009150915050806000018054610f72906146ef565b80601f0160208091040260200160405190810160405280929190818152602001828054610f9e906146ef565b8015610feb5780601f10610fc057610100808354040283529160200191610feb565b820191906000526020600020905b815481529060010190602001808311610fce57829003601f168201915b50505050600183015460039093015491929160ff16905083565b3361100f83611ad6565b6001600160a01b0316146110355760405162461bcd60e51b8152600401610e0d90614757565b600081116110855760405162461bcd60e51b815260206004820152601c60248201527f5072696365206d7573742062652067726561746572207468616e2030000000006044820152606401610e0d565b60008281526019602052604090205460ff166110ed5760405162461bcd60e51b815260206004820152602160248201527f50726f7065727479206e6f7420617070726f76656420666f72206c697374696e6044820152606760f81b6064820152608401610e0d565b6040805180820182528281526001602080830182815260008781526015835285812094518555905193909201805460ff19169315159390931790925591518381523392918591600080516020614cd8833981519152910160405180910390a45050565b60606000606060008061116286612f79565b61117e5760405162461bcd60e51b8152600401610e0d9061477e565b6000868152601060205260408082208151606081019092528054829082906111a5906146ef565b80601f01602080910402602001604051908101604052809291908181526020018280546111d1906146ef565b801561121e5780601f106111f35761010080835404028352916020019161121e565b820191906000526020600020905b81548152906001019060200180831161120157829003601f168201915b5050505050815260200160018201548152602001600282018054611241906146ef565b80601f016020809104026020016040519081016040528092919081815260200182805461126d906146ef565b80156112ba5780601f1061128f576101008083540402835291602001916112ba565b820191906000526020600020905b81548152906001019060200180831161129d57829003601f168201915b505050919092525050506000978852601560209081526040988990208951808b018b52815480825260019092015460ff16151590830181905283519284015193909a0151919a92999198509650945092505050565b600061131a60085490565b905090565b60008061132b83612f79565b6113475760405162461bcd60e51b8152600401610e0d90614729565b50506000908152601b6020908152604091829020825180840190935280548084526001909101549290910182905291565b6001600160a01b0382166113a2576000604051633250574960e11b8152600401610e0d9190613ef4565b60006113af838333612ff1565b9050836001600160a01b0316816001600160a01b0316146113e9578382826040516364283d7b60e01b8152600401610e0d939291906147af565b50505050565b33600090815260166020526040902054806114435760405162461bcd60e51b81526020600482015260146024820152734e6f2066756e647320746f20776974686472617760601b6044820152606401610e0d565b336000818152601660205260408082208290555190919083908381818185875af1925050503d8060008114611494576040519150601f19603f3d011682016040523d82523d6000602084013e611499565b606091505b50509050806114de5760405162461bcd60e51b815260206004820152601160248201527015da5d1a191c985dd85b0819985a5b1959607a1b6044820152606401610e0d565b60405182815233907feaff4b37086828766ad3268786972c0cd24259d4c87a80f9d3963a3c3d999b0d9060200160405180910390a25050565b600080516020614cf883398151915261152f81613006565b61153882612f79565b6115545760405162461bcd60e51b8152600401610e0d90614729565b60008281526019602052604090205460ff16156115af5760405162461bcd60e51b8152602060048201526019602482015278141c9bdc195c9d1e48185b1c9958591e48185c1c1c9bdd9959603a1b6044820152606401610e0d565b60005b601e5481101561165e5782601e82815481106115d0576115d06147d2565b90600052602060002001540361165657601e80546115f0906001906147fe565b81548110611600576116006147d2565b9060005260206000200154601e828154811061161e5761161e6147d2565b600091825260209091200155601e80548061163b5761163b614811565b6001900381819060005260206000200160009055905561165e565b6001016115b2565b506040518281527f2633babb73bc64ab969a0264c45b1cd034b86f5b1890c80ba6b1287f248df2a5906020015b60405180910390a15050565b6000828152600c60205260409020600101546116b281613006565b6113e98383613010565b60006116c783611d30565b82106116ea57828260405163295f44f760e21b8152600401610e0d929190614827565b506001600160a01b03919091166000908152600660209081526040808320938352929052205490565b6001600160a01b038116331461173c5760405163334bd91960e11b815260040160405180910390fd5b61174682826130a4565b505050565b3361175583611ad6565b6001600160a01b03161461177b5760405162461bcd60e51b8152600401610e0d90614757565b60005b8151811015611746576000838152601c6020526040902082518390839081106117a9576117a96147d2565b602090810291909101810151825460018101845560009384529190922001906117d29082614887565b5060010161177e565b6117468383836040518060200160405280600081525061247e565b600080516020614cf883398151915261180e81613006565b61181782612f79565b6118335760405162461bcd60e51b8152600401610e0d90614729565b600061183e83611ad6565b905061184983613111565b6000838152601060205260408120906118628282613d9e565b600182016000905560028201600061187a9190613d9e565b5050600083815260116020526040812061189391613dd8565b604080518481526001600160a01b03831660208201527fe77c96a189c15cc0243036dd4a66afc85812c211f03952cbdab2ae655458a2cc91015b60405180910390a1505050565b6118e384612f79565b156119275760405162461bcd60e51b8152602060048201526014602482015273546f6b656e20616c72656164792065786973747360601b6044820152606401610e0d565b604080516060810182528481526000602080830182905282840186905287825260109052919091208151819061195d9082614887565b50602082015160018201556040820151600282019061197c9082614887565b5050506000848152601560205260409020818155600101805460ff191690556119a5338561314c565b60008481526017602090815260408083208054600181810183559185528385200180546001600160a01b031916339081179091558885526019909352818420805460ff19169055601e8054918201815584527f50bb669a95c7b50b7e8a6f09454034b2b14cf2b85c730dca9a539ca82cb6e3500187905551909186917fbb34aa4710e9aece41642e442b49b5b8aff84ba0def93849797c2f15398aab239190a3604080518581523360208201527f08ccc4f6515567943c8615d831f8a05b9042cd95150c2799b83ccd0041bf4eab910160405180910390a150505050565b6000611a8d61130f565b8210611ab15760008260405163295f44f760e21b8152600401610e0d929190614827565b60088281548110611ac457611ac46147d2565b90600052602060002001549050919050565b6000610d1082612f33565b6000818152601560209081526040808320815180830183528154815260019091015460ff908116151582850152858552601990935292205416611b665760405162461bcd60e51b815260206004820152601e60248201527f50726f7065727479206e6f7420617070726f76656420666f722073616c6500006044820152606401610e0d565b805134811115611bb05760405162461bcd60e51b8152602060048201526015602482015274125b9cdd59999a58da595b9d08115512081cd95b9d605a1b6044820152606401610e0d565b6000611bbb84611ad6565b9050336001600160a01b03821603611c155760405162461bcd60e51b815260206004820181905260248201527f596f752063616e6e6f742062757920796f7572206f776e2070726f70657274796044820152606401610e0d565b6001600160a01b03811660009081526016602052604081208054349290611c3d908490614945565b90915550611c4e90508133866131b1565b60008481526017602090815260408083208054600181810183559185528385200180546001600160a01b031916331790558784526015835281842001805460ff19169055601b9091529020611ca3903461324d565b604080516001600160a01b038316815233602082015290810183905284907fddd64180d9701c7ede08673ac8106484ff983a472929330d4fbde4e35d65cb069060600160405180910390a2806001600160a01b0316336001600160a01b031685600080516020614cd883398151915285604051611d2291815260200190565b60405180910390a450505050565b60006001600160a01b038216611d5c5760006040516322718ad960e21b8152600401610e0d9190613ef4565b506001600160a01b031660009081526003602052604090205490565b611d80613275565b611d8a60006132a2565b565b601e8181548110611d9c57600080fd5b600091825260209091200154905081565b33611db782611ad6565b6001600160a01b031614611ddd5760405162461bcd60e51b8152600401610e0d90614757565b600081815260156020526040902060019081015460ff16151514611e3c5760405162461bcd60e51b8152602060048201526016602482015275141c9bdc195c9d1e481a5cc81b9bdd081b1a5cdd195960521b6044820152606401610e0d565b6000818152601560209081526040808320600101805460ff191690555182815233918491600080516020614cd8833981519152910160405180910390a450565b601c6020528160005260406000208181548110611e9857600080fd5b90600052602060002001600091509150508054611eb4906146ef565b80601f0160208091040260200160405190810160405280929190818152602001828054611ee0906146ef565b8015611f2d5780601f10611f0257610100808354040283529160200191611f2d565b820191906000526020600020905b815481529060010190602001808311611f1057829003601f168201915b505050505081565b600080516020614cf8833981519152611f4d81613006565b611f5685612f79565b611f725760405162461bcd60e51b8152600401610e0d90614729565b611f7b85612e32565b611fc35760405162461bcd60e51b8152602060048201526019602482015278141c9bdc195c9d1e481a5cc81b9bdd0818dbdb5c1b1a585b9d603a1b6044820152606401610e0d565b600085815260116020526040908190209051630c23810b60e21b815260048101919091526001600160a01b038086166024830152841660448201526064810183905273__$e84ac854d2686c3c40e58b3bcf211e273d$__9063308e042c9060840160006040518083038186803b15801561203c57600080fd5b505af4158015612050573d6000803e3d6000fd5b5050506000868152601b6020526040902061206c91508361324d565b826001600160a01b0316846001600160a01b031686600080516020614cd8833981519152856040516120a091815260200190565b60405180910390a46040516001815285907f845b1469fb1b8105427a6018a5aa76462e7df7588d921f59d14ba852f39401ed9060200160405180910390a25050505050565b6000918252600c602090815260408084206001600160a01b0393909316845291905290205460ff1690565b606060018054610d25906146ef565b6000818152601360205260409081902090516368ebc66360e01b8152606091829173__$f14cd503fa291cdd9c477d4bbe12362bc7$__916368ebc6639161216c9190600f90600401614958565b600060405180830381865af4158015612189573d6000803e3d6000fd5b505050506040513d6000823e601f3d908101601f191682016040526121b19190810190614aad565b91509150915091565b610ddc3383836132f4565b60006121d082611ad6565b90506001600160a01b0383166122285760405162461bcd60e51b815260206004820152601f60248201527f43616e6e6f74207472616e7366657220746f207a65726f2061646472657373006044820152606401610e0d565b6001600160a01b03811633148061224f57503361224483610da8565b6001600160a01b0316145b8061225f575061225f81336129d3565b6122ab5760405162461bcd60e51b815260206004820152601a60248201527f4e6f7420617574686f72697a656420746f207472616e736665720000000000006044820152606401610e0d565b6122c68184846040518060200160405280600081525061338a565b600082815260176020526040902054158061232c5750600082815260176020526040902080546001600160a01b0383169190612304906001906147fe565b81548110612314576123146147d2565b6000918252602090912001546001600160a01b031614155b156123695760008281526017602090815260408220805460018101825590835291200180546001600160a01b0319166001600160a01b0383161790555b604080516001600160a01b0380841682528516602082015283917f2231fc8bc2c20e26d85d66dc7f13a6b6d535c86d2a4d678bb2de61f5b7136083910160405180910390a2505050565b600080516020614cf88339815191526123cb81613006565b6123d484612f79565b6123f05760405162461bcd60e51b8152600401610e0d90614729565b60008481526010602052604090206124088482614887565b5060008481526010602052604090206002016124248382614887565b50837f17a9083462089806177be1968fdca5cde9b900dc7d0a7b00a37ae9d620c68b6f8484604051612457929190614bbf565b60405180910390a250505050565b60146020526000908152604090208054611eb4906146ef565b612489848484611378565b6113e93385858585613395565b6060601e805480602002602001604051908101604052809291908181526020018280548015610d9e57602002820191906000526020600020905b8154815260200190600101908083116124d0575050505050905090565b336124f783611ad6565b6001600160a01b03161461255e5760405162461bcd60e51b815260206004820152602860248201527f4f6e6c792070726f7065727479206f776e65722063616e207570646174652074604482015267686520707269636560c01b6064820152608401610e0d565b60008281526015602052604090206001015460ff166125bf5760405162461bcd60e51b815260206004820181905260248201527f50726f7065727479206d757374206265206c697374656420666f722073616c656044820152606401610e0d565b60008281526015602090815260409182902083905581518481529081018390527ff73705cc3056ac9339b98dc8b7f9612e3851eb98f309b8bdff61cb3b0b34b9b4910161168b565b6060610d10826134ac565b6017602052816000526040600020818154811061262e57600080fd5b6000918252602090912001546001600160a01b03169150829050565b600080516020614cf883398151915261266281613006565b604051634050e03360e11b815273__$e84ac854d2686c3c40e58b3bcf211e273d$__906380a1c0669061269c90600f908690600401614bed565b60006040518083038186803b1580156126b457600080fd5b505af41580156126c8573d6000803e3d6000fd5b505050505050565b6000828152600c60205260409020600101546126eb81613006565b6113e983836130a4565b6060600061270283611d30565b90506000816001600160401b0381111561271e5761271e614018565b604051908082528060200260200182016040528015612747578160200160208202803683370190505b50905060005b828110156127845761275f85826116bc565b828281518110612771576127716147d2565b602090810291909101015260010161274d565b509392505050565b6060600061279861130f565b90506000816001600160401b038111156127b4576127b4614018565b6040519080825280602002602001820160405280156127dd578160200160208202803683370190505b50905060005b82811015612819576127f481611a83565b828281518110612806576128066147d2565b60209081029190910101526001016127e3565b5092915050565b600080516020614cf883398151915261283881613006565b61284187612f79565b61285d5760405162461bcd60e51b8152600401610e0d90614729565b6000878152601a602052604090206128799087878787876135b5565b50505050505050565b600f818154811061289257600080fd5b906000526020600020016000915090508054611eb4906146ef565b60006128b882612f79565b6128d45760405162461bcd60e51b8152600401610e0d9061477e565b5060009081526015602052604090205490565b6060601c6000838152602001908152602001600020805480602002602001604051908101604052809291908181526020016000905b828210156129c857838290600052602060002001805461293b906146ef565b80601f0160208091040260200160405190810160405280929190818152602001828054612967906146ef565b80156129b45780601f10612989576101008083540402835291602001916129b4565b820191906000526020600020905b81548152906001019060200180831161299757829003601f168201915b50505050508152602001906001019061291c565b505050509050919050565b6001600160a01b03918216600090815260056020908152604080832093909416825291909152205460ff1690565b600080516020614cf8833981519152612a1981613006565b612a2282612f79565b612a3e5760405162461bcd60e51b8152600401610e0d90614729565b60008281526019602052604090205460ff1615612a905760405162461bcd60e51b815260206004820152601060248201526f105b1c9958591e48185c1c1c9bdd995960821b6044820152606401610e0d565b6000828152601a60205260409020805460ff168015612ab557508054610100900460ff165b8015612ac85750805462010000900460ff165b8015612adc575080546301000000900460ff165b612b285760405162461bcd60e51b815260206004820152601f60248201527f50726f7065727479206973206e6f742066756c6c7920636f6d706c69616e74006044820152606401610e0d565b6000838152601960205260408120805460ff191660011790555b601e54811015612bee5783601e8281548110612b6057612b606147d2565b906000526020600020015403612be657601e8054612b80906001906147fe565b81548110612b9057612b906147d2565b9060005260206000200154601e8281548110612bae57612bae6147d2565b600091825260209091200155601e805480612bcb57612bcb614811565b60019003818190600052602060002001600090559055612bee565b600101612b42565b506040518381527feb0e71efd80096e9d126bdde717795886189ce0d8cb53d03dfec442e37b1d020906020016118cd565b6000828152601360205260408082209051429190612c3e908590614c06565b90815260200160405180910390205410905092915050565b600081815260176020908152604091829020805483518184028101840190945280845260609392830182828015612cb657602002820191906000526020600020905b81546001600160a01b03168152600190910190602001808311612c98575b50505050509050919050565b612cca613275565b6001600160a01b038116612cf4576000604051631e4fbdf760e01b8152600401610e0d9190613ef4565b612cfd816132a2565b50565b601060205260009081526040902080548190612d1b906146ef565b80601f0160208091040260200160405190810160405280929190818152602001828054612d47906146ef565b8015612d945780601f10612d6957610100808354040283529160200191612d94565b820191906000526020600020905b815481529060010190602001808311612d7757829003601f168201915b505050505090806001015490806002018054612daf906146ef565b80601f0160208091040260200160405190810160405280929190818152602001828054612ddb906146ef565b8015612e285780601f10612dfd57610100808354040283529160200191612e28565b820191906000526020600020905b815481529060010190602001808311612e0b57829003601f168201915b5050505050905083565b6000805b600f54811015612f0557612eef83600f8381548110612e5757612e576147d2565b906000526020600020018054612e6c906146ef565b80601f0160208091040260200160405190810160405280929190818152602001828054612e98906146ef565b8015612ee55780601f10612eba57610100808354040283529160200191612ee5565b820191906000526020600020905b815481529060010190602001808311612ec857829003601f168201915b5050505050612c1f565b15612efd5750600092915050565b600101612e36565b50600192915050565b60006001600160e01b03198216637965db0b60e01b1480610d105750610d10826135fe565b6000818152600260205260408120546001600160a01b031680610d1057604051637e27328960e01b815260048101849052602401610e0d565b6117468383836001613623565b6040516331a9108f60e11b8152600481018290526000903090636352211e90602401602060405180830381865afa925050508015612fd4575060408051601f3d908101601f19168201909252612fd191810190614c22565b60015b612fe057506000919050565b6001600160a01b0316151592915050565b6000612ffe848484613720565b949350505050565b612cfd81336137ed565b600061301c83836120e5565b61309c576000838152600c602090815260408083206001600160a01b03861684529091529020805460ff191660011790556130543390565b6001600160a01b0316826001600160a01b0316847f2f8788117e7eff1d82e926ec794901d17c78024a50270940304540a733656f0d60405160405180910390a4506001610d10565b506000610d10565b60006130b083836120e5565b1561309c576000838152600c602090815260408083206001600160a01b0386168085529252808320805460ff1916905551339286917ff6391f5c32d9c69d2a47ea670b442974b53935d1edc7fd64eb21e047a839171b9190a4506001610d10565b60006131206000836000612ff1565b90506001600160a01b038116610ddc57604051637e27328960e01b815260048101839052602401610e0d565b6001600160a01b038216613176576000604051633250574960e11b8152600401610e0d9190613ef4565b600061318483836000612ff1565b90506001600160a01b038116156117465760006040516339e3563760e11b8152600401610e0d9190613ef4565b6001600160a01b0382166131db576000604051633250574960e11b8152600401610e0d9190613ef4565b60006131e983836000612ff1565b90506001600160a01b03811661321557604051637e27328960e01b815260048101839052602401610e0d565b836001600160a01b0316816001600160a01b0316146113e9578382826040516364283d7b60e01b8152600401610e0d939291906147af565b815482600061325b83614c3f565b91905055508160010154811115610ddc5760019190910155565b600b546001600160a01b03163314611d8a573360405163118cdaa760e01b8152600401610e0d9190613ef4565b600b80546001600160a01b038381166001600160a01b0319831681179093556040519116919082907f8be0079c531659141344cd1fd0a4f28419497f9722a3daafe3b4186f6b6457e090600090a35050565b6001600160a01b03821661331d5781604051630b61174360e31b8152600401610e0d9190613ef4565b6001600160a01b03838116600081815260056020908152604080832094871680845294825291829020805460ff191686151590811790915591519182527f17307eab39ab6107e8899845ad3d59bd9653f200f220920489ca2b5937696c31910160405180910390a3505050565b6124898484846131b1565b6001600160a01b0383163b156134a557604051630a85bd0160e11b81526001600160a01b0384169063150b7a02906133d7908890889087908790600401614c58565b6020604051808303816000875af1925050508015613412575060408051601f3d908101601f1916820190925261340f91810190614c8b565b60015b613472573d808015613440576040519150601f19603f3d011682016040523d82523d6000602084013e613445565b606091505b50805160000361346a5783604051633250574960e11b8152600401610e0d9190613ef4565b805181602001fd5b6001600160e01b03198116630a85bd0160e11b146126c85783604051633250574960e11b8152600401610e0d9190613ef4565b5050505050565b60606134b782612f33565b506000828152600a6020526040812080546134d1906146ef565b80601f01602080910402602001604051908101604052809291908181526020018280546134fd906146ef565b801561354a5780601f1061351f5761010080835404028352916020019161354a565b820191906000526020600020905b81548152906001019060200180831161352d57829003601f168201915b50505050509050600061356860408051602081019091526000815290565b9050805160000361357a575092915050565b8151156135ac578082604051602001613594929190614ca8565b60405160208183030381529060405292505050919050565b612ffe84613818565b855461ffff191685151561ff00191617610100851515021763ffff00001916620100008415150263ff000000191617630100000083151502178655600186016128798282614887565b60006001600160e01b03198216632483248360e11b1480610d105750610d108261388d565b808061363757506001600160a01b03821615155b156136f057600061364784612f33565b90506001600160a01b038316158015906136735750826001600160a01b0316816001600160a01b031614155b8015613686575061368481846129d3565b155b156136a6578260405163a9fbf51f60e01b8152600401610e0d9190613ef4565b81156136ee5783856001600160a01b0316826001600160a01b03167f8c5be1e5ebec7d5bd14f71427d1e84f3dd0314c0f7b2291e5b200ac8c7c3b92560405160405180910390a45b505b5050600090815260046020526040902080546001600160a01b0319166001600160a01b0392909216919091179055565b60008061372e8585856138b2565b90506001600160a01b03811661378b5761378684600880546000838152600960205260408120829055600182018355919091527ff3f7a9fe364faab93b216da50a3214154f22a0a2b415b23a84c8169e8b636ee30155565b6137ae565b846001600160a01b0316816001600160a01b0316146137ae576137ae81856139ab565b6001600160a01b0385166137ca576137c584613a2c565b612ffe565b846001600160a01b0316816001600160a01b031614612ffe57612ffe8585613adb565b6137f782826120e5565b610ddc57808260405163e2517d3f60e01b8152600401610e0d929190614827565b606061382382612f33565b50600061383b60408051602081019091526000815290565b9050600081511161385b5760405180602001604052806000815250613886565b8061386584613b2b565b604051602001613876929190614ca8565b6040516020818303038152906040525b9392505050565b60006001600160e01b0319821663780e9d6360e01b1480610d105750610d1082613bbd565b6000828152600260205260408120546001600160a01b03908116908316156138df576138df818486613c0d565b6001600160a01b0381161561391d576138fc600085600080613623565b6001600160a01b038116600090815260036020526040902080546000190190555b6001600160a01b0385161561394c576001600160a01b0385166000908152600360205260409020805460010190555b60008481526002602052604080822080546001600160a01b0319166001600160a01b0389811691821790925591518793918516917fddf252ad1be2c89b69c2b068fc378daa952ba7f163c4a11628f55a4df523b3ef91a4949350505050565b60006139b683611d30565b6000838152600760209081526040808320546001600160a01b0388168452600690925290912091925090818314613a0d57600083815260208281526040808320548584528184208190558352600790915290208290555b6000938452600760209081526040808620869055938552525081205550565b600854600090613a3e906001906147fe565b60008381526009602052604081205460088054939450909284908110613a6657613a666147d2565b906000526020600020015490508060088381548110613a8757613a876147d2565b6000918252602080832090910192909255828152600990915260408082208490558582528120556008805480613abf57613abf614811565b6001900381819060005260206000200160009055905550505050565b60006001613ae884611d30565b613af291906147fe565b6001600160a01b039093166000908152600660209081526040808320868452825280832085905593825260079052919091209190915550565b60606000613b3883613c63565b60010190506000816001600160401b03811115613b5757613b57614018565b6040519080825280601f01601f191660200182016040528015613b81576020820181803683370190505b5090508181016020015b600019016f181899199a1a9b1b9c1cb0b131b232b360811b600a86061a8153600a8504945084613b8b57509392505050565b60006001600160e01b031982166380ac58cd60e01b1480613bee57506001600160e01b03198216635b5e139f60e01b145b80610d1057506301ffc9a760e01b6001600160e01b0319831614610d10565b613c18838383613d3b565b611746576001600160a01b038316613c4657604051637e27328960e01b815260048101829052602401610e0d565b818160405163177e802f60e01b8152600401610e0d929190614827565b60008072184f03e93ff9f4daa797ed6e38ed64bf6a1f0160401b8310613ca25772184f03e93ff9f4daa797ed6e38ed64bf6a1f0160401b830492506040015b6d04ee2d6d415b85acef81000000008310613cce576d04ee2d6d415b85acef8100000000830492506020015b662386f26fc100008310613cec57662386f26fc10000830492506010015b6305f5e1008310613d04576305f5e100830492506008015b6127108310613d1857612710830492506004015b60648310613d2a576064830492506002015b600a8310610d105760010192915050565b60006001600160a01b03831615801590612ffe5750826001600160a01b0316846001600160a01b03161480613d755750613d7584846129d3565b80612ffe5750506000908152600460205260409020546001600160a01b03908116911614919050565b508054613daa906146ef565b6000825580601f10613dba575050565b601f016020900490600052602060002090810190612cfd9190613df9565b5080546000825560030290600052602060002090810190612cfd9190613e12565b5b80821115613e0e5760008155600101613dfa565b5090565b5b80821115613e0e5780546001600160a01b03199081168255600182018054909116905560006002820155600301613e13565b6001600160e01b031981168114612cfd57600080fd5b600060208284031215613e6d57600080fd5b813561388681613e45565b60005b83811015613e93578181015183820152602001613e7b565b50506000910152565b60008151808452613eb4816020860160208601613e78565b601f01601f19169290920160200192915050565b6020815260006138866020830184613e9c565b600060208284031215613eed57600080fd5b5035919050565b6001600160a01b0391909116815260200190565b6001600160a01b0381168114612cfd57600080fd5b60008060408385031215613f3057600080fd5b8235613f3b81613f08565b946020939093013593505050565b851515815284151560208201528315156040820152821515606082015260a060808201526000613f7c60a0830184613e9c565b979650505050505050565b60008060408385031215613f9a57600080fd5b50508035926020909101359150565b606081526000613fbc6060830186613e9c565b602083019490945250901515604090910152919050565b60a081526000613fe660a0830188613e9c565b8660208401528281036040840152613ffe8187613e9c565b606084019590955250509015156080909101529392505050565b634e487b7160e01b600052604160045260246000fd5b604051601f8201601f191681016001600160401b038111828210171561405657614056614018565b604052919050565b60006001600160401b0382111561407757614077614018565b50601f01601f191660200190565b60006140986140938461405e565b61402e565b90508281528383830111156140ac57600080fd5b828260208301376000602084830101529392505050565b600082601f8301126140d457600080fd5b61388683833560208501614085565b600080604083850312156140f657600080fd5b8235915060208301356001600160401b0381111561411357600080fd5b61411f858286016140c3565b9150509250929050565b60008060006060848603121561413e57600080fd5b833561414981613f08565b9250602084013561415981613f08565b929592945050506040919091013590565b6000806040838503121561417d57600080fd5b82359150602083013561418f81613f08565b809150509250929050565b60006001600160401b038211156141b3576141b3614018565b5060051b60200190565b600080604083850312156141d057600080fd5b8235915060208301356001600160401b038111156141ed57600080fd5b8301601f810185136141fe57600080fd5b803561420c6140938261419a565b8082825260208201915060208360051b85010192508783111561422e57600080fd5b602084015b8381101561426f5780356001600160401b0381111561425157600080fd5b6142608a6020838901016140c3565b84525060209283019201614233565b50809450505050509250929050565b6000806000806080858703121561429457600080fd5b8435935060208501356001600160401b038111156142b157600080fd5b6142bd878288016140c3565b93505060408501356001600160401b038111156142d957600080fd5b6142e5878288016140c3565b949793965093946060013593505050565b60006020828403121561430857600080fd5b813561388681613f08565b6000806000806080858703121561432957600080fd5b84359350602085013561433b81613f08565b9250604085013561434b81613f08565b9396929550929360600135925050565b600082825180855260208501945060208160051b8301016020850160005b838110156143ab57601f19858403018852614395838351613e9c565b6020988901989093509190910190600101614379565b50909695505050505050565b6040815260006143ca604083018561435b565b828103602084015280845180835260208301915060208601925060005b818110156143ab57835115158352602093840193909201916001016143e7565b8015158114612cfd57600080fd5b6000806040838503121561442857600080fd5b823561443381613f08565b9150602083013561418f81614407565b60008060006060848603121561445857600080fd5b8335925060208401356001600160401b0381111561447557600080fd5b614481868287016140c3565b92505060408401356001600160401b0381111561449d57600080fd5b6144a9868287016140c3565b9150509250925092565b600080600080608085870312156144c957600080fd5b84356144d481613f08565b935060208501356144e481613f08565b92506040850135915060608501356001600160401b0381111561450657600080fd5b8501601f8101871361451757600080fd5b61452687823560208401614085565b91505092959194509250565b602080825282518282018190526000918401906040840190835b8181101561456a57835183526020938401939092019160010161454c565b509095945050505050565b60006020828403121561458757600080fd5b81356001600160401b0381111561459d57600080fd5b612ffe848285016140c3565b60008060008060008060c087890312156145c257600080fd5b8635955060208701356145d481614407565b945060408701356145e481614407565b935060608701356145f481614407565b9250608087013561460481614407565b915060a08701356001600160401b0381111561461f57600080fd5b61462b89828a016140c3565b9150509295509295509295565b602081526000613886602083018461435b565b6000806040838503121561465e57600080fd5b823561466981613f08565b9150602083013561418f81613f08565b602080825282518282018190526000918401906040840190835b8181101561456a5783516001600160a01b0316835260209384019390920191600101614693565b6060815260006146cd6060830186613e9c565b84602084015282810360408401526146e58185613e9c565b9695505050505050565b600181811c9082168061470357607f821691505b60208210810361472357634e487b7160e01b600052602260045260246000fd5b50919050565b602080825260149082015273151bdad95b88191bd95cc81b9bdd08195e1a5cdd60621b604082015260600190565b6020808252600d908201526c2737ba103a34329037bbb732b960991b604082015260600190565b602080825260179082015276141c9bdc195c9d1e48191bd95cc81b9bdd08195e1a5cdd604a1b604082015260600190565b6001600160a01b0393841681526020810192909252909116604082015260600190565b634e487b7160e01b600052603260045260246000fd5b634e487b7160e01b600052601160045260246000fd5b81810381811115610d1057610d106147e8565b634e487b7160e01b600052603160045260246000fd5b6001600160a01b03929092168252602082015260400190565b601f82111561174657806000526020600020601f840160051c810160208510156148675750805b601f840160051c820191505b818110156134a55760008155600101614873565b81516001600160401b038111156148a0576148a0614018565b6148b4816148ae84546146ef565b84614840565b6020601f8211600181146148e857600083156148d05750848201515b600019600385901b1c1916600184901b1784556134a5565b600084815260208120601f198516915b8281101561491857878501518255602094850194600190920191016148f8565b50848210156149365786840151600019600387901b60f8161c191681555b50505050600190811b01905550565b80820180821115610d1057610d106147e8565b6000604082018483526040602084015280845480835260608501915060608160051b860101925085600052602060002060005b82811015614a2f57605f19878603018452600082546149a9816146ef565b8088526001821680156149c357600181146149df57614a16565b60ff19831660208a0152602082151560051b8a01019350614a16565b85600052602060002060005b83811015614a0d5781546020828d0101526001820191506020810190506149eb565b8a016020019450505b509196505050602093909301926001918201910161498b565b5092979650505050505050565b600082601f830112614a4d57600080fd5b8151614a5b6140938261419a565b8082825260208201915060208360051b860101925085831115614a7d57600080fd5b602085015b83811015614aa3578051614a9581614407565b835260209283019201614a82565b5095945050505050565b60008060408385031215614ac057600080fd5b82516001600160401b03811115614ad657600080fd5b8301601f81018513614ae757600080fd5b8051614af56140938261419a565b8082825260208201915060208360051b850101925087831115614b1757600080fd5b602084015b83811015614b925780516001600160401b03811115614b3a57600080fd5b8501603f81018a13614b4b57600080fd5b6020810151614b5c6140938261405e565b8181526040838301018c1015614b7157600080fd5b614b82826020830160408601613e78565b8552505060209283019201614b1c565b508095505050505060208301516001600160401b03811115614bb357600080fd5b61411f85828601614a3c565b604081526000614bd26040830185613e9c565b8281036020840152614be48185613e9c565b95945050505050565b828152604060208201526000612ffe6040830184613e9c565b60008251614c18818460208701613e78565b9190910192915050565b600060208284031215614c3457600080fd5b815161388681613f08565b600060018201614c5157614c516147e8565b5060010190565b6001600160a01b03858116825284166020820152604081018390526080606082018190526000906146e590830184613e9c565b600060208284031215614c9d57600080fd5b815161388681613e45565b60008351614cba818460208801613e78565b835190830190614cce818360208801613e78565b0194935050505056fec54c700778835309ac50ffe6b188a02742f8498496eebf1de46c0bf63682ea5ea49807205ce4d355092ef5a8a18f56e8913cf4a201fbe287825b095693c21775a26469706673582212209a4d988893a822f888dee90305afcc65d8989a9d5fc999516a1c8a25410ad29564736f6c634300081b00338d1108e10bcb7c27dddfc02ed9d693a074039d026cf4ea4240b40f7d581ac802",
  "linkReferences": {
    "contracts/CreateLibrary.sol": {
      "CreateLibrary": [
        {
          "length": 20,
          "start": 9258
        },
        {
          "length": 20,
          "start": 10900
        }
      ]
    },
    "contracts/GetterLibrary.sol": {
      "GetterLibrary": [
        {
          "length": 20,
          "start": 9573
        }
      ]
    }
  },
  "deployedLinkReferences": {
    "contracts/CreateLibrary.sol": {
      "CreateLibrary": [
        {
          "length": 20,
          "start": 8199
        },
        {
          "length": 20,
          "start": 9841
        }
      ]
    },
    "contracts/GetterLibrary.sol": {
      "GetterLibrary": [
        {
          "length": 20,
          "start": 8514
        }
      ]
    }
  }
}