{"abi":[{"type":"constructor","inputs":[{"name":"_totalSupply","type":"uint256","internalType":"uint256"},{"name":"_feeBps","type":"uint16","internalType":"uint16"}],"stateMutability":"nonpayable"},{"type":"function","name":"allowance","inputs":[{"name":"","type":"address","internalType":"address"},{"name":"","type":"address","internalType":"address"}],"outputs":[{"name":"","type":"uint256","internalType":"uint256"}],"stateMutability":"view"},{"type":"function","name":"approve","inputs":[{"name":"spender","type":"address","internalType":"address"},{"name":"value","type":"uint256","internalType":"uint256"}],"outputs":[{"name":"","type":"bool","internalType":"bool"}],"stateMutability":"nonpayable"},{"type":"function","name":"balanceOf","inputs":[{"name":"","type":"address","internalType":"address"}],"outputs":[{"name":"","type":"uint256","internalType":"uint256"}],"stateMutability":"view"},{"type":"function","name":"decimals","inputs":[],"outputs":[{"name":"","type":"uint8","internalType":"uint8"}],"stateMutability":"view"},{"type":"function","name":"feeBps","inputs":[],"outputs":[{"name":"","type":"uint16","internalType":"uint16"}],"stateMutability":"view"},{"type":"function","name":"name","inputs":[],"outputs":[{"name":"","type":"string","internalType":"string"}],"stateMutability":"view"},{"type":"function","name":"symbol","inputs":[],"outputs":[{"name":"","type":"string","internalType":"string"}],"stateMutability":"view"},{"type":"function","name":"totalSupply","inputs":[],"outputs":[{"name":"","type":"uint256","internalType":"uint256"}],"stateMutability":"view"},{"type":"function","name":"transfer","inputs":[{"name":"to","type":"address","internalType":"address"},{"name":"value","type":"uint256","internalType":"uint256"}],"outputs":[{"name":"","type":"bool","internalType":"bool"}],"stateMutability":"nonpayable"},{"type":"function","name":"transferFrom","inputs":[{"name":"from","type":"address","internalType":"address"},{"name":"to","type":"address","internalType":"address"},{"name":"value","type":"uint256","internalType":"uint256"}],"outputs":[{"name":"","type":"bool","internalType":"bool"}],"stateMutability":"nonpayable"},{"type":"event","name":"Approval","inputs":[{"name":"owner","type":"address","indexed":true,"internalType":"address"},{"name":"spender","type":"address","indexed":true,"internalType":"address"},{"name":"value","type":"uint256","indexed":false,"internalType":"uint256"}],"anonymous":false},{"type":"event","name":"Transfer","inputs":[{"name":"from","type":"address","indexed":true,"internalType":"address"},{"name":"to","type":"address","indexed":true,"internalType":"address"},{"name":"value","type":"uint256","indexed":false,"internalType":"uint256"}],"anonymous":false}],"bytecode":{"object":"0x60a060405234801561000f575f5ffd5b50604051610fda380380610fda833981810160405281019061003191906101ac565b6127108161ffff16111561007a576040517f08c379a000000000000000000000000000000000000000000000000000000000815260040161007190610244565b60405180910390fd5b8061ffff1660808161ffff1681525050815f819055508160015f3373ffffffffffffffffffffffffffffffffffffffff1673ffffffffffffffffffffffffffffffffffffffff1681526020019081526020015f20819055503373ffffffffffffffffffffffffffffffffffffffff165f73ffffffffffffffffffffffffffffffffffffffff167fddf252ad1be2c89b69c2b068fc378daa952ba7f163c4a11628f55a4df523b3ef8460405161012f9190610271565b60405180910390a3505061028a565b5f5ffd5b5f819050919050565b61015481610142565b811461015e575f5ffd5b50565b5f8151905061016f8161014b565b92915050565b5f61ffff82169050919050565b61018b81610175565b8114610195575f5ffd5b50565b5f815190506101a681610182565b92915050565b5f5f604083850312156101c2576101c161013e565b5b5f6101cf85828601610161565b92505060206101e085828601610198565b9150509250929050565b5f82825260208201905092915050565b7f66656520746f6f206869676800000000000000000000000000000000000000005f82015250565b5f61022e600c836101ea565b9150610239826101fa565b602082019050919050565b5f6020820190508181035f83015261025b81610222565b9050919050565b61026b81610142565b82525050565b5f6020820190506102845f830184610262565b92915050565b608051610d316102a95f395f818161050e015261063f0152610d315ff3fe608060405234801561000f575f5ffd5b506004361061009c575f3560e01c8063313ce56711610064578063313ce5671461015a57806370a082311461017857806395d89b41146101a8578063a9059cbb146101c6578063dd62ed3e146101f65761009c565b806306fdde03146100a0578063095ea7b3146100be57806318160ddd146100ee57806323b872dd1461010c57806324a9d8531461013c575b5f5ffd5b6100a8610226565b6040516100b5919061088e565b60405180910390f35b6100d860048036038101906100d3919061093f565b61025f565b6040516100e59190610997565b60405180910390f35b6100f661034c565b60405161010391906109bf565b60405180910390f35b610126600480360381019061012191906109d8565b610351565b6040516101339190610997565b60405180910390f35b61014461050c565b6040516101519190610a44565b60405180910390f35b610162610530565b60405161016f9190610a78565b60405180910390f35b610192600480360381019061018d9190610a91565b610535565b60405161019f91906109bf565b60405180910390f35b6101b061054a565b6040516101bd919061088e565b60405180910390f35b6101e060048036038101906101db919061093f565b610583565b6040516101ed9190610997565b60405180910390f35b610210600480360381019061020b9190610abc565b610599565b60405161021d91906109bf565b60405180910390f35b6040518060400160405280600981526020017f46656520546f6b656e000000000000000000000000000000000000000000000081525081565b5f8160025f3373ffffffffffffffffffffffffffffffffffffffff1673ffffffffffffffffffffffffffffffffffffffff1681526020019081526020015f205f8573ffffffffffffffffffffffffffffffffffffffff1673ffffffffffffffffffffffffffffffffffffffff1681526020019081526020015f20819055508273ffffffffffffffffffffffffffffffffffffffff163373ffffffffffffffffffffffffffffffffffffffff167f8c5be1e5ebec7d5bd14f71427d1e84f3dd0314c0f7b2291e5b200ac8c7c3b9258460405161033a91906109bf565b60405180910390a36001905092915050565b5f5481565b5f3373ffffffffffffffffffffffffffffffffffffffff168473ffffffffffffffffffffffffffffffffffffffff16146104f6575f60025f8673ffffffffffffffffffffffffffffffffffffffff1673ffffffffffffffffffffffffffffffffffffffff1681526020019081526020015f205f3373ffffffffffffffffffffffffffffffffffffffff1673ffffffffffffffffffffffffffffffffffffffff1681526020019081526020015f205490507fffffffffffffffffffffffffffffffffffffffffffffffffffffffffffffffff81146104f4578281101561046b576040517f08c379a000000000000000000000000000000000000000000000000000000000815260040161046290610b44565b60405180910390fd5b82816104779190610b8f565b60025f8773ffffffffffffffffffffffffffffffffffffffff1673ffffffffffffffffffffffffffffffffffffffff1681526020019081526020015f205f3373ffffffffffffffffffffffffffffffffffffffff1673ffffffffffffffffffffffffffffffffffffffff1681526020019081526020015f20819055505b505b6105018484846105b9565b600190509392505050565b7f000000000000000000000000000000000000000000000000000000000000000081565b601281565b6001602052805f5260405f205f915090505481565b6040518060400160405280600381526020017f464545000000000000000000000000000000000000000000000000000000000081525081565b5f61058f3384846105b9565b6001905092915050565b6002602052815f5260405f20602052805f5260405f205f91509150505481565b8060015f8573ffffffffffffffffffffffffffffffffffffffff1673ffffffffffffffffffffffffffffffffffffffff1681526020019081526020015f20541015610639576040517f08c379a000000000000000000000000000000000000000000000000000000000815260040161063090610c0c565b60405180910390fd5b5f6127107f000000000000000000000000000000000000000000000000000000000000000061ffff168361066d9190610c2a565b6106779190610c98565b90505f81836106869190610b8f565b90508260015f8773ffffffffffffffffffffffffffffffffffffffff1673ffffffffffffffffffffffffffffffffffffffff1681526020019081526020015f205f8282546106d49190610b8f565b925050819055508060015f8673ffffffffffffffffffffffffffffffffffffffff1673ffffffffffffffffffffffffffffffffffffffff1681526020019081526020015f205f8282546107279190610cc8565b925050819055505f82146107b257815f5f8282546107459190610b8f565b925050819055505f73ffffffffffffffffffffffffffffffffffffffff168573ffffffffffffffffffffffffffffffffffffffff167fddf252ad1be2c89b69c2b068fc378daa952ba7f163c4a11628f55a4df523b3ef846040516107a991906109bf565b60405180910390a35b8373ffffffffffffffffffffffffffffffffffffffff168573ffffffffffffffffffffffffffffffffffffffff167fddf252ad1be2c89b69c2b068fc378daa952ba7f163c4a11628f55a4df523b3ef8360405161080f91906109bf565b60405180910390a35050505050565b5f81519050919050565b5f82825260208201905092915050565b8281835e5f83830152505050565b5f601f19601f8301169050919050565b5f6108608261081e565b61086a8185610828565b935061087a818560208601610838565b61088381610846565b840191505092915050565b5f6020820190508181035f8301526108a68184610856565b905092915050565b5f5ffd5b5f73ffffffffffffffffffffffffffffffffffffffff82169050919050565b5f6108db826108b2565b9050919050565b6108eb816108d1565b81146108f5575f5ffd5b50565b5f81359050610906816108e2565b92915050565b5f819050919050565b61091e8161090c565b8114610928575f5ffd5b50565b5f8135905061093981610915565b92915050565b5f5f60408385031215610955576109546108ae565b5b5f610962858286016108f8565b92505060206109738582860161092b565b9150509250929050565b5f8115159050919050565b6109918161097d565b82525050565b5f6020820190506109aa5f830184610988565b92915050565b6109b98161090c565b82525050565b5f6020820190506109d25f8301846109b0565b92915050565b5f5f5f606084860312156109ef576109ee6108ae565b5b5f6109fc868287016108f8565b9350506020610a0d868287016108f8565b9250506040610a1e8682870161092b565b9150509250925092565b5f61ffff82169050919050565b610a3e81610a28565b82525050565b5f602082019050610a575f830184610a35565b92915050565b5f60ff82169050919050565b610a7281610a5d565b82525050565b5f602082019050610a8b5f830184610a69565b92915050565b5f60208284031215610aa657610aa56108ae565b5b5f610ab3848285016108f8565b91505092915050565b5f5f60408385031215610ad257610ad16108ae565b5b5f610adf858286016108f8565b9250506020610af0858286016108f8565b9150509250929050565b7f696e73756666696369656e742d616c6c6f77616e6365000000000000000000005f82015250565b5f610b2e601683610828565b9150610b3982610afa565b602082019050919050565b5f6020820190508181035f830152610b5b81610b22565b9050919050565b7f4e487b71000000000000000000000000000000000000000000000000000000005f52601160045260245ffd5b5f610b998261090c565b9150610ba48361090c565b9250828203905081811115610bbc57610bbb610b62565b5b92915050565b7f696e73756666696369656e742d62616c616e63650000000000000000000000005f82015250565b5f610bf6601483610828565b9150610c0182610bc2565b602082019050919050565b5f6020820190508181035f830152610c2381610bea565b9050919050565b5f610c348261090c565b9150610c3f8361090c565b9250828202610c4d8161090c565b91508282048414831517610c6457610c63610b62565b5b5092915050565b7f4e487b71000000000000000000000000000000000000000000000000000000005f52601260045260245ffd5b5f610ca28261090c565b9150610cad8361090c565b925082610cbd57610cbc610c6b565b5b828204905092915050565b5f610cd28261090c565b9150610cdd8361090c565b9250828201905080821115610cf557610cf4610b62565b5b9291505056fea2646970667358221220ff65a4a9c216736826bac2ba40f14e0a5700933d52a63d83ea48d5c85977a95264736f6c634300081c0033","linkReferences":{}},"methodIdentifiers":{"allowance(address,address)":"dd62ed3e","approve(address,uint256)":"095ea7b3","balanceOf(address)":"70a08231","decimals()":"313ce567","feeBps()":"24a9d853","name()":"06fdde03","symbol()":"95d89b41","totalSupply()":"18160ddd","transfer(address,uint256)":"a9059cbb","transferFrom(address,address,uint256)":"23b872dd"},"id":2}