{"abi":[{"type":"function","name":"allowance","inputs":[{"name":"","type":"address","internalType":"address"},{"name":"","type":"address","internalType":"address"}],"outputs":[{"name":"","type":"uint256","internalType":"uint256"}],"stateMutability":"view"},{"type":"function","name":"approve","inputs":[{"name":"spender","type":"address","internalType":"address"},{"name":"value","type":"uint256","internalType":"uint256"}],"outputs":[{"name":"","type":"bool","internalType":"bool"}],"stateMutability":"nonpayable"},{"type":"function","name":"balanceOf","inputs":[{"name":"","type":"address","internalType":"address"}],"outputs":[{"name":"","type":"uint256","internalType":"uint256"}],"stateMutability":"view"},{"type":"function","name":"decimals","inputs":[],"outputs":[{"name":"","type":"uint8","internalType":"uint8"}],"stateMutability":"view"},{"type":"function","name":"initialize","inputs":[{"name":"_supply","type":"uint256","internalType":"uint256"},{"name":"to","type":"address","internalType":"address"}],"outputs":[],"stateMutability":"nonpayable"},{"type":"function","name":"name","inputs":[],"outputs":[{"name":"","type":"string","internalType":"string"}],"stateMutability":"view"},{"type":"function","name":"symbol","inputs":[],"outputs":[{"name":"","type":"string","internalType":"string"}],"stateMutability":"view"},{"type":"function","name":"totalSupply","inputs":[],"outputs":[{"name":"","type":"uint256","internalType":"uint256"}],"stateMutability":"view"},{"type":"function","name":"transfer","inputs":[{"name":"to","type":"address","internalType":"address"},{"name":"value","type":"uint256","internalType":"uint256"}],"outputs":[{"name":"","type":"bool","internalType":"bool"}],"stateMutability":"nonpayable"},{"type":"function","name":"transferFrom","inputs":[{"name":"from","type":"address","internalType":"address"},{"name":"to","type":"address","internalType":"address"},{"name":"value","type":"uint256","internalType":"uint256"}],"outputs":[{"name":"","type":"bool","internalType":"bool"}],"stateMutability":"nonpayable"},{"type":"event","name":"Approval","inputs":[{"name":"owner","type":"address","indexed":true,"internalType":"address"},{"name":"spender","type":"address","indexed":true,"internalType":"address"},{"name":"value","type":"uint256","indexed":false,"internalType":"uint256"}],"anonymous":false},{"type":"event","name":"Transfer","inputs":[{"name":"from","type":"address","indexed":true,"internalType":"address"},{"name":"to","type":"address","indexed":true,"internalType":"address"},{"name":"value","type":"uint256","indexed":false,"internalType":"uint256"}],"anonymous":false}],"bytecode":{"object":"0x6080604052348015600e575f5ffd5b50610d008061001c5f395ff3fe608060405234801561000f575f5ffd5b506004361061009c575f3560e01c806370a082311161006457806370a082311461015a57806395d89b411461018a578063a9059cbb146101a8578063da35a26f146101d8578063dd62ed3e146101f45761009c565b806306fdde03146100a0578063095ea7b3146100be57806318160ddd146100ee57806323b872dd1461010c578063313ce5671461013c575b5f5ffd5b6100a8610224565b6040516100b5919061088a565b60405180910390f35b6100d860048036038101906100d3919061093b565b61025d565b6040516100e59190610993565b60405180910390f35b6100f661034a565b60405161010391906109bb565b60405180910390f35b610126600480360381019061012191906109d4565b61034f565b6040516101339190610993565b60405180910390f35b610144610508565b6040516101519190610a3f565b60405180910390f35b610174600480360381019061016f9190610a58565b61050d565b60405161018191906109bb565b60405180910390f35b610192610522565b60405161019f919061088a565b60405180910390f35b6101c260048036038101906101bd919061093b565b61055b565b6040516101cf9190610993565b60405180910390f35b6101f260048036038101906101ed9190610a83565b61056f565b005b61020e60048036038101906102099190610ac1565b610663565b60405161021b91906109bb565b60405180910390f35b6040518060400160405280601081526020017f55706772616461626c6520546f6b656e0000000000000000000000000000000081525081565b5f8160025f3373ffffffffffffffffffffffffffffffffffffffff1673ffffffffffffffffffffffffffffffffffffffff1681526020019081526020015f205f8573ffffffffffffffffffffffffffffffffffffffff1673ffffffffffffffffffffffffffffffffffffffff1681526020019081526020015f20819055508273ffffffffffffffffffffffffffffffffffffffff163373ffffffffffffffffffffffffffffffffffffffff167f8c5be1e5ebec7d5bd14f71427d1e84f3dd0314c0f7b2291e5b200ac8c7c3b9258460405161033891906109bb565b60405180910390a36001905092915050565b5f5481565b5f3373ffffffffffffffffffffffffffffffffffffffff168473ffffffffffffffffffffffffffffffffffffffff16146104f4575f60025f8673ffffffffffffffffffffffffffffffffffffffff1673ffffffffffffffffffffffffffffffffffffffff1681526020019081526020015f205f3373ffffffffffffffffffffffffffffffffffffffff1673ffffffffffffffffffffffffffffffffffffffff1681526020019081526020015f205490507fffffffffffffffffffffffffffffffffffffffffffffffffffffffffffffffff81146104f25782811015610469576040517f08c379a000000000000000000000000000000000000000000000000000000000815260040161046090610b49565b60405180910390fd5b82816104759190610b94565b60025f8773ffffffffffffffffffffffffffffffffffffffff1673ffffffffffffffffffffffffffffffffffffffff1681526020019081526020015f205f3373ffffffffffffffffffffffffffffffffffffffff1673ffffffffffffffffffffffffffffffffffffffff1681526020019081526020015f20819055505b505b6104ff848484610683565b90509392505050565b601281565b6001602052805f5260405f205f915090505481565b6040518060400160405280600381526020017f555047000000000000000000000000000000000000000000000000000000000081525081565b5f610567338484610683565b905092915050565b5f5f54146105b2576040517f08c379a00000000000000000000000000000000000000000000000000000000081526004016105a990610c11565b60405180910390fd5b815f819055508160015f8373ffffffffffffffffffffffffffffffffffffffff1673ffffffffffffffffffffffffffffffffffffffff1681526020019081526020015f20819055508073ffffffffffffffffffffffffffffffffffffffff165f73ffffffffffffffffffffffffffffffffffffffff167fddf252ad1be2c89b69c2b068fc378daa952ba7f163c4a11628f55a4df523b3ef8460405161065791906109bb565b60405180910390a35050565b6002602052815f5260405f20602052805f5260405f205f91509150505481565b5f8160015f8673ffffffffffffffffffffffffffffffffffffffff1673ffffffffffffffffffffffffffffffffffffffff1681526020019081526020015f20541015610704576040517f08c379a00000000000000000000000000000000000000000000000000000000081526004016106fb90610c79565b60405180910390fd5b8160015f8673ffffffffffffffffffffffffffffffffffffffff1673ffffffffffffffffffffffffffffffffffffffff1681526020019081526020015f205f8282546107509190610b94565b925050819055508160015f8573ffffffffffffffffffffffffffffffffffffffff1673ffffffffffffffffffffffffffffffffffffffff1681526020019081526020015f205f8282546107a39190610c97565b925050819055508273ffffffffffffffffffffffffffffffffffffffff168473ffffffffffffffffffffffffffffffffffffffff167fddf252ad1be2c89b69c2b068fc378daa952ba7f163c4a11628f55a4df523b3ef8460405161080791906109bb565b60405180910390a3600190509392505050565b5f81519050919050565b5f82825260208201905092915050565b8281835e5f83830152505050565b5f601f19601f8301169050919050565b5f61085c8261081a565b6108668185610824565b9350610876818560208601610834565b61087f81610842565b840191505092915050565b5f6020820190508181035f8301526108a28184610852565b905092915050565b5f5ffd5b5f73ffffffffffffffffffffffffffffffffffffffff82169050919050565b5f6108d7826108ae565b9050919050565b6108e7816108cd565b81146108f1575f5ffd5b50565b5f81359050610902816108de565b92915050565b5f819050919050565b61091a81610908565b8114610924575f5ffd5b50565b5f8135905061093581610911565b92915050565b5f5f60408385031215610951576109506108aa565b5b5f61095e858286016108f4565b925050602061096f85828601610927565b9150509250929050565b5f8115159050919050565b61098d81610979565b82525050565b5f6020820190506109a65f830184610984565b92915050565b6109b581610908565b82525050565b5f6020820190506109ce5f8301846109ac565b92915050565b5f5f5f606084860312156109eb576109ea6108aa565b5b5f6109f8868287016108f4565b9350506020610a09868287016108f4565b9250506040610a1a86828701610927565b9150509250925092565b5f60ff82169050919050565b610a3981610a24565b82525050565b5f602082019050610a525f830184610a30565b92915050565b5f60208284031215610a6d57610a6c6108aa565b5b5f610a7a848285016108f4565b91505092915050565b5f5f60408385031215610a9957610a986108aa565b5b5f610aa685828601610927565b9250506020610ab7858286016108f4565b9150509250929050565b5f5f60408385031215610ad757610ad66108aa565b5b5f610ae4858286016108f4565b9250506020610af5858286016108f4565b9150509250929050565b7f696e73756666696369656e742d616c6c6f77616e6365000000000000000000005f82015250565b5f610b33601683610824565b9150610b3e82610aff565b602082019050919050565b5f6020820190508181035f830152610b6081610b27565b9050919050565b7f4e487b71000000000000000000000000000000000000000000000000000000005f52601160045260245ffd5b5f610b9e82610908565b9150610ba983610908565b9250828203905081811115610bc157610bc0610b67565b5b92915050565b7f616c726561647920696e697400000000000000000000000000000000000000005f82015250565b5f610bfb600c83610824565b9150610c0682610bc7565b602082019050919050565b5f6020820190508181035f830152610c2881610bef565b9050919050565b7f696e73756666696369656e742d62616c616e63650000000000000000000000005f82015250565b5f610c63601483610824565b9150610c6e82610c2f565b602082019050919050565b5f6020820190508181035f830152610c9081610c57565b9050919050565b5f610ca182610908565b9150610cac83610908565b9250828201905080821115610cc457610cc3610b67565b5b9291505056fea2646970667358221220e616f3a50310a96ac5bfd998dbdf4edf707508bcd15c384de47f1f58c9bd0d9f64736f6c634300081c0033","linkReferences":{}},"methodIdentifiers":{"allowance(address,address)":"dd62ed3e","approve(address,uint256)":"095ea7b3","balanceOf(address)":"70a08231","decimals()":"313ce567","initialize(uint256,address)":"da35a26f","name()":"06fdde03","symbol()":"95d89b41","totalSupply()":"18160ddd","transfer(address,uint256)":"a9059cbb","transferFrom(address,address,uint256)":"23b872dd"},"id":3}