{
	"OneDrive/Documents/Coding/SWC Examples/SWC101/SWC101_Vulnerable.sol": {
		"SWC101_Vulnerable": {
			"abi": [
				{
					"inputs": [
						{
							"internalType": "address",
							"name": "to",
							"type": "address"
						},
						{
							"internalType": "uint256",
							"name": "amount",
							"type": "uint256"
						}
					],
					"name": "badTransfer",
					"outputs": [],
					"stateMutability": "nonpayable",
					"type": "function"
				},
				{
					"inputs": [
						{
							"internalType": "address",
							"name": "",
							"type": "address"
						}
					],
					"name": "balances",
					"outputs": [
						{
							"internalType": "uint256",
							"name": "",
							"type": "uint256"
						}
					],
					"stateMutability": "view",
					"type": "function"
				},
				{
					"inputs": [],
					"name": "overflow",
					"outputs": [],
					"stateMutability": "nonpayable",
					"type": "function"
				},
				{
					"inputs": [],
					"name": "overflowVar",
					"outputs": [
						{
							"internalType": "uint8",
							"name": "",
							"type": "uint8"
						}
					],
					"stateMutability": "view",
					"type": "function"
				},
				{
					"inputs": [
						{
							"internalType": "uint8",
							"name": "amount",
							"type": "uint8"
						}
					],
					"name": "underflow",
					"outputs": [],
					"stateMutability": "nonpayable",
					"type": "function"
				},
				{
					"inputs": [],
					"name": "underflowVar",
					"outputs": [
						{
							"internalType": "uint8",
							"name": "",
							"type": "uint8"
						}
					],
					"stateMutability": "view",
					"type": "function"
				}
			],
			"devdoc": {
				"kind": "dev",
				"methods": {},
				"version": 1
			},
			"evm": {
				"assembly": "    /* \"OneDrive/Documents/Coding/SWC Examples/SWC101/SWC101_Vulnerable.sol\":253:752  contract SWC101_Vulnerable {\r... */\n  mstore(0x40, 0x80)\n    /* \"OneDrive/Documents/Coding/SWC Examples/SWC101/SWC101_Vulnerable.sol\":315:316  0 */\n  0x00\n    /* \"OneDrive/Documents/Coding/SWC Examples/SWC101/SWC101_Vulnerable.sol\":287:316  uint8 public underflowVar = 0 */\n  dup1\n  exp(0x0100, 0x00)\n  dup2\n  sload\n  dup2\n  0xff\n  mul\n  not\n  and\n  swap1\n  dup4\n  0xff\n  and\n  mul\n  or\n  swap1\n  sstore\n  pop\n    /* \"OneDrive/Documents/Coding/SWC Examples/SWC101/SWC101_Vulnerable.sol\":350:353  255 */\n  0xff\n    /* \"OneDrive/Documents/Coding/SWC Examples/SWC101/SWC101_Vulnerable.sol\":323:353  uint8 public overflowVar = 255 */\n  0x00\n  exp(0x0100, 0x01)\n  dup2\n  sload\n  dup2\n  0xff\n  mul\n  not\n  and\n  swap1\n  dup4\n  0xff\n  and\n  mul\n  or\n  swap1\n  sstore\n  pop\n    /* \"OneDrive/Documents/Coding/SWC Examples/SWC101/SWC101_Vulnerable.sol\":253:752  contract SWC101_Vulnerable {\r... */\n  callvalue\n  dup1\n  iszero\n  tag_1\n  jumpi\n  0x00\n  dup1\n  revert\ntag_1:\n  pop\n  dataSize(sub_0)\n  dup1\n  dataOffset(sub_0)\n  0x00\n  codecopy\n  0x00\n  return\nstop\n\nsub_0: assembly {\n        /* \"OneDrive/Documents/Coding/SWC Examples/SWC101/SWC101_Vulnerable.sol\":253:752  contract SWC101_Vulnerable {\r... */\n      mstore(0x40, 0x80)\n      callvalue\n      dup1\n      iszero\n      tag_1\n      jumpi\n      0x00\n      dup1\n      revert\n    tag_1:\n      pop\n      jumpi(tag_2, lt(calldatasize, 0x04))\n      shr(0xe0, calldataload(0x00))\n      dup1\n      0x4264c3\n      eq\n      tag_3\n      jumpi\n      dup1\n      0x2125b312\n      eq\n      tag_4\n      jumpi\n      dup1\n      0x27e235e3\n      eq\n      tag_5\n      jumpi\n      dup1\n      0x2d61dad1\n      eq\n      tag_6\n      jumpi\n      dup1\n      0x2fa79169\n      eq\n      tag_7\n      jumpi\n      dup1\n      0xf4567323\n      eq\n      tag_8\n      jumpi\n    tag_2:\n      0x00\n      dup1\n      revert\n        /* \"OneDrive/Documents/Coding/SWC Examples/SWC101/SWC101_Vulnerable.sol\":503:567  function overflow() external {\r... */\n    tag_3:\n      tag_9\n      tag_10\n      jump\t// in\n    tag_9:\n      stop\n        /* \"OneDrive/Documents/Coding/SWC Examples/SWC101/SWC101_Vulnerable.sol\":412:495  function underflow(uint8 amount) external {\r... */\n    tag_4:\n      tag_11\n      0x04\n      dup1\n      calldatasize\n      sub\n      0x20\n      dup2\n      lt\n      iszero\n      tag_12\n      jumpi\n      0x00\n      dup1\n      revert\n    tag_12:\n      dup2\n      add\n      swap1\n      dup1\n      dup1\n      calldataload\n      0xff\n      and\n      swap1\n      0x20\n      add\n      swap1\n      swap3\n      swap2\n      swap1\n      pop\n      pop\n      pop\n      tag_13\n      jump\t// in\n    tag_11:\n      stop\n        /* \"OneDrive/Documents/Coding/SWC Examples/SWC101/SWC101_Vulnerable.sol\":360:403  mapping(address => uint256) public balances */\n    tag_5:\n      tag_14\n      0x04\n      dup1\n      calldatasize\n      sub\n      0x20\n      dup2\n      lt\n      iszero\n      tag_15\n      jumpi\n      0x00\n      dup1\n      revert\n    tag_15:\n      dup2\n      add\n      swap1\n      dup1\n      dup1\n      calldataload\n      0xffffffffffffffffffffffffffffffffffffffff\n      and\n      swap1\n      0x20\n      add\n      swap1\n      swap3\n      swap2\n      swap1\n      pop\n      pop\n      pop\n      tag_16\n      jump\t// in\n    tag_14:\n      mload(0x40)\n      dup1\n      dup3\n      dup2\n      mstore\n      0x20\n      add\n      swap2\n      pop\n      pop\n      mload(0x40)\n      dup1\n      swap2\n      sub\n      swap1\n      return\n        /* \"OneDrive/Documents/Coding/SWC Examples/SWC101/SWC101_Vulnerable.sol\":323:353  uint8 public overflowVar = 255 */\n    tag_6:\n      tag_17\n      tag_18\n      jump\t// in\n    tag_17:\n      mload(0x40)\n      dup1\n      dup3\n      0xff\n      and\n      dup2\n      mstore\n      0x20\n      add\n      swap2\n      pop\n      pop\n      mload(0x40)\n      dup1\n      swap2\n      sub\n      swap1\n      return\n        /* \"OneDrive/Documents/Coding/SWC Examples/SWC101/SWC101_Vulnerable.sol\":575:749  function badTransfer(address to, uint256 amount) external {\r... */\n    tag_7:\n      tag_19\n      0x04\n      dup1\n      calldatasize\n      sub\n      0x40\n      dup2\n      lt\n      iszero\n      tag_20\n      jumpi\n      0x00\n      dup1\n      revert\n    tag_20:\n      dup2\n      add\n      swap1\n      dup1\n      dup1\n      calldataload\n      0xffffffffffffffffffffffffffffffffffffffff\n      and\n      swap1\n      0x20\n      add\n      swap1\n      swap3\n      swap2\n      swap1\n      dup1\n      calldataload\n      swap1\n      0x20\n      add\n      swap1\n      swap3\n      swap2\n      swap1\n      pop\n      pop\n      pop\n      tag_21\n      jump\t// in\n    tag_19:\n      stop\n        /* \"OneDrive/Documents/Coding/SWC Examples/SWC101/SWC101_Vulnerable.sol\":287:316  uint8 public underflowVar = 0 */\n    tag_8:\n      tag_22\n      tag_23\n      jump\t// in\n    tag_22:\n      mload(0x40)\n      dup1\n      dup3\n      0xff\n      and\n      dup2\n      mstore\n      0x20\n      add\n      swap2\n      pop\n      pop\n      mload(0x40)\n      dup1\n      swap2\n      sub\n      swap1\n      return\n        /* \"OneDrive/Documents/Coding/SWC Examples/SWC101/SWC101_Vulnerable.sol\":503:567  function overflow() external {\r... */\n    tag_10:\n        /* \"OneDrive/Documents/Coding/SWC Examples/SWC101/SWC101_Vulnerable.sol\":558:559  1 */\n      0x01\n        /* \"OneDrive/Documents/Coding/SWC Examples/SWC101/SWC101_Vulnerable.sol\":543:554  overflowVar */\n      0x00\n      0x01\n        /* \"OneDrive/Documents/Coding/SWC Examples/SWC101/SWC101_Vulnerable.sol\":543:559  overflowVar += 1 */\n      dup3\n      dup3\n      dup3\n      swap1\n      sload\n      swap1\n      0x0100\n      exp\n      swap1\n      div\n      0xff\n      and\n      add\n      swap3\n      pop\n      0x0100\n      exp\n      dup2\n      sload\n      dup2\n      0xff\n      mul\n      not\n      and\n      swap1\n      dup4\n      0xff\n      and\n      mul\n      or\n      swap1\n      sstore\n      pop\n        /* \"OneDrive/Documents/Coding/SWC Examples/SWC101/SWC101_Vulnerable.sol\":503:567  function overflow() external {\r... */\n      jump\t// out\n        /* \"OneDrive/Documents/Coding/SWC Examples/SWC101/SWC101_Vulnerable.sol\":412:495  function underflow(uint8 amount) external {\r... */\n    tag_13:\n        /* \"OneDrive/Documents/Coding/SWC Examples/SWC101/SWC101_Vulnerable.sol\":481:487  amount */\n      dup1\n        /* \"OneDrive/Documents/Coding/SWC Examples/SWC101/SWC101_Vulnerable.sol\":465:477  underflowVar */\n      0x00\n      dup1\n        /* \"OneDrive/Documents/Coding/SWC Examples/SWC101/SWC101_Vulnerable.sol\":465:487  underflowVar -= amount */\n      dup3\n      dup3\n      dup3\n      swap1\n      sload\n      swap1\n      0x0100\n      exp\n      swap1\n      div\n      0xff\n      and\n      sub\n      swap3\n      pop\n      0x0100\n      exp\n      dup2\n      sload\n      dup2\n      0xff\n      mul\n      not\n      and\n      swap1\n      dup4\n      0xff\n      and\n      mul\n      or\n      swap1\n      sstore\n      pop\n        /* \"OneDrive/Documents/Coding/SWC Examples/SWC101/SWC101_Vulnerable.sol\":412:495  function underflow(uint8 amount) external {\r... */\n      pop\n      jump\t// out\n        /* \"OneDrive/Documents/Coding/SWC Examples/SWC101/SWC101_Vulnerable.sol\":360:403  mapping(address => uint256) public balances */\n    tag_16:\n      mstore(0x20, 0x01)\n      dup1\n      0x00\n      mstore\n      keccak256(0x00, 0x40)\n      0x00\n      swap2\n      pop\n      swap1\n      pop\n      sload\n      dup2\n      jump\t// out\n        /* \"OneDrive/Documents/Coding/SWC Examples/SWC101/SWC101_Vulnerable.sol\":323:353  uint8 public overflowVar = 255 */\n    tag_18:\n      0x00\n      0x01\n      swap1\n      sload\n      swap1\n      0x0100\n      exp\n      swap1\n      div\n      0xff\n      and\n      dup2\n      jump\t// out\n        /* \"OneDrive/Documents/Coding/SWC Examples/SWC101/SWC101_Vulnerable.sol\":575:749  function badTransfer(address to, uint256 amount) external {\r... */\n    tag_21:\n        /* \"OneDrive/Documents/Coding/SWC Examples/SWC101/SWC101_Vulnerable.sol\":668:674  amount */\n      dup1\n        /* \"OneDrive/Documents/Coding/SWC Examples/SWC101/SWC101_Vulnerable.sol\":644:652  balances */\n      0x01\n        /* \"OneDrive/Documents/Coding/SWC Examples/SWC101/SWC101_Vulnerable.sol\":644:664  balances[msg.sender] */\n      0x00\n        /* \"OneDrive/Documents/Coding/SWC Examples/SWC101/SWC101_Vulnerable.sol\":653:663  msg.sender */\n      caller\n        /* \"OneDrive/Documents/Coding/SWC Examples/SWC101/SWC101_Vulnerable.sol\":644:664  balances[msg.sender] */\n      0xffffffffffffffffffffffffffffffffffffffff\n      and\n      0xffffffffffffffffffffffffffffffffffffffff\n      and\n      dup2\n      mstore\n      0x20\n      add\n      swap1\n      dup2\n      mstore\n      0x20\n      add\n      0x00\n      keccak256\n      0x00\n        /* \"OneDrive/Documents/Coding/SWC Examples/SWC101/SWC101_Vulnerable.sol\":644:674  balances[msg.sender] -= amount */\n      dup3\n      dup3\n      sload\n      sub\n      swap3\n      pop\n      pop\n      dup2\n      swap1\n      sstore\n      pop\n        /* \"OneDrive/Documents/Coding/SWC Examples/SWC101/SWC101_Vulnerable.sol\":735:741  amount */\n      dup1\n        /* \"OneDrive/Documents/Coding/SWC Examples/SWC101/SWC101_Vulnerable.sol\":719:727  balances */\n      0x01\n        /* \"OneDrive/Documents/Coding/SWC Examples/SWC101/SWC101_Vulnerable.sol\":719:731  balances[to] */\n      0x00\n        /* \"OneDrive/Documents/Coding/SWC Examples/SWC101/SWC101_Vulnerable.sol\":728:730  to */\n      dup5\n        /* \"OneDrive/Documents/Coding/SWC Examples/SWC101/SWC101_Vulnerable.sol\":719:731  balances[to] */\n      0xffffffffffffffffffffffffffffffffffffffff\n      and\n      0xffffffffffffffffffffffffffffffffffffffff\n      and\n      dup2\n      mstore\n      0x20\n      add\n      swap1\n      dup2\n      mstore\n      0x20\n      add\n      0x00\n      keccak256\n      0x00\n        /* \"OneDrive/Documents/Coding/SWC Examples/SWC101/SWC101_Vulnerable.sol\":719:741  balances[to] += amount */\n      dup3\n      dup3\n      sload\n      add\n      swap3\n      pop\n      pop\n      dup2\n      swap1\n      sstore\n      pop\n        /* \"OneDrive/Documents/Coding/SWC Examples/SWC101/SWC101_Vulnerable.sol\":575:749  function badTransfer(address to, uint256 amount) external {\r... */\n      pop\n      pop\n      jump\t// out\n        /* \"OneDrive/Documents/Coding/SWC Examples/SWC101/SWC101_Vulnerable.sol\":287:316  uint8 public underflowVar = 0 */\n    tag_23:\n      0x00\n      dup1\n      sload\n      swap1\n      0x0100\n      exp\n      swap1\n      div\n      0xff\n      and\n      dup2\n      jump\t// out\n\n    auxdata: 0xa2646970667358221220f9d0a925cefbaf27245b692c06b8c03c5ec3037ebb02bd64481650c4b717235964736f6c634300060c0033\n}\n",
				"bytecode": {
					"linkReferences": {},
					"object": "608060405260008060006101000a81548160ff021916908360ff16021790555060ff600060016101000a81548160ff021916908360ff16021790555034801561004757600080fd5b506102f8806100576000396000f3fe608060405234801561001057600080fd5b50600436106100615760003560e01c80624264c3146100665780632125b3121461007057806327e235e3146100a15780632d61dad1146100f95780632fa791691461011a578063f456732314610168575b600080fd5b61006e610189565b005b61009f6004803603602081101561008657600080fd5b81019080803560ff1690602001909291905050506101b9565b005b6100e3600480360360208110156100b757600080fd5b81019080803573ffffffffffffffffffffffffffffffffffffffff1690602001909291905050506101e8565b6040518082815260200191505060405180910390f35b610101610200565b604051808260ff16815260200191505060405180910390f35b6101666004803603604081101561013057600080fd5b81019080803573ffffffffffffffffffffffffffffffffffffffff16906020019092919080359060200190929190505050610213565b005b6101706102b1565b604051808260ff16815260200191505060405180910390f35b6001600060018282829054906101000a900460ff160192506101000a81548160ff021916908360ff160217905550565b806000808282829054906101000a900460ff160392506101000a81548160ff021916908360ff16021790555050565b60016020528060005260406000206000915090505481565b600060019054906101000a900460ff1681565b80600160003373ffffffffffffffffffffffffffffffffffffffff1673ffffffffffffffffffffffffffffffffffffffff1681526020019081526020016000206000828254039250508190555080600160008473ffffffffffffffffffffffffffffffffffffffff1673ffffffffffffffffffffffffffffffffffffffff168152602001908152602001600020600082825401925050819055505050565b60008054906101000a900460ff168156fea2646970667358221220f9d0a925cefbaf27245b692c06b8c03c5ec3037ebb02bd64481650c4b717235964736f6c634300060c0033",
					"opcodes": "PUSH1 0x80 PUSH1 0x40 MSTORE PUSH1 0x0 DUP1 PUSH1 0x0 PUSH2 0x100 EXP DUP2 SLOAD DUP2 PUSH1 0xFF MUL NOT AND SWAP1 DUP4 PUSH1 0xFF AND MUL OR SWAP1 SSTORE POP PUSH1 0xFF PUSH1 0x0 PUSH1 0x1 PUSH2 0x100 EXP DUP2 SLOAD DUP2 PUSH1 0xFF MUL NOT AND SWAP1 DUP4 PUSH1 0xFF AND MUL OR SWAP1 SSTORE POP CALLVALUE DUP1 ISZERO PUSH2 0x47 JUMPI PUSH1 0x0 DUP1 REVERT JUMPDEST POP PUSH2 0x2F8 DUP1 PUSH2 0x57 PUSH1 0x0 CODECOPY PUSH1 0x0 RETURN INVALID PUSH1 0x80 PUSH1 0x40 MSTORE CALLVALUE DUP1 ISZERO PUSH2 0x10 JUMPI PUSH1 0x0 DUP1 REVERT JUMPDEST POP PUSH1 0x4 CALLDATASIZE LT PUSH2 0x61 JUMPI PUSH1 0x0 CALLDATALOAD PUSH1 0xE0 SHR DUP1 PUSH3 0x4264C3 EQ PUSH2 0x66 JUMPI DUP1 PUSH4 0x2125B312 EQ PUSH2 0x70 JUMPI DUP1 PUSH4 0x27E235E3 EQ PUSH2 0xA1 JUMPI DUP1 PUSH4 0x2D61DAD1 EQ PUSH2 0xF9 JUMPI DUP1 PUSH4 0x2FA79169 EQ PUSH2 0x11A JUMPI DUP1 PUSH4 0xF4567323 EQ PUSH2 0x168 JUMPI JUMPDEST PUSH1 0x0 DUP1 REVERT JUMPDEST PUSH2 0x6E PUSH2 0x189 JUMP JUMPDEST STOP JUMPDEST PUSH2 0x9F PUSH1 0x4 DUP1 CALLDATASIZE SUB PUSH1 0x20 DUP2 LT ISZERO PUSH2 0x86 JUMPI PUSH1 0x0 DUP1 REVERT JUMPDEST DUP2 ADD SWAP1 DUP1 DUP1 CALLDATALOAD PUSH1 0xFF AND SWAP1 PUSH1 0x20 ADD SWAP1 SWAP3 SWAP2 SWAP1 POP POP POP PUSH2 0x1B9 JUMP JUMPDEST STOP JUMPDEST PUSH2 0xE3 PUSH1 0x4 DUP1 CALLDATASIZE SUB PUSH1 0x20 DUP2 LT ISZERO PUSH2 0xB7 JUMPI PUSH1 0x0 DUP1 REVERT JUMPDEST DUP2 ADD SWAP1 DUP1 DUP1 CALLDATALOAD PUSH20 0xFFFFFFFFFFFFFFFFFFFFFFFFFFFFFFFFFFFFFFFF AND SWAP1 PUSH1 0x20 ADD SWAP1 SWAP3 SWAP2 SWAP1 POP POP POP PUSH2 0x1E8 JUMP JUMPDEST PUSH1 0x40 MLOAD DUP1 DUP3 DUP2 MSTORE PUSH1 0x20 ADD SWAP2 POP POP PUSH1 0x40 MLOAD DUP1 SWAP2 SUB SWAP1 RETURN JUMPDEST PUSH2 0x101 PUSH2 0x200 JUMP JUMPDEST PUSH1 0x40 MLOAD DUP1 DUP3 PUSH1 0xFF AND DUP2 MSTORE PUSH1 0x20 ADD SWAP2 POP POP PUSH1 0x40 MLOAD DUP1 SWAP2 SUB SWAP1 RETURN JUMPDEST PUSH2 0x166 PUSH1 0x4 DUP1 CALLDATASIZE SUB PUSH1 0x40 DUP2 LT ISZERO PUSH2 0x130 JUMPI PUSH1 0x0 DUP1 REVERT JUMPDEST DUP2 ADD SWAP1 DUP1 DUP1 CALLDATALOAD PUSH20 0xFFFFFFFFFFFFFFFFFFFFFFFFFFFFFFFFFFFFFFFF AND SWAP1 PUSH1 0x20 ADD SWAP1 SWAP3 SWAP2 SWAP1 DUP1 CALLDATALOAD SWAP1 PUSH1 0x20 ADD SWAP1 SWAP3 SWAP2 SWAP1 POP POP POP PUSH2 0x213 JUMP JUMPDEST STOP JUMPDEST PUSH2 0x170 PUSH2 0x2B1 JUMP JUMPDEST PUSH1 0x40 MLOAD DUP1 DUP3 PUSH1 0xFF AND DUP2 MSTORE PUSH1 0x20 ADD SWAP2 POP POP PUSH1 0x40 MLOAD DUP1 SWAP2 SUB SWAP1 RETURN JUMPDEST PUSH1 0x1 PUSH1 0x0 PUSH1 0x1 DUP3 DUP3 DUP3 SWAP1 SLOAD SWAP1 PUSH2 0x100 EXP SWAP1 DIV PUSH1 0xFF AND ADD SWAP3 POP PUSH2 0x100 EXP DUP2 SLOAD DUP2 PUSH1 0xFF MUL NOT AND SWAP1 DUP4 PUSH1 0xFF AND MUL OR SWAP1 SSTORE POP JUMP JUMPDEST DUP1 PUSH1 0x0 DUP1 DUP3 DUP3 DUP3 SWAP1 SLOAD SWAP1 PUSH2 0x100 EXP SWAP1 DIV PUSH1 0xFF AND SUB SWAP3 POP PUSH2 0x100 EXP DUP2 SLOAD DUP2 PUSH1 0xFF MUL NOT AND SWAP1 DUP4 PUSH1 0xFF AND MUL OR SWAP1 SSTORE POP POP JUMP JUMPDEST PUSH1 0x1 PUSH1 0x20 MSTORE DUP1 PUSH1 0x0 MSTORE PUSH1 0x40 PUSH1 0x0 KECCAK256 PUSH1 0x0 SWAP2 POP SWAP1 POP SLOAD DUP2 JUMP JUMPDEST PUSH1 0x0 PUSH1 0x1 SWAP1 SLOAD SWAP1 PUSH2 0x100 EXP SWAP1 DIV PUSH1 0xFF AND DUP2 JUMP JUMPDEST DUP1 PUSH1 0x1 PUSH1 0x0 CALLER PUSH20 0xFFFFFFFFFFFFFFFFFFFFFFFFFFFFFFFFFFFFFFFF AND PUSH20 0xFFFFFFFFFFFFFFFFFFFFFFFFFFFFFFFFFFFFFFFF AND DUP2 MSTORE PUSH1 0x20 ADD SWAP1 DUP2 MSTORE PUSH1 0x20 ADD PUSH1 0x0 KECCAK256 PUSH1 0x0 DUP3 DUP3 SLOAD SUB SWAP3 POP POP DUP2 SWAP1 SSTORE POP DUP1 PUSH1 0x1 PUSH1 0x0 DUP5 PUSH20 0xFFFFFFFFFFFFFFFFFFFFFFFFFFFFFFFFFFFFFFFF AND PUSH20 0xFFFFFFFFFFFFFFFFFFFFFFFFFFFFFFFFFFFFFFFF AND DUP2 MSTORE PUSH1 0x20 ADD SWAP1 DUP2 MSTORE PUSH1 0x20 ADD PUSH1 0x0 KECCAK256 PUSH1 0x0 DUP3 DUP3 SLOAD ADD SWAP3 POP POP DUP2 SWAP1 SSTORE POP POP POP JUMP JUMPDEST PUSH1 0x0 DUP1 SLOAD SWAP1 PUSH2 0x100 EXP SWAP1 DIV PUSH1 0xFF AND DUP2 JUMP INVALID LOG2 PUSH5 0x6970667358 0x22 SLT KECCAK256 0xF9 0xD0 0xA9 0x25 0xCE 0xFB 0xAF 0x27 0x24 JUMPDEST PUSH10 0x2C06B8C03C5EC3037EBB MUL 0xBD PUSH5 0x481650C4B7 OR 0x23 MSIZE PUSH5 0x736F6C6343 STOP MOD 0xC STOP CALLER "
				},
				"gasEstimates": {
					"creation": {
						"codeDepositCost": "152000",
						"executionCost": "41980",
						"totalCost": "193980"
					},
					"external": {
						"badTransfer(address,uint256)": "42174",
						"balances(address)": "1191",
						"overflow()": "21939",
						"overflowVar()": "1141",
						"underflow(uint8)": "21951",
						"underflowVar()": "1132"
					}
				},
				"methodIdentifiers": {
					"badTransfer(address,uint256)": "2fa79169",
					"balances(address)": "27e235e3",
					"overflow()": "004264c3",
					"overflowVar()": "2d61dad1",
					"underflow(uint8)": "2125b312",
					"underflowVar()": "f4567323"
				}
			},
			"storageLayout": {
				"storage": [
					{
						"astId": 4,
						"contract": "OneDrive/Documents/Coding/SWC Examples/SWC101/SWC101_Vulnerable.sol:SWC101_Vulnerable",
						"label": "underflowVar",
						"offset": 0,
						"slot": "0",
						"type": "t_uint8"
					},
					{
						"astId": 7,
						"contract": "OneDrive/Documents/Coding/SWC Examples/SWC101/SWC101_Vulnerable.sol:SWC101_Vulnerable",
						"label": "overflowVar",
						"offset": 1,
						"slot": "0",
						"type": "t_uint8"
					},
					{
						"astId": 11,
						"contract": "OneDrive/Documents/Coding/SWC Examples/SWC101/SWC101_Vulnerable.sol:SWC101_Vulnerable",
						"label": "balances",
						"offset": 0,
						"slot": "1",
						"type": "t_mapping(t_address,t_uint256)"
					}
				],
				"types": {
					"t_address": {
						"encoding": "inplace",
						"label": "address",
						"numberOfBytes": "20"
					},
					"t_mapping(t_address,t_uint256)": {
						"encoding": "mapping",
						"key": "t_address",
						"label": "mapping(address => uint256)",
						"numberOfBytes": "32",
						"value": "t_uint256"
					},
					"t_uint256": {
						"encoding": "inplace",
						"label": "uint256",
						"numberOfBytes": "32"
					},
					"t_uint8": {
						"encoding": "inplace",
						"label": "uint8",
						"numberOfBytes": "1"
					}
				}
			},
			"userdoc": {
				"kind": "user",
				"methods": {},
				"version": 1
			}
		}
	}
}